:020000022000DC
:1060000000000120B5620200DD620200DF620200D2
:10601000E1620200E3620200E562020000000000AB
:10602000000000000000000000000000E762020025
:10603000E962020000000000EB620200ED62020073
:10604000F98E0200EF620200D9970200EF620200AF
:10605000EF620200EF62020091920200EF62020022
:10606000EF620200EF620200EF620200EF620200E4
:10607000EF620200EF620200EF620200EF620200D4
:10608000EF6202005D720200EF620200EF62020046
:10609000FD720200EF620200F9CE0200EF62020020
:1060A000EF620200EF620200EF620200EF620200A4
:1060B000EF620200EF62020000000000000000003A
:1060C000EF620200EF620200EF620200EF62020084
:1060D000EF620200EF620200EF62020000000000C7
:1060E00000000000000000000000000000000000B0
:1060F00000000000000000000000000000000000A0
:10610000000000000000000000000000000000008F
:10611000000000000000000000000000000000007F
:10612000000000000000000000000000000000006F
:10613000000000000000000000000000000000005F
:10614000000000000000000000000000000000004F
:10615000000000000000000000000000000000003F
:10616000000000000000000000000000000000002F
:10617000000000000000000000000000000000001F
:10618000000000000000000000000000000000000F
:1061900000000000000000000000000000000000FF
:1061A00000000000000000000000000000000000EF
:1061B00000000000000000000000000000000000DF
:1061C00000000000000000000000000000000000CF
:1061D00000000000000000000000000000000000BF
:1061E00000000000000000000000000000000000AF
:1061F000000000000000000000000000000000009F
:1062000010B5054C237833B9044B13B10448AFF3F0
:1062100000800123237010BDC02C0020000000006E
:106220002CF3020008B5034B1BB103490348AFF33D
:10623000008008BD00000000C42C00202CF30200E8
:10624000154B002B08BF134B9D46A3F5803A002148
:106250008B460F461348144A121A07F052F80F4B98
:10626000002B00D098470E4B002B00D09847002001
:10627000002104000D000D48002802D00C48AFF3A7
:10628000008006F0EFFF2000290004F08BFE06F0EE
:10629000D5FF00BF00000800000001200000000042
:1062A00000000000C02C0020A43E002000000000E0
:1062B000000000000649074A074B9B1A03DD043B18
:1062C000C858D050FBDC02F057FAFFF7B9FF0000C6
:1062D0002CF40200982A0020C02C0020FEE7FEE7E4
:1062E000FEE7FEE7FEE7FEE7FEE7FEE7FEE7FEE786
:1062F000704700BF00B583B0044B0093044A4023AD
:1063000000F036F803B05DF804FB00BF156302002F
:10631000E02C002002B32DE9F843114B114E8846C2
:10632000144643F0010903270025224608EB050126
:10633000002004F06FFF03461D444FF47A40E41A36
:1063400023B9337833B1C847013F06D001233370F6
:10635000002CEAD1BDE8F88370473770BDE8F883B8
:1063600030E50200DC2C0020704700BF05F006B8C5
:10637000F0B595B0002415460F4608461E4602F0BB
:10638000BBF8384623460895082205A91A9D0996A8
:106390000D950A948DF82C400C9402F007F99DF8A5
:1063A00014308DF81140DDE9061003F00302012AD4
:1063B000CDE9020127D0022A04D0384602F0A0F825
:1063C00015B0F0BDBDF81650C3F3C2038DF8103000
:1063D000AD090826082D2C4628BF0824334622463E
:1063E0000EA9384602F0E2F82D1B214608AB02AA9E
:1063F0000EA8264400F0ACFC002DEBD1384602F08C
:106400007FF815B0F0BDBDF81460059DC6F3831686
:10641000C3F3C204B2000EA9384608238DF8104019
:10642000C5F3952502F0C2F808AB324628460EA9FE
:10643000009302AB00F0E6FB384602F061F815B0BD
:10644000F0BD00BF08B5FFF791FF0421034800F03D
:106450008FFB034B01225A7108BD00BF14F40200E8
:10646000982A0020F0B5324C85B004F5836001F025
:1064700007FC04F2144001F003FCD4E9013703EAFD
:106480000702D01C04EB800114F8200010F0040077
:1064900044D003F1020C0E7806F00306012E654687
:1064A00035D0022E02F1030621D004EB860100282C
:1064B000F1D104EB82020133D26801923B4004EB3C
:1064C000830302F00302012ADE6829D0022A23D1C5
:1064D000BDF806309B090333360C05EB93051548D0
:1064E00001F0DAFB00B16560304605B0F0BD4B88C5
:1064F0000CEB931307EA0302D11C03F1020C14F80E
:106500002100654604EB810100F00400CFE70B8811
:10651000C3F383136344EDE70026E0E79D1CC8E75F
:10652000BDF80430C3F38313360C1D44D7E700BF16
:10653000F02D0020043200200B4B0C4810B5002237
:10654000FF21C3F818249960C3E90022C3F814247A
:1065500083F8202401F08CFF044610B9044802F0AF
:1065600099F8204610BD00BFF02D002098F30200DE
:1065700054E5020021B9124B03EBC00000687047DC
:10658000104A0F49521AD20815D030B40E4D2B883C
:10659000834212D0002303E035F82340844205D023
:1065A00001339A42F8D1002030BC704701EBC300A0
:1065B000006830BC7047104670470846F8E700BFD7
:1065C000ACF3020014F40200BC2C0020094B01398A
:1065D00003EBC00003290BD8DFE801F00208060432
:1065E0000220704740797047007970470420704757
:1065F00000207047ACF302002DE9F04383B002ABFA
:10660000002203F8012DDFF8DC9007461846884683
:10661000D9F8084001F09EFAD9E90132D9F80060B2
:10662000134401339B1B012B58D809F21C4501214F
:10663000284601F00DFBFFF715FF0146284601F043
:1066400007FBD9E90132D9F80010134401335B1A72
:10665000012BECD90A400332052302319DF80700D3
:1066600049F82230C9F8001001F09AFA00211C48BC
:1066700001F0CCFA80F31000731C234009EB830374
:1066800000043440033440EA1740D86019F824303D
:1066900067F3C50309F8243039F824306FF3891300
:1066A00029F8243059F8242068F39F221346012149
:1066B00061F301036FF3820349F8242009F82430C1
:1066C00099F820341BB906E000F00EF818B1D9E9AA
:1066D00000329A42F8D103B0BDE8F0833146B9E701
:1066E0000C320020F02D00202DE9F047934C0023C0
:1066F00084B0C4F81834BFF34F8FD4E9015605EACB
:106700000602D31C04EB830114F82330580719D573
:1067100027680B7803F00303012B43D0022B03D12E
:106720004B88023505EB931506EA0502D4F81804E8
:10673000D31C04EB830128B9AF4239D914F82330B4
:106740005B07E6D404EB82026B1CD26801923340F3
:1067500004EB830302F00302DB680293022A05F1D3
:10676000020700F08D80012A26D0D4F810543DB1E4
:106770002B6828469B689847EB681D68002DF7D169
:106780006F48704B7049C01AC008000440F0020006
:10679000FFF732FFD4E90030C01A18BF012004B05F
:1067A000BDE8F0870B880235C3F383131D44BBE7B4
:1067B000676004B0BDE8F087BDF804206348C2F309
:1067C0008313062B28BF062363F389120233990033
:1067D000ADF8042001F04EFE80460028C5D001F03F
:1067E0008BFE0023082201A9404601F0ABFEBDF854
:1067F000043013F4707F00F09F806FF0010AAAEB61
:10680000050A082506EA070103312B46042204EB9A
:106810008101404601F096FEBDF8043007F1010900
:106820000AEB0902C3F3831393424F4605F10405B3
:10683000E8D8D4F81834002B68D1D4F8105465B1D6
:10684000EB685A7928464146002A5BD02B681B68C2
:106850009847EB681D68002DF2D1404601F050FECC
:1068600004A8002300F80D3D01F074F9D4F81834A1
:106870000BB9C4F804909DF8030001F091F989E781
:10688000BDF8063031484FEA93194D46502D28BFC8
:10689000502565F38F1305F10801ADF8063001F0BE
:1068A000E9FD804600283FF460AF26EA070A0AF1B6
:1068B000010A01F021FE4FEA8A0A0023082201A9F9
:1068C000404601F03FFE55452BD9EBB2BAF1000F1F
:1068D00020D006EA0701A3EB0A03033104EB810190
:1068E000DDB252460823404601F02CFE2A460AF14A
:1068F00008031749404601F025FE09F1030907EB9B
:10690000990996E71D68002D9AD1A6E7404601F047
:10691000F7FD3FE72A4608230D49404601F012FEE5
:10692000EBE706EA0701033104EB81012A4608235D
:10693000404601F007FEE0E7B9467AE7F02D002077
:10694000D4F30200ACF3020060E5020098F3020009
:10695000FC2D00202DE9F04782B002AB002403F8A3
:10696000014DDFF8ECA00746184691468846DAF854
:10697000084001F0EFF8DAE90132DAF80060134478
:1069800001339B1B022B5ED80AF21C4501212846CD
:1069900001F05EF9FFF766FD0146284601F058F95F
:1069A000DAE90132DAF80010134401335B1A022BE2
:1069B000ECD90A400332033145239DF807004AF819
:1069C0002230CAF8001001F0EBF8B31C23400AEBA8
:1069D000830300211D48C3F80C9001F017F980F3E0
:1069E0001000731C23400AEB83030004344003347B
:1069F00040EA1740D8601AF8243067F3C5030AF854
:106A000024303AF82430012161F389132AF8243024
:106A10005AF8242068F39F22134661F301036FF3B1
:106A200082034AF824200AF824309AF820341BB94B
:106A300006E0FFF759FE18B1DAE900329A42F8D1C0
:106A400002B0BDE8F0873146B3E700BF0C3200204A
:106A5000F02D00202DE9F04F83B002AD002405F8A1
:106A6000014D3B4C8046284693469A468946A56888
:106A700001F070F8D4E90132276813440133DB1BBD
:106A8000032B63D804F21C460121304601F0E0F8E4
:106A9000FFF7E8FC0146304601F0DAF8D4E90132AC
:106AA0002168134401335B1A032BEDD90A400332EA
:106AB000852344F8223004319DF80700216001F05D
:106AC0006FF8BA1CFB1C2A402B4004EB820204EB3B
:106AD000830300211F48C2F80CB0C3F80CA001F0DA
:106AE00095F880F310007B1C2B4004EB830300041B
:106AF0003D40033540EA1840D86014F8253068F36B
:106B0000C50304F8253034F82530022262F38913D6
:106B100024F8253054F8252069F39F2213460121DB
:106B200061F301036FF3820344F8252004F8253054
:106B300094F820341BB906E0FFF7D6FD18B1D4E96C
:106B400000329A42F8D103B0BDE8F08F3946ADE784
:106B5000F02D00200C320020044BD3E900239A4290
:106B600001D0FFF7C1BD0020704700BFF02D00200D
:106B700030B4184DD5F8104400215CB1E3681A799F
:106B80008A4204D116E0DB681A798A4212D01B6867
:106B9000002BF8D1C3681971D5F8103493B1DA68B5
:106BA000C36812681A60D5F81034DB68186030BC0E
:106BB0000846704701310A29DFD14FF0FF310846FE
:106BC00030BC7047C5F81004C2681360084630BC7A
:106BD000704700BFF02D002038B5094BD3F81044A2
:106BE000012583F820544CB1E3685D712368204689
:106BF0005B689847E3681C68002CF5D138BD00BF7E
:106C0000F02D00202DE9F04784B01D460C9C002398
:106C100094F80C802373EB8881460E461746002BB0
:106C200040D1297A05290ED06B7AA88873BB404BD6
:106C300053F821A00021FFF79DFC524603463D4931
:106C4000204601F0A1F8062F09D8DFE807F0046A12
:106C50004249525D33004946204601F095F82B7AAF
:106C6000052B05D06B7A5BB93349204601F08CF8CF
:106C7000204601F07DF884F80C8004B0BDE8F08770
:106C80002E4A2F49204601F07FF8EDE7FFF79EFCE2
:106C90002C4B2B4953F82020204601F075F8297A17
:106CA000A888C4E7254A00922749284A204601F0CF
:106CB0006BF8B6E7D6E90410D6E900230390D6E9CD
:106CC00002070291CDE900074946204601F05CF831
:106CD000C5E74946D6E90023204601F055F8BEE74E
:106CE000B168D6E9002320460091494601F04CF8EE
:106CF000B5E7D6E90201D6E90023019100904946A3
:106D0000204601F041F8AAE7D6E90371B068D6E958
:106D100000230291CDE900074946204601F034F8EE
:106D20009DE732684946204601F02EF897E700BFFC
:106D3000ECE50200DCE50200E8E50200D0E5020037
:106D4000D8E5020078E50200B8E50200B0E50200EF
:106D5000082900D970472DE9F04F1D4690460023C1
:106D60002A7B2B7385B0B8F80630039207460E468F
:106D7000002B78D198F80810052911D098F809301F
:106D8000B8F80400002B60D13B4B53F821400021A0
:106D9000FFF7F0FB224603463849284600F0F4FF8F
:106DA000DFF8F8B0DFF8F890002405E03A5D013430
:106DB00000F0EAFF082C09D0A64249462846F5D83B
:106DC0005946013400F0E0FF082CF5D12C49DFF8DA
:106DD000D490DFF8D4B0284600F0D6FF002411E0AC
:106DE00017F804A006F062FA50445946437813F0AD
:106DF000970F14BF52462E222846013400F0C4FFDC
:106E0000082C08D0A64249462846E9D8013400F0AB
:106E1000BBFF082CF6D198F80830052B02D098F863
:106E2000093063B91749284600F0AEFF284600F044
:106E30009FFF9DF80C302B7305B0BDE8F08F124A10
:106E40001249284600F0A0FFECE7FFF7BFFB104B0C
:106E50000E4953F82020284600F096FF98F80810B5
:106E6000B8F8040090E7084A00920A490A4A2846FE
:106E700000F08AFF7EE700BFECE50200DCE50200DF
:106E8000A8E50200E8E50200D0E50200D8E502002E
:106E900078E50200B8E50200B0E50200A4E50200D2
:106EA0009CE50200E4E50200ACE50200434B1978E2
:106EB000002900F081802DE9F04F002487B00125E2
:106EC0008E4603E00134E4B2744560D23C4B27B2F5
:106ED0001E6816F837C0ACF1200205FA02F9394AEB
:106EE000CCF12003D2E9000125FA03F349EA0309B2
:106EF00005FA0CF800EA080201EA0903134306EB5D
:106F0000C70BDFD021EA09032E4920EA08026046B8
:106F1000C1E9002302F0B2F916F837C0ACF1200243
:106F200005FA02F201920199CCF12003C6B225FACA
:106F300003F3ACF12002194306FA02F30393224B48
:106F40000191D3E90023CDE9042305FA0CF3009362
:106F5000CCF12001039B26FA01F10B43039306FABF
:106F60000CF30293DDE90467DDE9002316401F40BE
:106F700032463B46DDE90267BB4208BFB24209D058
:106F80000E4B013493F800E0E4B274459ED307B091
:106F9000BDE8F08F9BF80110DBF80430A1F101018E
:106FA000B1FA81F14909091AB1FA81F14909002BB5
:106FB000E6D060469847E3E7704700BFAC32002058
:106FC000E8320020E0320020D83200202DE9F84FCE
:106FD0000646244800F018FCD8B9234F0123A6F137
:106FE000200103FA01FBC6F12002D7E9000123FAD0
:106FF00002F24BEA020B03FA06FA00EA0A0201EA7D
:107000000B03134307D020EA0A0421EA0B05C7E962
:107010000045BDE8F88F304602F030F9134ED6E94E
:107020000089C8B148EA0A0349EA0B049846A14618
:10703000D7E900234BEA03050D4B0A4819684AEAD1
:1070400002044B464246C6E90023C7E90045002238
:10705000BDE8F84F00F082BB28EA0A0829EA0B09CC
:10706000E6E700BFB4320020E0320020D832002032
:10707000B0320020042A36D92DE9F04182B00E4604
:107080000546144601F0B0FF002836D01D491E4ABF
:107090001E4B0D601E481F491C6016700023002205
:1070A000741EC0E90023C1E90023E4B2EEB105EB90
:1070B000C404194F083D4FF00008032601E0AC421C
:1070C00013D0A37820788DF806803A4601A98DF870
:1070D00004608DF8053001F091FF083C0028EED0E7
:1070E00002B0BDE8F081072070470C4A0C4800212F
:1070F00000F022FB02B0BDE8F08101F02FFF002874
:10710000C4D0EDE7E8320020AC320020B0320020DD
:10711000D8320020E0320020CD6F0200AD6E0200B8
:1071200058E6020070B5084D2B785BB1074E00247D
:107130003368012113F8340002F03EF82B78013453
:10714000A342F5D8002070BDAC320020E832002008
:1071500000B585B000230390194601AA44F201004E
:10716000CDE9013300F004F805B05DF804FB00BF81
:1071700010B572B6FFF730FDFFF7EEFC0028FBD12B
:10718000104B114C1149E41AE408240444F00100A6
:10719000FFF732FA0E4B1B68DB0700D500BE44F048
:1071A00002000C49FFF728FABFF34F8F0A490B4B37
:1071B000CA6802F4E0621343CB60BFF34F8F00BF95
:1071C000FDE700BFACF30200D4F302005CE602006E
:1071D000F0ED00E068E6020000ED00E00400FA05D2
:1071E00059B142B1531E1A4005D1826001608380BB
:1071F000C26010467047092070470E20704700BFDC
:1072000010B403468468C0689A88001B82420AD37F
:10721000D8681C6802400020A154DA680132DA60A4
:107220005DF8044B704704205DF8044B704700BFC5
:1072300003468068DA6890420DD010B498689A8846
:107240001C6802400020A25C0A709A6801329A60B1
:107250005DF8044B70470520704700BFF8B5204A21
:10726000204B0024C2F84041C2F84441C2F84841D2
:10727000C2F84C41C2F80041C2F804411B6833B364
:107280001949D2F804550A68AD1A1A6825F07F45E5
:10729000AA4227460DD8197CDE69AD1A144419B1EB
:1072A0001F74D3E9052090471EB133461A68AA42DD
:1072B000F1D90E490E4A0B7812789A4208D00D493E
:1072C0000D4A41F823404FF48013C2F80031F8BD55
:1072D000531CDBB2022B08BF00230B70EFE700BF8B
:1072E000001001400C340020083400200534002038
:1072F00004340020FC33002000E100E02DE9F04FD1
:107300008C4A8D4913780978DFF85082994285B00C
:10731000D8F800A000F07B810133DBB2022B08BF5C
:10732000002386481370864A076852F823107B189A
:1073300023F07F4300240360534626462046A4469C
:10734000ABB11A688A4200F26581DC68C3F800C0FC
:10735000891A1044DA6934B13D1825F07F45C3E934
:107360000154DE611E4613460124002BE9D1002C96
:1073700040F07C8101230093724B734FDFF8E09162
:1073800043F00103019355464FF0000B46B3D6E995
:1073900001C13446F669694B6C481A68ACEB0203CC
:1073A00023F07F43834248D80B442360002201210D
:1073B000C4E90122E2612174002D5DD02A689A425D
:1073C0004DD2284603E00A689A424FD20846C16966
:1073D0009B1A0029F7D12360E161C461002ED6D148
:1073E00078783978884264D00B4603EB43034C1C11
:1073F000BA7807EBC303E1B28A421A79397004BF45
:1074000000213970022A9C6844D0032A38D0012A0E
:10741000E8D1227C002AE5D1D3F80CC0C4F804C01E
:107420001969A1605869E06099F800009B69A3613F
:107430000028B0D062609446ADE7A2EB0C0222F0C7
:107440007F428A4202D28B1A2360AFE700230122D7
:10745000C4E90033A360E36122746DB12A68C8F8FF
:107460000040D31A2B60E56125468FE7D21A0A60E7
:107470002360E161C461B1E7C8F80040254685E7B3
:10748000002DAFD000232B74ED69002DFBD1C8F87F
:107490000050A5E74DB1AC422B4603D1E4E0944245
:1074A0002FD01346DA69002AF9D1002323748842C9
:1074B0009AD1BBF1000F01D1554553D0002D56D1C3
:1074C000234E244A1F4C4FF480334FF400310127E0
:1074D000C2F880103C43C6F848334FF43C60C6F80D
:1074E00008337760A047154BB7604FF43C601D60D0
:1074F000A047194B1D70002389F8003005B0BDE886
:10750000F08FA34200F09180E0692168D8610028E3
:1075100000F086802A4603680B440360AA424FF0BD
:1075200000033978787823741CBF15464FF0010B9F
:10753000BDE700BF043400200534002008340020DB
:10754000FC33002080E60200EC320020FEFF7F00CA
:107550000010014000E100E0F93300200C3400206D
:10756000F8330020009B002BC5D0002DA8D0434B42
:10757000434A1C68D2F80465424FD5F800A0397818
:10758000331B23F07F43DD1CB9B93F493F4B4FF418
:107590008030C2F844034FF00108C2F804034FF4EE
:1075A0000030C1F8800143F001030860C2F8008098
:1075B0004FF43C60984787F80080AA452CBF04EB45
:1075C0000A0363192E4923F07F43C1F84035D1F8EF
:1075D0000425921B9B1B22F07F4223F07F43033242
:1075E0009A4288D9294BD1F80425C1F8402543F0A7
:1075F00001034FF43C609847234B4FF40032C3F82B
:107600000021002389F8003005B0BDE8F08F002686
:107610000096B1E674BB521A1A6001230093ABE6E0
:10762000002339787878237441E71946EA69C8F865
:10763000002092B9CDE90231114BDFF840C00120A2
:107640009860019B89F80000CCF800204FF43C6062
:107650009847DDE90231D8F80020C8690968D86187
:1076600000287FF458AF59E72946DFE7C8F8003013
:107670009A467FE6C8F800309A46CCE708340020E6
:1076800000100140F933002000E100E080E6020034
:107690002DE9F8431F4D204E204FDFF898804FF41E
:1076A00080334FF400324FF001090024C6F88020E7
:1076B00047EA0907C5F848334FF43C60C5F808337A
:1076C000C5F80490B847C5F808904FF43C60C8F876
:1076D0000040B847124A134B13491C601470134BF7
:1076E000134A0C700B2114701C8099704FF4801297
:1076F000C023C6F8802186F814333260C5F80845E7
:1077000086F81133D5F80435C8F800302046BDE8B6
:10771000F88300BF0010014000E100E080E60200B5
:10772000F93300200C34002004340020EC32002017
:107730000534002008340020074B9B784BB132B150
:1077400028B10368187C20B959745A617047072022
:1077500070470820704700BFEC3200202DE9F04749
:10776000264CA37882B0002B3CD000283AD00429C4
:107770003CD94369002B35D0814602A899F81130D5
:107780000026012B00F8016D0CBF8846B046174655
:107790008A4600F0DFF96378A17822789DF8070027
:1077A0005D1CEDB2A94208BF3546AA4222D003EBC8
:1077B000430304EBC3030121114AC3F80890197174
:1077C000D2F804256570C3E9032AC3E9058700F0F0
:1077D000E7F90C4B4FF480123046C3F8002102B099
:1077E000BDE8F087082002B0BDE8F087072002B0AE
:1077F000BDE8F08700F0D4F90420F0E7EC32002077
:107800000010014000E100E0F0B51A4CA37883B00D
:1078100043B338B343692BB3064602A8002500F8EA
:10782000015D357400F096F96278A77821789DF8AB
:107830000700531CDBB29F4208BF2B46994214D06D
:1078400002EB420204EBC2020221966011716370E6
:1078500000F0A6F9084B4FF480122846C3F8002127
:1078600003B0F0BD082003B0F0BD00F099F904208A
:10787000F9E700BFEC32002000E100E030B5047809
:10788000012C83B027D017D3022C13D1384B394D9C
:107890001A78C168AA5C01918DF80040002A33D1A2
:1078A00003F10C000122344902F0E4F9334B68463D
:1078B0001B68984703B030BD31493248FFF7B8FC28
:1078C000002844D002A8032300F8083D2B4B1B6876
:1078D000984703B030BD43682B4D19782846FFF711
:1078E0008FFC40B3254B01908DF800401B68684623
:1078F0009847A968EB68AA885B1A9A420AD2234B78
:1079000001221A7003B030BD181D01221A4902F07D
:107910002BFCCBE71648174A0378D35C2BB901221E
:1079200015490C3002F0A6F9C4E7012212490430CF
:1079300002F01AFCBEE7AA68EB689A42D9D002AB03
:107940000E4A03F8080D126818469047D1E7084818
:10795000084A0378D35C2BB9012209490C3002F0A4
:1079600017F9A7E701220649043002F09FFBA1E7BF
:10797000A02A0020243E00203834002010340020AB
:107980003C3400202834002014340020243400200B
:107990002DE9F045324C89B02260002955D00C46C3
:1079A00080468A882F4809689A46FFF719FC10B16B
:1079B00009B0BDE8F085A289A1682B48FFF710FC4B
:1079C0000028F5D1294D98F810C0D8F81470284E29
:1079D0000FCD6C460FC495E80F0098F811501CF1BC
:1079E000000C18BF4FF0010C002D84E80F00D8F8F0
:1079F0000850D8F80040D8F80430069714BF0E227B
:107A00000022D8F80C708DF8152069463046194AC6
:107A10008DF81CA08DF814C0CDE90275CDE90034B5
:107A200001F0FCF90028C3D1D8F80030124A013324
:107A30001070BDD0114A3378D35C53B906F10C00F5
:107A400001220F4902F016F9B2E7072009B0BDE89C
:107A5000F085301D01220A4902F086FBA8E700BF2D
:107A600010340020143400202834002088E602005E
:107A7000A02A00207D78020024340020243E00202B
:107A80003834002070B5114C014611482678FFF7B4
:107A9000CFFB05460EB9284670BD0E480E4A037846
:107AA000D35C0022227053B90C3001220B4902F042
:107AB000E1F80028EFD0FFF74BFB284670BD01220C
:107AC0000649043002F050FBF3E700BF24340020E5
:107AD00014340020A02A0020243E00203834002046
:107AE00070B501461548FFF78BFB044608B12046E8
:107AF00070BD134D134E2B78F35CABB905F10C0040
:107B000002F0ACF80028F2D10F490C48FFF790FBC7
:107B10000028ECD12B780C49F35C012243B90B48C7
:107B2000BDE8704002F034B8281D02F00FFBE9E711
:107B30000748BDE8704002F0B9BA00BF2834002001
:107B4000A02A0020243E00203C340020AC2A002043
:107B5000A42A002070B4EFF3108472B60D4B9A681B
:107B6000AAB90D490D4E01259D60D1F880503540D0
:107B70001D60C1F88060D1F884505D604FF0FF3324
:107B8000C1F88430027004B962B670BC704701233A
:107B90000370F8E7183E002000E100E0FC06FFBD9E
:107BA000094B9A687AB170B910B4EFF3108272B6CB
:107BB00006491C680C605C684C60986002B962B64B
:107BC0005DF8044B70477047183E002000E100E06C
:107BD00001F01F024B09012100EB8300914000F0EE
:107BE0001FB800BF01F01F0201234909934000EBB9
:107BF0008100D94300F020B84B0901F01F0150F873
:107C00002300C84000F00100704700BF50E8002F7B
:107C10000B4640E8003C9CF0000FF7D1104670473F
:107C200050E8003F43EA010240E8002C9CF0000FBE
:107C3000F6D11046704700BF50E8003F03EA01024A
:107C400040E8002C9CF0000FF6D11046704700BFB2
:107C500050E8003F03EB010240E8002C9CF0000FCD
:107C6000F6D11046704700BF50E8003FA3EB010279
:107C700040E8002C9CF0000FF6D11046704700BF82
:107C8000012350E8002F42EA030C40E800C191F0C4
:107C9000000FF6D160467047002350E800CF0CEA91
:107CA000030240E8002191F0000FF6D160467047D2
:107CB000B8B130B4D0E90112521A0468D2B2531EDE
:107CC0002160DBB242B101680A685C1E551C0D6080
:107CD0001370E3B2FF2BF6D103680020187130BC9B
:107CE00070470E20704700BFF0B583B002AB00258F
:107CF00003F8015D04461846FFF72CFFD4E9003174
:107D00001A688A4210D9511E19602168A3680F6849
:107D100012F8015C0A79268AE068DB1BDBB29A4222
:107D200006FB050538BF0B719DF80700FFF738FF0C
:107D3000284603B0F0BD00BF30B583B002AB0022CF
:107D400003F8012D054618460C46FFF703FF2A6885
:107D50001368591C1160E9682A8A641AB4FBF2F4AA
:107D60001C709DF80700FFF71BFF03B030BD00BF7C
:107D7000826842B110B504464369016800699847BA
:107D80000023A36010BD70470EB400B582B0039904
:107D900029B102AA04AB42F8043D00F08BF802B00E
:107DA0005DF804EB03B070472DE9F84F8846904525
:107DB000174605461E46DDE90AB175D343464FF026
:107DC0000109B3FBF7F39F4209F10109F9D9B14564
:107DD00038BFB14611F0010AAA6802D1BBF1000F09
:107DE00043D1012402E0013E07FB04F4012EFAD83E
:107DF000B8FBF4F18F42F7D92D4E05E0B4FBF7F450
:107E0000A4B1B8FBF4F1AA68705C531CAB602B689A
:107E10009854D5E901329A4204FB1188EED32846E2
:107E2000FFF7A6FFB4FBF7F4002CEAD1BAF1000F7C
:107E300015D0BBF1000F12D0CB4510D92024AB6870
:107E40002A68591CA960D454D5E901329A420BF131
:107E5000FF3B06D2BBF1000F01D0CB45EFD1BDE80F
:107E6000F88F2846FFF784FFF4E78B0717D4202408
:107E7000CB45B6D92B68511CA9609C54D5E9013279
:107E80009A420BF1FF3B05D2BBF1000FA9D0CB45C5
:107E9000F0D1A6E72846FFF76BFFAA68F4E7002EAB
:107EA0000CBF30242024E3E74FF001098FE700BF27
:107EB000A8E60200002900F0F4812DE9F04F054604
:107EC00085B092460C460B78DFF8A0B501E0237828
:107ED00093B1013483B1252B15D0AA682968501CB1
:107EE000A8608B54D5E901329A42F0D32846FFF7B7
:107EF0003FFF2378002BECD12B7B002B40F014812B
:107F000005B0BDE8F08F2146002711F8012B2D2A7E
:107F100000F0E180302A00F0E2802B2A00F0D280CD
:107F20002A2A00F0E080A2F13006F3B2092B03D92F
:107F3000B8E1A3F130060146084606EB860310F8C7
:107F4000012BA2F13004092C02EB4303F1D92E2AB4
:107F500000F0D5800023013101E011F8012B02F07F
:107F6000FB0068280C46F8D0253A532AAFD801A167
:107F700051F822F035810200CF7E0200CF7E020050
:107F8000CF7E0200CF7E0200CF7E0200CF7E0200B5
:107F9000CF7E0200CF7E0200CF7E0200CF7E0200A5
:107FA000CF7E0200CF7E0200CF7E0200CF7E020095
:107FB000CF7E0200CF7E0200CF7E0200CF7E020085
:107FC000CF7E0200CF7E0200CF7E0200CF7E020075
:107FD000CF7E0200CF7E0200CF7E0200CF7E020065
:107FE000CF7E0200CF7E0200CF7E0200CF7E020055
:107FF000CF7E0200CF7E0200CF7E0200CF7E020045
:10800000CF7E0200CF7E0200CF7E0200CF7E020034
:10801000CF7E0200CF7E0200CF7E0200CF7E020024
:10802000CF7E0200CF7E0200CF7E0200CF7E020014
:10803000CF7E0200CF7E0200CF7E0200CF7E020004
:108040004F810200CF7E0200CF7E0200CF7E020071
:10805000CF7E0200CF7E0200CF7E0200CF7E0200E4
:10806000CF7E0200CF7E0200CF7E02006981020037
:108070008B810200CF7E0200CF7E0200CF7E020005
:10808000CF7E02008B810200CF7E0200CF7E0200F5
:10809000CF7E0200CF7E0200CF7E0200CF7E0200A4
:1080A000DB810200CF7E0200CF7E02004F82020001
:1080B000CF7E020089820200CF7E0200CF7E0200C6
:1080C0004F81020047F004070C46214611F8012BAE
:1080D0002D2A7FF41FAF47F001070C46F5E747F064
:1080E00002070C46F1E7DAF800301A1DCAF8002042
:1080F00062781E682E2A04F102007FF42BAF4A78C2
:10810000A2F13003092B00F25081002303EB83031B
:1081100002EB430310F8012FA2F130010929A3F16A
:108120003003F3D9014616E7284605B0BDE8F04F05
:10813000FFF71EBEAB682A68591CA9604FF02501E5
:10814000D154D5E901329A42FFF4C1AECEE6DAF855
:108150000020111DCAF8001011682846CDE90067FB
:108160001022FFF721FEB2E6DAF80020131DCAF84C
:108170000030AB6829681278581CA860CA54D5E949
:1081800001329A42FFF4A3AEB0E6DAF80020111DE6
:10819000CAF80010D2F8008088EAE872A2EBE87210
:1081A000092A4FF0010107DDAF48A0FB0202D20807
:1081B000092A01F10101F7DC994238BF19468946C5
:1081C00007F00202002E71D12AB1002B00F0478186
:1081D000FA0700F18D8000268AE0DAF80020131DEE
:1081E000CAF80030AB6829681768581C3022A860AC
:1081F000CA54D5E90123934280F028812A68581C8B
:108200007821A860D154D5E90123934280F01981E7
:108210000F2F03D93A4612090F2AFCD84FF0805687
:1082200003E036093FF453AEAB682968B7FBF6F2BA
:10823000581CA8601BF80200C854D5E901319942C6
:1082400006FB1277EDD32846FFF792FDE9E7DAF84F
:1082500000301A1DCAF80020D3F80080FB077ED535
:108260004746A7EB080917F8013B002B5DD0AA6829
:108270002968501CA8608B54D5E901329A42F0D38A
:108280002846FFF775FDECE7DAF80020111DCAF863
:10829000001011682846CDE900670A22FFF784FD27
:1082A00015E6704708460026214650E6B8F1000F53
:1082B00001DB780700D5013E02B1CBB1F90717D435
:1082C000002E88D0B14513D220220393A9682B68D1
:1082D000481CA8605A54D5E90131994206F1FF368D
:1082E0005DD2002E00F0BD80B145EFD1039B4E461C
:1082F000B8F1000FC0F292807A070AD5A9684A1C2B
:10830000AA602A682B205054D5E90121914280F0BF
:10831000928007F00302022A5FD0CDE90067414650
:108320000A222846FFF740FDD1E54E457FF6CFAD46
:10833000202705E04E453FF4CAAD002E3FF4C7ADFF
:10834000AB682A68591CA960D754D5E901329A4212
:1083500006F1FF36EED32846FFF70AFDEAE7B8F14B
:10836000000F24D0404604F0F5FF0746BE4220D956
:10837000FEB14FF0200902E0BE421AD0CEB1AB6888
:108380002A68591CA96002F80390D5E901329A4283
:1083900006F1FF36F0D32846FFF7EAFCECE7284663
:1083A0000292FFF7E5FC029A9BE70146D2E54746B9
:1083B000DCE708F1FF3818F8013F002B3FF487ADE8
:1083C000AA682968501CA8608B54D5E901329A42EA
:1083D000F1D32846FFF7CCFCEDE7002B9DD1002E12
:1083E0003BD0B14599D2029323464C469946AA68A0
:1083F0002B68501C4FF03001A8609954D5E9013228
:108400009A4206F1FF3605D22EB3B442EFD1029B59
:108410004C4682E72846FFF7ABFCF5E7A9684A1C03
:10842000AA602A682D205054D5E901219142C8F153
:108430000008FFF46EAF28460293FFF799FC029BF9
:1084400067E72846FFF794FCAB68E1E62846FFF7AC
:108450008FFCAB68D2E6029B4C4600265DE71E46C9
:1084600046E7039BB7E600BFCDCCCCCCA8E6020024
:10847000FFF71EBC2DE9F041058ACE1C043D2E44B9
:108480000746B6FBF5F6FFF72FFC78B3F6B24FF4CC
:108490008073013E0446C5800760838027D08046F4
:1084A000002509E06379AE4203F101036371C8F866
:1084B0000000076080461AD03846FFF715FC0135EA
:1084C0000028EFD16679721E14D023460130824213
:1084D0001B68FBD11F684EB100252368214601357A
:1084E00038461C46FFF728FCAE42F6D10024204651
:1084F000BDE8F0812768EFE704300121FFF7A8BB52
:10850000F8B5012104460430FFF7AEFBC0B200B15C
:10851000F8BD6679721E12D02346013082421B6874
:10852000FBD11F68002EF3D00025236821460135BA
:1085300038461C46FFF700FCAE42F6D1F8BD27686E
:10854000F2E700BF2DE9F843C788467907FB06F636
:10855000043E02EB030C0446664503F10400154695
:108560008846B0FBF7F238BFF51A07FB120012B1CC
:10857000013A2468FCD13E1AAE4228BF2E469DB176
:108580004FF000090430AD1B2044324608EB0901CE
:1085900004F0ACFEAF42B14424683E464FF0000008
:1085A00028BF2E46002DEDD1BDE8F8832DE9F84314
:1085B000C7884679154607FB06F6043E05EB030C13
:1085C0001A1D664504468846B2FBF7F038BFF51A17
:1085D00007FB102110B101382468FCD17E1AAE428D
:1085E00028BF2E469DB14FF0000904312144AD1B38
:1085F000324608EB090004F079FEAF42B14424682A
:108600003E464FF0000128BF2E46002DEDD1BDE8BB
:10861000F88300BF41DF7047064A074B10B50024BE
:1086200014701C60BFF35F8F0449054800F040F8E8
:10863000204610BD483400204C340020B8E602002B
:108640004034002000B583B002A8002300F8013DAB
:10865000FFF780FAF1EE103A23F09F03E1EE103AB3
:10866000BFF35F8F0A4B4022C3F884219DF80700B7
:10867000FFF796FA04F03AFC28B920BF40BF20BFAC
:1086800003B05DF804FBFFF7C5FF03B05DF804FB22
:1086900000E100E0826800239360826813618268D1
:1086A00053618268D3608268536082681360704748
:1086B00001600B6843604A68934204BF0023436033
:1086C000704700BF436843B1026891680B44436040
:1086D0005268934204BF00234360704730B4184D82
:1086E000A5F59472AB1ADB1003EBD3735B1002EBAE
:1086F000C30152F83330984228BF0C4605D311E02D
:1087000052F8333098420CD221468B1ADB1003EB1F
:10871000D3735B108A4202EBC304F1D3094830BC27
:1087200070470D46984204D904F10802AA42D9D3F1
:10873000F4E76068034B002808BF1846EFE700BF66
:108740000CE80200D0E6020070B5161E07DD0C46EC
:108750008D1914F8010BFFF7C3F9A542F9D1304682
:1087600070BD00BF10B50C462046FFF78BF90528F9
:10877000FAD0012010BD00BF30B4904B1B78062BFF
:1087800020D08F4B1B68062B00F085808D4AD2F8D5
:10879000883043F47003C2F88830BFF34F8FBFF3C3
:1087A0006F8F4FF01023D3F80022002AC0F2868189
:1087B000D3F80432002BC0F28181834B834A1A60C4
:1087C00030BC7047824B1B681D07DAD1814B1B6898
:1087D00003F0F002302A00F09E8003F0E003402B0B
:1087E00000F099807B4B1B6803F0F003302B00F006
:1087F000B980784B1B6803F0F002302A56D003F0A2
:10880000E003402B52D0734B1B6803F0F003302B76
:1088100000F0B6806F4B1B6803F0F002302A66D080
:1088200003F0E003402B62D06A4B1B6803F0F003B7
:10883000302B00F0B580674B1B6803F0F003302B42
:1088400079D0644B1B6803F0F003502B00F0E480F8
:10885000604B1B6803F0F002302A37D003F0E003CE
:10886000402B33D05B4B1B6803F0F002302A03D05F
:1088700003F0E003402B84D14FF08043D3F8002471
:10888000D20744BF6FF00102C3F800244C4B1B68B1
:10889000062B7FF47BAF504B1B68062B7FF476AF23
:1088A0004E4A136843F4806313606FE74C4B434AAE
:1088B0001B6812784B49C3F34233062A0B6048D138
:1088C000434B1B6819077FF45CAF9CE7464A3B4B60
:1088D00012681B78454902F04F02062B0A607FF4AC
:1088E00050AF3B4B1B6819077FF44BAFBAE74FF013
:1088F00080430022C3F80C21C3F81021C3F83825A7
:108900002E4B1B78062B7FF43CAF314B1B681B07AB
:108910007FF437AF88E7364B284A1B681278354911
:10892000C3F30423062A0B60EAD1294B1B681C07FA
:108930007FF427AF56E7304C204A30491278304850
:10894000304B0525256001250D6000243F21046082
:108950001960062A7FF415AF1D4B1B681C077FF4B6
:1089600010AF6EE7154B284A1B7828491160062B7B
:108970007FF407AF164B1B6818077FF402AF38E788
:1089800023490E4BCA681B7822F08072062BCA60FE
:108990007FF4F7AE0E4B1B681A077FF4F2AE39E78F
:1089A000064B1C4A1B780321062B11607FF4E9AEAD
:1089B000074B1B681D077FF4E4AE3CE7E00F00F0B7
:1089C0003001001000ED00E0B42A00200090D00338
:1089D000E40F00F0E80F00F0340100103C170040F5
:1089E000440200103C05004058020010E40E004014
:1089F00024030010403501401056004088560040C6
:108A0000185600401456004074C007400DF0ADBA2F
:108A1000F0ED00E0A00500404FF08053404AD3F84D
:108A20000414C2F82015D3F80814C2F82415D3F89A
:108A30000C14C2F82815D3F81014C2F82C15D3F86A
:108A40001414C2F83015D3F81814C2F83415D3F83A
:108A50001C14C2F84015D3F82014C2F84415D3F8FA
:108A60002414C2F84815D3F82814C2F84C15D3F8CA
:108A70002C14C2F85015D3F83014C2F85415D3F89A
:108A80003414C2F86015D3F83814C2F86415D3F85A
:108A90003C14C2F86815D3F840142248C2F86C158B
:108AA000D3F844140378C2F87015062B7FF469AE2E
:108AB0001D4B1B6818077FF464AEC9E61B4B0122EF
:108AC000C3F80425D3F80024002AFBD04FF010236C
:108AD00015221649C3F80022D1F80034002BFBD030
:108AE0004FF010221521114BC2F80412D3F80024C4
:108AF000002AFBD000220D49C3F80425D1F8003428
:108B0000002BFBD0BFF34F8F09490A4BCA6802F410
:108B1000E0621343CB60BFF34F8F00BFFDE700BFA0
:108B200000C00040E00F00F0E40F00F000E0014062
:108B300000ED00E00400FA05054A4FF0A043105C88
:108B4000D3F8043523FA00F0C04300F00100704769
:108B5000FCEB0200044B195C4FF0A04201238B4058
:108B6000C2F80C35704700BFFCEB0200044B195CE7
:108B70004FF0A04201238B40C2F80835704700BF78
:108B8000FCEB02004FF0A04310B44FF480204FF4F0
:108B900000344FF400214FF48012C3F80845C3F8A5
:108BA0000805C3F80815C3F808255DF8044B70479D
:108BB0004FF0A04310B44FF480204FF400344FF432
:108BC00000214FF48012C3F80C45C3F80C05C3F81C
:108BD0000C15C3F80C255DF8044B7047074B4FF09C
:108BE000A041185CD1F804350122824022EA03003A
:108BF0001340C1F80805C1F80C357047FCEB0200C2
:108C0000054A4FF0A043105CD3F8103523FA00F06A
:108C1000C04300F001007047F8EB02000D2809D0B6
:108C20000E2809D00F2809D010280CBF03204FF0C0
:108C3000FF307047002070470120704702207047C6
:108C4000014B185C704700BFF8EB0200C20730B45C
:108C50001AD54FF0A0430322C3F844274FF4003540
:108C6000C3F848274FF48024C3F84C274FF4002161
:108C7000C3F850274FF48012C3F80855C3F80845CD
:108C8000C3F80815C3F8082583070AD54FF0A04399
:108C90000C22C3F83427C3F83827C3F83C27C3F89D
:108CA000402730BC704700BF10B570B101280BD110
:108CB0000D4C2369A0703BB1D3E900230120226150
:108CC00098472369002BF7D110BD074CA3680122F8
:108CD0006270002BF8D0D3E900230020A2609847EF
:108CE000A368002BF7D1EFE75034002070B910B51E
:108CF000074CA368012262703BB1D3E90023002036
:108D0000A2609847A368002BF7D110BD704700BF41
:108D10005034002030B5012883B01CD015D303286F
:108D200011D100F0C9F802A800231F4C00F8013D42
:108D3000FEF710FFE368013BE360E56865B39DF86B
:108D40000700FEF72DFF03B030BD184B0122C3F81A
:108D5000802003B030BD02A80023134C00F8013D71
:108D6000FEF7F8FE237853B1E3689DF8070001335E
:108D70000122E360A270FEF713FF03B030BD0C4880
:108D80006360A3602361E36000F088F804F0AEF84C
:108D900030B101232370E7E700F0A2F8A570CEE719
:108DA00000F08AF8F5E700BF5034002000E100E051
:108DB000A98C020030B585B00478094A094B456892
:108DC0008DF80040047AC068039053F82130019573
:108DD0008DF8084052F821106846984705B030BD1C
:108DE000643400206834002030B585B004784568CC
:108DF0008DF80040D0E90240064A074B039053F833
:108E0000213001958DF8084052F8211068469847A6
:108E100005B030BD6434002068340020F0B51A4B32
:108E200006781A4D0C6991F81DE045F82640074672
:108E3000174803F806E040F826200C4694460FCC6D
:108E400089B06D460FC594E80F0085E80F000496C1
:108E5000BEF1000F0BD0BCF1000F0E4A694607F1BE
:108E6000040008BF002201F03FF809B0F0BDBCF1DA
:108E7000000F094A694607F10C0008BF002200F004
:108E8000B5FD09B0F0BD00BF243E002064340020D1
:108E900068340020B58D0200E98D0200054A13797F
:108EA0002BB901211060537118461171704785204C
:108EB000704700BF6C340020084B1A68D20706D4F4
:108EC0000122C02183F80013C3F880211A604FF0FB
:108ED00080430122C3F81825704700BF00E100E07D
:108EE000044B01221A604FF08042D2F81834DB03A1
:108EF000FBD470470C00004010B5154B1A6882B0C7
:108F00007AB10021134A19601B68507900934FF021
:108F100080410123009CC1F8083310B911685371D6
:108F200088470D4B1A6882B100221A601B680193B2
:108F30004FF080420221074B0198C2F808131B68CA
:108F4000012002B0BDE81040184702B010BD00BFBC
:108F5000000100406C3400200401004070B51E4C3C
:108F600094F8585082B0A5BB4FF0FF332946042235
:108F700004F15400C4E90033C4E90233C4E9043302
:108F8000C4E90633C4E90833C4E90A33C4E90C333D
:108F9000C4E90E33C4E91033C4E91233236504F085
:108FA000B0F90E4B0E4A0F4E1560C02183F8061320
:108FB0004021C3F8801119601368019301994FF0A3
:108FC00000430122284684F85820C6F8043302B032
:108FD00070BD082002B070BD7434002000E100E0D4
:108FE0007C61004000600040034B93F85800003063
:108FF00018BF0120704700BF74340020F0B56C4BDF
:109000001C1894F93050002D68DA8E78C6F34006AB
:109010009646002E5CD11D6A013500F0B58009240A
:109020000C2553F8247001375BD004F1010C53F880
:109030002C70013700F0B380A71CAF4246D253F822
:109040002720013200F0AD8004F1030CAC453DD285
:1090500053F82C70013700F0A28004F1040CAC45E9
:1090600034D253F82C70013700F0998004F1050CCC
:10907000AC452BD253F82C70013700F0908004F1EE
:10908000060CAC4522D253F82C70013700F08780D3
:1090900004F1070CAC4519D253F82C7001377ED07F
:1090A00004F1080CAC4511D253F82C70013776D07E
:1090B00004F1090CAC4509D253F82C7001376ED07D
:1090C0000A34AC4202D2DC6A013409D00420F0BD7B
:1090D0001D68013567D001240825A2E70820F0BDEE
:1090E0000B241F1865B243F824E087F83050002E97
:1090F00051D08A78540714D4D6073BD44C784FF01B
:10910000A04600F5E072A40046F82240294EC408AB
:1091100000F0070C375D012202FA0CF23A43325597
:109120008A780C7812F0020209D1083D2B441046CF
:1091300093F8502042EA841483F85040F0BDAB000D
:1091400003F1804303F5C0430202D3F8101521F464
:10915000473121F44071C3F810152404D3F81015D9
:1091600004F4403402F4F85222430A43C3F81025B1
:109170000020F0BD820002F1A042D2F8004724F0A6
:109180000204C2F80047C1E7082684F83060C3F83B
:1091900020E0354634461C4484F84800A9E764467C
:1091A0009FE73C469DE700251A6084F83050A0E711
:1091B00074340020C834002070B42E4D2E1883B0B3
:1091C00096F93030072B1CDD2B4493F848309B096F
:1091D000032B41D0012B14BF4FF440314FF4003129
:1091E000800000F1A040D0F8002722F44032C0F8FF
:1091F0000027D0F800370B43C0F8003703B070BC2D
:109200007047DAB2072AF9D8980000F1804000F5DB
:10921000C04003F14002D0F81045920092B244F0F1
:10922000010402F18042C0F8104502F5C04200205E
:109230000190019C10600029E0D096F9302055F88B
:109240002220002ADAD001220B4902FA03F3C1F8E6
:10925000043303B070BC70474FF0A043D3F810350F
:10926000C34013F0010F0CBF4FF400314FF44031F5
:10927000B6E700BF74340020006000404FF0A04308
:10928000D3F8103523FA00F000F00100704700BF5A
:109290002DE9F04186B00023A14A01931668012E02
:1092A00000F054811E469F4B1A68012A00F05D8130
:1092B0009D4B1A68012A00F06A819C4B1A68012AAA
:1092C00000F077819A4B1A68012A00F08481994B4B
:1092D0001A68012A00F09181974B1A68012A00F060
:1092E0009E81964B1A68012A0CD0954B1B68012B66
:1092F00000F0A58116F0FF0F15D1002E30DB06B06F
:10930000BDE8F0818F4AD2F804231706EDD500227C
:109310001A601A6804926033049A1B68012B46F0A5
:10932000800600F08C81884F00240125A30003F102
:109330008043354203F5C0434FEA45050BD0D3F8CF
:10934000100557F82420D3F81015C0F30420C1F3FA
:10935000014102B190470134082CE7D1002ECEDA4A
:1093600000224FF0FF33CDE90223774C012602AFF4
:1093700094F950305D1C2CD0DBB223F0C00006AA5B
:109380004FEAD00C02EB0C0E03F007021EF80C1C87
:1093900006FA02F211421CD02518990995F93030CD
:1093A00054F82330002B00F09881032900F09881B5
:1093B0004FEA800C0CF1A04C1EF8145CDCF800E7BE
:1093C0001540CEF3014E40F05C81BEF1030F00F07A
:1093D000DE81002594F95130581C2DD0DBB223F0EA
:1093E000C00006AA4FEAD00802EB080E03F00701FE
:1093F0001EF80C2C06FA01FC12EA0C0F1CD02218E5
:10940000990992F9303054F82330002B00F05B8139
:10941000032900F05B81820002F1A0421EF8148C47
:10942000D2F800E718EA0C0FCEF3014E40F0368177
:10943000BEF1030F00F0A68194F95230591C2DD0D3
:10944000DBB223F0C00006AA4FEAD00802EB080EF8
:1094500003F007011EF80C2C06FA01FC12EA0C0FAF
:109460001CD02218990992F9303054F82330002B7F
:1094700000F03C81032900F03C81820002F1A0420F
:109480001EF8148CD2F800E718EA0C0FCEF3014E48
:1094900040F0E380BEF1030F00F06E8194F9533089
:1094A0005A1C2DD0DBB223F0C00006AA4FEAD00828
:1094B00002EB080E03F007011EF80C2C06FA01FC63
:1094C00012EA0C0F1CD02218990992F9303054F886
:1094D0002330002B00F0ED80032900F0ED808200A6
:1094E00002F1A0421EF8148CD2F800E718EA0C0F23
:1094F000CEF3014E40F0BC80BEF1030F00F00081BE
:10950000002D3FF4FCAE4FF0A043019AD3F8103584
:1095100093423FF4F4AE029A0193039228E700BF0E
:109520000061004004610040086100400C6100409F
:109530001061004014610040186100401C6100404F
:109540007C61004000600040743400209A49D1F8EA
:10955000041311F0010170D0136013680493049B8D
:10956000964B1A68012A7FF4A3AE934AD2F80423DB
:1095700097077FF59DAE00221A601B680493049B39
:109580008F4B1A68012A46F002067FF496AE8A4A8B
:10959000D2F8042355077FF590AE00221A601B68AD
:1095A0000493049B874B1A68012A46F004067FF453
:1095B00089AE814AD2F8042314077FF583AE0022D6
:1095C0001A601B680493049B7F4B1A68012A46F0BB
:1095D00008067FF47CAE784AD2F80423D0067FF5E3
:1095E00076AE00221A601B680493049B774B1A68BE
:1095F000012A46F010067FF46FAE6F4AD2F80423BA
:1096000091067FF569AE00221A601B680493049BE3
:109610006F4B1A68012A46F020067FF462AE664A54
:10962000D2F8042352067FF55CAE00221A601B6854
:109630000493049B46F0400653E60E4633E6654B22
:1096400000221A601B6805934FF0A043059AD3F8D7
:109650001035019346F000464CE6BEF1020F7FF450
:109660001DAF032963D0002B3FF418AF984715E7CF
:10967000BEF1020F7FF444AF032969D0002B54D10F
:109680003EE7BEF1020F7FF4A4AE032900F0918003
:109690000025002B3FF49EAE98479BE6BEF1020FDB
:1096A0007FF4CAAE032956D0002B3FF4C5AE9847CD
:1096B000C2E603297FF424AF17F8082042EA0C021F
:1096C00007F808200BE703297FF4B6AE17F8082047
:1096D00042EA0C0207F808209DE603297FF479AEE0
:1096E00017F80C50154307F80C5061E603297FF476
:1096F000D5AE17F8082042EA0C0207F80820BCE6AD
:109700000329BBD14FF4003ED2F800C72CF4403CF3
:10971000C2F800C7D2F800C701354CEA0E0CEDB212
:10972000C2F800C7002B3FF4EEAE9847E8E64FF4CE
:10973000403ED2F800C72CF4403CC2F800C7D2F833
:1097400000C701354CEA0E0CEDB2C2F800C78AE73B
:109750004FF4403ED8E74FF4403ED2F800C72CF417
:10976000403CC2F800C7D2F800C701354CEA0E0CE5
:10977000EDB2C2F800C797E703297FF474AF4FF446
:10978000003ED6E703298FD14FF4003EE5E70329D9
:109790007FF47FAF4FF40035DCF8002722F440322D
:1097A000CCF80027DCF800272A43CCF80027012555
:1097B0006FE74FF44035EFE7006000400461004080
:1097C000086100400C6100401061004014610040DD
:1097D000186100407C610040014B1B68184700BFC6
:1097E000D0340020104B984201D00020704730B593
:1097F00083B002A8002300F8013D0D46FEF7AAF948
:109800000A4B1C7934B19DF80700FEF7C9F9112005
:1098100003B030BD01229DF807001D601A71FEF7EC
:10982000BFF92046F4E700BF00200040D0340020FC
:1098300030B56C4AD2F8043399058BB066D5D2F8AE
:109840002431002B62D00023C2F82431D2F8243115
:1098500003934FF40171644B0398C2F8081393F813
:10986000291009B9012151605E4902228DF81820A2
:10987000D1F88024C1F880249869D968099200221F
:10988000CDE90710C3E90622D3E9001406A8A047D2
:10989000544AD2F81C31BBB1534B186A59698842FB
:1098A00069D350480022C0F81C21D0F81C01019057
:1098B000019849B198688DF8182008915A6107906D
:1098C000D3E9001206A89047464AD2F84431DBB1EA
:1098D0000021454BC2F84411D2F8440193F82910F5
:1098E0000090009809B1012111609A6962B10022CB
:1098F000586AD9689A610122CDE907108DF81820BD
:1099000006A8D3E9001290470BB030BD354AD2F813
:1099100004335B07BCD5D2F80831002BB8D0324BEA
:10992000996900293CD00021C2F80811D2F8081129
:1099300004910499D868596AD2F8182542545A6A91
:10994000996901325A625A6A8A42A1D1DA69196860
:10995000002A2ED0D8685D6A1C699A61079000229F
:109960000120DC60DA615A628DF8180008955B68A6
:1099700006A898478CE793F8280000F0FF04002819
:109980008FD1C2F81C41D2F81C11029102999C6837
:10999000186A196A205C01311962C2F81C0593E744
:1099A000C2F80811D2F8080105900598D2F81825D8
:1099B000C9E793F8292012B90A4A01205060094AE0
:1099C0004FF40170C2F80803586ADA68089000245E
:1099D000012007928DF818005A689C6106A89047EC
:1099E00056E700BF00200040D83400202DE9F041A8
:1099F000DFF8988107792C2606FB078682B096F857
:109A00002A30002B40F08F800D4604465C490068E8
:109A10001646FFF7E7FE002840F081802B68591CAE
:109A20000CD001224FF0A04102FA03F3C1F808352F
:109A30002B6803F5E073032241F823206B685A1C5E
:109A400006D003F5E0734FF0A042002142F8231046
:109A50002368AA69C3F82425297D6B7D22680B43FE
:109A6000C2F86C35D5E900122368C3F81425C3F891
:109A70000C152B7D012B5AD02C2303FB07F308EB8D
:109A8000030256602A6948F80320002E34D0226869
:109A90002B7F3C4D0021C2F81C11D2F81C210092F2
:109AA0002268009EC2F84411D2F844112268019144
:109AB0000199C2F804532168090B4AB25B01002ADC
:109AC000DBB256DB02F1604202F5614282F80033FC
:109AD0002268120B42F3C40323F0604323F0030314
:109AE00003F1604303F5614302F01F02012101FA13
:109AF00002F2C3F880211A602C23246803FB078339
:109B0000002204250121C4F8005583F82A10C3E976
:109B1000062283F829205A6102B0BDE8F0811120A5
:109B200002B0BDE8F081082002B0BDE8F081AB686A
:109B3000591C06D003F5E0734FF0A042002142F813
:109B40002310EB685A1C0DD001224FF0A04102FAFD
:109B500003F3C1F80835EB6803F5E073032241F81D
:109B60002320EB682268A968C2F80835C2F81015EE
:109B700082E7054A01F00F010A441376A8E700BF07
:109B80003198020080000200FCEC00E0D834002094
:109B9000F0B5314E05792C2303FB056385B05C6974
:109BA000002C53D11C62996083F828405A610268E6
:109BB000C2F81C41D2F81C11026802910121029FD7
:109BC00091600268D3F808C0C2F81C41D2F81C1199
:109BD00001910199D3F820E0196A5F681CF80EE042
:109BE00001311962C2F81CE517B1204605B0F0BD7D
:109BF0001A6A5C690168944203D819E093F8282036
:109C00003ABBD1F81C21002AF8D0C1F81C71D1F858
:109C10001C210392039AD3F820E01A6A1CF80EE084
:109C200001321A62C1F81CE51A6AA242E9D301683E
:109C3000D1F81C31002BFBD00123CB6000202C235A
:109C400003FB056500236B6105B0F0BD112005B075
:109C5000F0BD0F20F3E700BFD83400200379044A99
:109C60002C2101FB03235869003018BF01207047E5
:109C7000D8340020F0B4514D04792C2303FB045355
:109C800086B05F6827B103684FF40176C3F80863B4
:109C90002C2303FB04539E696EB1DE690EB3002FC3
:109CA00000F0848003684FF401721120C3F804238C
:109CB00006B0F0BC704793F829709A61D9605E6273
:109CC000DE61002F60D02C2202FB04520168536831
:109CD00053B14FF40173C1F80433002006B0F0BC57
:109CE00070471961DA61EEE7C1F84431D1F84431C7
:109CF0000393039B0368D3F82461D3F80871D3F866
:109D0000441157B9002936D1002EF4D02C2303FB7F
:109D100004540023A3610320E0E7002EF6D161BBC9
:109D2000966996B1C3F80811D3F808110491049903
:109D3000D668516AD3F818357354536A9169013360
:109D40005362536A9942D5D808E0C3F80861D3F842
:109D5000081105910599D3F81835536A2C2303FB94
:109D60000454002294F82930A2610BB30368012146
:109D700010461960B2E7002EC8D12C2303FB04540F
:109D80000023A3610F20A9E70368C3F82471D3F867
:109D9000242103680192019AC3F80871D3F80821BD
:109DA00003680292012202991A608CE7112095E75C
:109DB000026801211846516090E700BFD8340020A6
:109DC000F0B5474BD3F8242189B0002A54D00021A4
:109DD000C3F82411D3F82421029202228DF8102016
:109DE000029AD3F880043F4AC3F880040790D3F85E
:109DF0003C05D3688DF81800C2E906110593116877
:109E0000536804A89847364BD3F84421BAB10020D0
:109E1000344AC3F84401D3F8444191690194019C48
:109E200069B1D3F83C458DF81840D368906101249E
:109E30000593116853688DF8104004A89847284B83
:109E4000D3F82021B2B10021264AC3F82011D3F85B
:109E5000204150690094009C60B1D3F84C05936890
:109E60008DF818008DF810105161059304A8D2E9FF
:109E70000013984709B0F0BDD3F810110029C2D0E3
:109E8000C3F81021D3F81011164803910399816982
:109E9000D3F83C458C42B6D1C569C768D0E90016F5
:109EA000E4B295B1D3F800C285612CF02005C261FF
:109EB000C3F800520369C36001228DF8184005976A
:109EC0008DF8102004A8B0479DE7012385618DF827
:109ED000184005978DF8103004A8B04793E700BFED
:109EE00000200040043500202DE9F04307796B4E37
:109EF0004FEAC70808EB070306EB830385B093F826
:109F00002030002B40F09E800D46044664490068D6
:109F10009146FFF767FC002840F090802B68591CA1
:109F20000CD001224FF0A04102FA03F3C1F808352A
:109F30002B6803F5E073032241F823206B685A1C59
:109F400006D003F5E0734FF0A042002142F8231041
:109F50002368AA69C3F82425297D6A7D23680A43FA
:109F6000C3F86C25D5E900312268C2F80C35C2F877
:109F700014152B7D012B69D008EB07029200B31852
:109F8000C3F804902B69B350B9F1000F45D0216894
:109F90002B7F444D0022C1F81021D1F810110091FF
:109FA0002168DDF800C0C1F82021D1F8201101910D
:109FB0002168DDF804C0C1F82421D1F824110291F0
:109FC0002168DDF808C0C1F84421D1F844112268A5
:109FD00003910399C2F804532168090B4AB25B014B
:109FE000002ADBB254DB02F1604202F5614282F8E2
:109FF00000332268120B42F3C40323F0604323F0C2
:10A00000030303F1604303F5614302F01F020121E2
:10A0100001FA02F2C3F880211A604744226806EB75
:10A02000870600230124082186F82040C2F8001585
:10A03000C6E90633736105B0BDE8F083112005B0B1
:10A04000BDE8F083082005B0BDE8F083AB68591C7B
:10A0500006D003F5E0734FF0A042002142F8231030
:10A06000EB685A1C0DD001224FF0A04102FA03F315
:10A07000C1F80835EB6803F5E073032241F82320AB
:10A08000EB682268A968C2F80835C2F8101573E7B2
:10A09000054A01F00F010A441376AAE704350020AF
:10A0A000C19D020010030200FCEC00E001F06043DF
:10A0B000B3F1005F2CD1F0B50679234F4FEAC60CFF
:10A0C0000CEB060407EB840483B0636913BBA16047
:10A0D00062610568C5F82031D5F820E10568CDF842
:10A0E00004E0DDF804E0C5F85831D5F858E105681A
:10A0F000CDF800E0DDF800E0C5F84415C5F84825C6
:10A1000002680121916062683AB1184603B0F0BD5F
:10A1100010207047112003B0F0BD036800E08AB939
:10A12000D3F82011D3F858210029F8D0002A14BF01
:10A130000F2000200CEB060307EB830300225A617B
:10A1400003B0F0BD0F20F5E7043500200379054A80
:10A1500003EBC30302EB83035869003018BF0120EF
:10A16000704700BF0435002001F06043B3F1005F89
:10A170007ED1F0B40579464CEB005E1904EB8606FF
:10A1800082B0766826B107684FF4047CC7F808C32C
:10A190002B4404EB83039D69002D42D19A61DD615C
:10A1A000D9600368C3F81051D3F8106103680196B1
:10A1B000019EC3F84451D3F8445103680095009DB3
:10A1C000C3F83415C3F83825036801221A600579ED
:10A1D0000368EE00721904EB820252685AB14FF420
:10A1E0000472C3F80423002002B0F0BC70470029B9
:10A1F00042D1002846D1D3F81021D3F84411D3F826
:10A200002401002AF3D0354400284FF0000304EB6A
:10A21000850414BF032018469942A36118BF0F207C
:10A22000E2E7DD693DB12EB303684FF40472C3F871
:10A2300004231120D8E71961DA610368C3F81051CB
:10A24000D3F8106103680196019EC3F84451D3F816
:10A25000445103680095009DC3F83415C3F83825B0
:10A260000268D2F8003243F02003C2F80032AEE7B1
:10A27000102070471120B7E7354404EB85040F2008
:10A28000A261B1E7354404EB85040320A161ABE78B
:10A29000043500200220FEF7A1BC00BF2DE9F047E5
:10A2A0000D460646FEF7BAFC03281ED8012D0446CB
:10A2B0001DD00ED3022D18D11B4B00EB40041C44C3
:10A2C000657895B1194B1B687BB12846BDE8F0470E
:10A2D00018471748FDF798FA134B164A04EB440148
:10A2E0000B44125D9D78AA42EBD0BDE8F0870E4F7B
:10A2F0004FEA400808EB0003FA18FD5C53782BB9CD
:10A30000A04447440B4BBA781A55DAE7DFF8289097
:10A3100007484A464FF40041FDF720FA0028EFD1E4
:10A3200089F80060ECE700BF8C350020A0350020E4
:10A330004C350020A83500202835002010B50078C5
:10A34000FEF76CFC03280BD8064B00EB40001844CA
:10A35000407828B1044B1B6813B1BDE81040184782
:10A3600010BD00BF8C350020A0350020B44B1B6809
:10A37000DB0700D4704770B5B24DB34E2B783478FC
:10A380006BB1B24B1B7800202870002B4BD0FEF72E
:10A39000EDFB0120FEF7EAFB0320FEF7E7FB172C9D
:10A3A00040D8DFE814F0B600F400F400DC00080147
:10A3B000CA001301EE00500043005000430061004A
:10A3C00018001800180018001800660077008B00AD
:10A3D0009F005D005D009E48FDF716FAD4F1110460
:10A3E000054600F00081002840F0FD80012C13D0CC
:10A3F000C82303FB04F44FF4FA704FF40043002128
:10A40000C3FB04014FF47A72002303F005FF2A46D0
:10A4100001468F48FDF7A2F90220FEF79BFB8B4B0C
:10A4200001221A7070BDFEF7ADFBB8E70123184694
:10A430002B70FEF7D3FB00224FF480418548BDE826
:10A440007040FDF78BB9012318462B70FEF7C6FB51
:10A45000002240F6CD417F48BDE87040FDF77EB94F
:10A46000FEF7A6FB347070BDFEF7A2FB0C23337021
:10A4700070BD764B1B78002B00F0BF800020FEF7EC
:10A4800075FB0120FEF772FB0320FEF76FFB122322
:10A49000337070BD6D4B1B78002B00F0B180002035
:10A4A000FEF764FB0120FEF761FB0320FEF75EFB75
:10A4B0000020FEF74FFB1323337070BD634B1B78F6
:10A4C000002B00F0AD800020FEF750FB0120FEF7CE
:10A4D0004DFB0320FEF74AFB0120FEF73BFB142354
:10A4E000337070BD594B1B78002B00F08380002027
:10A4F000FEF73CFB0120FEF739FB0320FEF736FB9D
:10A500000020FEF727FB0120FEF724FB1523337004
:10A5100070BD4E4B1B78002B00F08A800020FEF7A8
:10A5200025FB0120FEF722FB0320FEF71FFB494815
:10A53000FDF76AF90023337070BD0020FEF7FCFAC6
:10A54000002860D00020FEF711FB052333700022A5
:10A5500041F69A113F48BDE87040FDF7FFB8002072
:10A56000FEF7EAFA00285ED00020FEF7FFFA46F276
:10A5700066610323337000223648BDE87040FDF762
:10A58000EDB80020FEF7E6FA0723337070BD002017
:10A59000FEF7D2FAD0B30020FEF7E8FA022C4EF212
:10A5A000666118BF4FF40031347000222948BDE8BD
:10A5B0007040FDF7D3B80020FEF7BEFAD8B30020F4
:10A5C000FEF7D4FA4FF400310423D3E70020FEF75E
:10A5D00005FB06233370002240F6CD411D48BDE83F
:10A5E0007040FDF7BBB80220FEF7C0FA174B0022FF
:10A5F0001A7070BDFEF7C6FA82E7FEF7C3FA46E7A7
:10A60000FEF7C0FA54E7FEF7A5FA9EE7FEF7A2FAB6
:10A6100043F2333141F69A13022C08BF1946C3E7BF
:10A62000FEF7B0FA58E7FEF795FA41F69A11A0E75F
:10A63000FEF7A8FA7BE7FEF78DFA43F23331C3E762
:10A64000983500209C350020A435002029350020B5
:10A650002C3500206C350020032801D900207047DC
:10A66000FEF7CEBA38B5C54B1C6814F0010401D111
:10A67000204638BDC24C2378054663B1C14B1B78D8
:10A680000020207023B3FEF771FA0120FEF76EFA66
:10A690000320FEF76BFA172D00F26D81DFE815F04D
:10A6A000C300EC00EC001001D900230102013601C7
:10A6B00028001B0028001B006A0071007100710057
:10A6C000710071009A00AD0035004B006400640019
:10A6D000FEF758FADFE7012318462370FEF77EFAEB
:10A6E00000224FF48041A848BDE83840FDF736B855
:10A6F000012318462370FEF771FA002240F6CD417F
:10A70000A148BDE83840FDF729B89E4B1B78002BC7
:10A7100000F016810020FEF729FA0120FEF726FA44
:10A720000320FEF723FA0120FEF714FA974B1422B8
:10A730001A7000249CE7934B1B78002B00F00381D8
:10A740000020FEF713FA0120FEF710FA0320FEF7AF
:10A750000DFA0020FEF7FEF90120FEF7FBF98B4B06
:10A7600015221A70002483E7FEF722FA874B002493
:10A770001D707DE7FEF71CFA844B0C221A70002432
:10A7800076E78348FDF740F80446D5F1110000F064
:10A79000C580002C40F0C280012814D0C82505FBDC
:10A7A00000F54FF400434FF4FA700021C3FB05019C
:10A7B0004FF47A72002303F02FFD224601467448BD
:10A7C000FCF7CCFF04460220FEF7C4F96D4B0122D2
:10A7D0001A704DE76B4B1B78002B00F0AE80002009
:10A7E000FEF7C4F90120FEF7C1F90320FEF7BEF918
:10A7F000664B12221A7000243AE7624B1B78002B3A
:10A8000000F093800020FEF7B1F90120FEF7AEF9C9
:10A810000320FEF7ABF90020FEF79CF95B4B1322F7
:10A820001A70002424E7574B1B78002B00F08E8011
:10A830000020FEF79BF90120FEF798F90320FEF7B0
:10A8400095F95148FCF7E0FF504B002204461A707E
:10A850000EE70020FEF770F9002869D00020FEF70F
:10A8600085F94FF40031494B474804241C700022FD
:10A87000BDE83840FCF772BF0020FEF75DF9002804
:10A880006CD00020FEF772F9022D4EF2666118BFFF
:10A890004FF400313D4B3C481D700022BDE838406C
:10A8A000FCF75CBF0020FEF799F9384B36480624C8
:10A8B0001C70002240F6CD41BDE83840FCF74EBF89
:10A8C0000020FEF739F9002843D00020FEF74EF9AA
:10A8D00046F266612D4B2C4803241C700022BDE813
:10A8E0003840FCF73BBF0020FEF726F900283FD098
:10A8F0000020FEF73BF9254B234805241C7000225D
:10A9000041F69A11BDE83840FCF728BF0020FEF759
:10A9100021F91E4B07221A700024A9E60220FEF737
:10A9200025F9184B00221A70A2E6FEF72BF972E700
:10A93000FEF710F943F2333195E7FEF723F957E7B5
:10A94000FEF720F9EFE6FEF71DF902E7FEF71AF928
:10A9500077E7FEF7FFF841F69A11BBE7FEF7FAF842
:10A9600043F2333141F69A13022D08BF194691E79D
:10A97000FEF7F0F8BFE700247AE600BF9835002024
:10A980009C350020293500206C350020A43500209E
:10A990002C35002038B5244B244A196083071060F9
:10A9A00000F0010503D4CDB92C46204638BD204B1C
:10A9B00020480E240F2210211C701124DA70997186
:10A9C0005C7240F266620421FCF754FB0446B8B1A5
:10A9D00015B10120FEF73AF9204638BD0120FEF7F7
:10A9E00035F9154A15480021FCF7A6FE0446002853
:10A9F000F2D1134A13480121BDE83840FCF79CBE50
:10AA0000FCF790FB04460028E2D101460E4A0F48AD
:10AA1000FCF792FE0446002DDED00120FEF716F969
:10AA2000002CD9D1DDE700BFA035002098350020EB
:10AA30008C3500202CEC02006DA3020054EC0200C7
:10AA400095A202004CEC02003DA3020050EC020073
:10AA5000032811D8012A0BD0012919D00ED30229BD
:10AA60000AD10E4B00EB4000034400205A7070479F
:10AA700001290AD00022EFE707207047074B00EBBF
:10AA80004000034400209A70704700F10E02D2B2D9
:10AA900000EB400301490020CA5470478C35002068
:10AAA000032813D808B5FEF7CBF8800000F1A043C7
:10AAB0000020D3F8002722F44032C3F80027D3F84F
:10AAC000002742F44032C3F8002708BD0620704733
:10AAD00010B50388102B07D0112B04D1254B186813
:10AAE0000138186030B110BD224C216881B10131AC
:10AAF000216010BD01220221FFF7AAFF38B3072809
:10AB000025D01D4B1B68002BEDD0BDE81040184729
:10AB100001220846FFF79CFF38B1072805D0164BE5
:10AB20001B6803B198472168E1E707220221012051
:10AB3000FFF78EFF08B10728F1D10422022100207F
:10AB4000FFF786FF0028EED00728E8D1EBE70722C1
:10AB500002210120FFF77CFF08B10728D1D1002195
:10AB600008460A22FFF774FF0028BCD00728C8D186
:10AB700010BD00BFB0350020AC35002008B5002066
:10AB8000FFF78EFF10B1062800D008BD0120FFF7A7
:10AB900087FF0028F9D0062808BF002008BD00BFA5
:10ABA000184B10B5186031B101200C46FFF754FD69
:10ABB000F8B102232370144B186808B1002010BDAF
:10ABC00001220221FFF744FF08B10728F7D107222D
:10ABD00002210120FFF73CFF08B10728EFD1002137
:10ABE00008460A22FFF734FF0028E7D00728E5D0FF
:10ABF00010BDFFF731FD08B92070DCE70B2323708F
:10AC0000D9E700BFAC350020B035002076DF7047B3
:10AC10007ADF70477CDF70477FDF70478FDF7047D8
:10AC2000B1DF704733DF7047FCF792BA10B5038885
:10AC3000103B82B00446462B2FD8DFE803F0425980
:10AC40002E692E2E2E2E2E2E2E2E2E2E2E2E2E24F3
:10AC50002E2E2E2E2E2E2E2E2E2E2E2E2E2E2E2E14
:10AC60002E2E2E2E2E2E2E2E2E302E2E2E2E2E2E02
:10AC70002E2E2E2E2E2E2E2E2E2E2E2E2E2E2E2EF4
:10AC8000382E2E2E300002A9002321F8043D8088A2
:10AC9000FFF7C4FF08B1FCF75BFA02B010BD808873
:10ACA0001321FFF7B3FF0028F5D102B010BD1F4AF2
:10ACB0000023108819461A46FFF7B2FF0028ECD08F
:10ACC000E9E71B4B1B481C49C01AC008000440F0B0
:10ACD0000300FBF791FC0720FFF7C4FC10BB134BEC
:10ACE000A1881648198001F0A5FE0028D5D0D2E72A
:10ACF0000F4B10481249C01AC008000440F003006E
:10AD0000FBF77AFC094B4FF6FF721A8002B010BDB8
:10AD1000064A0023108885211A46FFF77DFF002888
:10AD2000BBD0B8E7FCF714FAD9E700BFBE2A002071
:10AD3000ACF30200D4F3020070EC02001C390020D6
:10AD40007CEC02000E4B4A881B889A4200D0704768
:10AD50000A8840F677239A42F9D130B4094B0A4861
:10AD60008C880A4D0A49C01A033CC008A4B20004EA
:10AD7000234622462C8040F0030030BCFBF76ABE1D
:10AD8000BE2A0020ACF30200D4F30200BC2A00204B
:10AD90008CEC020008B5037803B108BD054B3B21DC
:10ADA0001888FFF733FF0028F7D0BDE80840FCF70C
:10ADB000CFB900BFBE2A0020072808B51CD00A283A
:10ADC0000ED0042800D008BD154B13211888FFF7BA
:10ADD0001DFF30F00803F6D0BDE80840FCF7B8B915
:10ADE0000020FFF73FFCB8B9FFF7C8FE88B9FFF7AE
:10ADF00019FF0028F0D108BD094B1A884FF6FF73E0
:10AE00009A42E0D1074801F00DF930F00803E3D190
:10AE100008BDFCF79DF9EAE7FCF79AF9E4E700BF03
:10AE2000BE2A0020AC360020F0B50378012B83B099
:10AE300002D006D3022B02D14068FCF789F903B097
:10AE4000F0BD194C194D20782844FCF71BFE2278E0
:10AE50000132D2B21544227015F8013C0A2B05D0FC
:10AE60000D2B03D0124B1B889342E8D8012A12D92C
:10AE7000104F0E4E104DADF806203B880DF1060226
:10AE80003146284601F072FF082804D0132806D066
:10AE9000052800D028B90023237003B0F0BD227824
:10AEA000E9E7FCF755F9F6E7A8360020B4350020AD
:10AEB000BC2A0020BE2A0020C02A00202DE9F04133
:10AEC0000578FDB9838A06464BB3164F164BDFF85B
:10AED0005C80FF1AFF083F0447F001073369585DA3
:10AEE000FCF7FEFD044678B9B38A0135AB42F5D8CC
:10AEF000013B3269D35C0D2B04D10A20FCF7F0FD35
:10AF00001128FAD0BDE8F081112C0246414638469E
:10AF1000E4D0FBF71FFD2046FCF71AF9E4E74FF0F9
:10AF2000FF33E6E7D4F30200ACF30200F4EC0200D6
:10AF3000FCF70EB908B530B1032803D10220FFF7A2
:10AF400091FB50B908BDFFF78DFB50B9FFF716FE16
:10AF500068B9FFF767FE0028F4D0BDE80840FCF7A9
:10AF6000F7B8FCF7F5F8FFF709FE0028F1D0FCF779
:10AF7000EFF8EEE708B50949094801F001FC48B9C6
:10AF8000F721074801F014FC00B908BDBDE80840EE
:10AF9000FCF7DEB8FCF7DCF8F2E700BF45AD0200D5
:10AFA0000439002000B5874D874BB1B005AC019343
:10AFB0000FCD0FC495E803004FF4807384E80300BD
:10AFC0000293824C049301A905A8814A03940723A4
:10AFD000FCF7DEFC002840F0C5804FF40041002063
:10AFE000FBF7AAFA002840F0EA80FBF72BFAFCF7FF
:10AFF0004FFB002840F0E08076490320FFF7CAFCB1
:10B00000002840F0D68005A90020FFF7C9FD0028E0
:10B0100040F0CC80FDF700FB002840F0C48001F038
:10B02000DBFE002840F0BC80002305A90120059329
:10B0300001F0B0FF002840F0B08005A802F088F8C9
:10B04000002840F0A780112363488DF8043002F0F7
:10B0500081F9614982B201A8FFF7DCFD002840F0C8
:10B0600096800822002105A802F04BF95B4B05935E
:10B0700005A84FF0C8730693FFF7CAFD002840F0FB
:10B080008380FFF777FF564B5648059305A901F0DB
:10B09000BFFC002875D1042200210DEB020002F054
:10B0A00030F9514B5148019301A901F0F1FD0028FD
:10B0B00064D1AC22002105A802F023F9022400216A
:10B0C00005224B488DF81440012340258DF81610B9
:10B0D00044F250648DF817201990464A4648ADF85E
:10B0E000603005A98DF89030CDE927542E9200F0FC
:10B0F0006DFD00283FD101213F4800F063FD1C2277
:10B10000002105A802F0FDF800233C4A0593ADF8A4
:10B1100022308DF824303A4B4FF420354FF4702410
:10B12000032105A8CDE906548DF82010CDE90A23A6
:10B1300001F0DAF8E0B9334802F0ECF8324B33486A
:10B140003349C01AC008000440F00300FBF754FA6A
:10B150000321294800F0BAFD38B9FBF7FDFCFDF7E3
:10B1600071FAFAE7FBF7F4FF37E7FBF7F1FFF4E7D3
:10B17000FBF7EEFFDFE7FBF7EBFFBCE7FBF7E8FFD2
:10B1800097E7FBF7E5FF86E7FBF7E2FF79E7FBF7D9
:10B19000DFFF66E7FBF7DCFF55E7FBF7D9FF4CE77E
:10B1A000FBF7D6FF40E7FBF7D3FF38E7FBF7D0FF0D
:10B1B00030E7FBF7CDFF26E7FBF7CAFF1CE7FBF7FD
:10B1C000C7FF12E758EC020028390020283A002077
:10B1D00029AE0200B9AD0200A8EC020010003C004C
:10B1E00029AC02001C390020BDAE0200C02A00209C
:10B1F000B82A002035AF0200AC36002095AD020021
:10B2000031AF0200B4EC0200ACF30200D4F3020050
:10B21000C8EC02002DE9F84F4400DFF85CB12618B5
:10B220000BEBC6068146F76A012F8A46904667D027
:10B230003DD3022F30D100F1010909EB4909756AAC
:10B240004FEAC9090027B36A346AAB4203F1FF32FF
:10B250009CBF1B1903F1FF33A4EB05048CBF531BE8
:10B260005B1B0BEB0902444528BF44469C425068D7
:10B2700028BF1C4628445146224602F037F8336A5C
:10B2800025449D422744A8EB0408A24408D07562D7
:10B29000B8F1000FD7D100E000273846BDE8F88F9D
:10B2A00000231D467362B8F1000FCCD1F5E7B36AF5
:10B2B000756AAB429CBF326A9B18013B5B1B984589
:10B2C000EBD8044400F101090BEBC40409EB490974
:10B2D0000BEBC90B266ADBF80400761BB04528444B
:10B2E00043D33246A8EB060502F000F80AEB06014C
:10B2F000DBF804002A4601F0F9FF47466562CCE717
:10B30000D6E90825B76AAF4298BFBF18461C013F6F
:10B3100006EB46067F1B0BEBC606474528BF474694
:10B320007068A2EB05084745284412D3A144424661
:10B33000A7EB08050BEBC90B01F0D8FF0AEB0801DE
:10B3400070682A4601F0D2FFCBF824503846BDE899
:10B35000F88FA1440BEBC90B3A463D4401F0C6FF00
:10B36000CBF824503846BDE8F88F4246454401F0FA
:10B37000BDFF4746656290E7283E002038B5114C76
:10B38000114B1248E36110254FF40073104A114924
:10B390002362E06400232565E01D0225A362636249
:10B3A000E362A3656365E365A261A264C4E9045531
:10B3B00001F0C8FF2046084901F0C4FF2023A37113
:10B3C00038BD00BF283E0020383B0020283B00202D
:10B3D00020ED02002CED020030ED02006DDF704721
:10B3E00079DF70477DDF704764DF70472DE9F04FEC
:10B3F00083B004880C9EBDF83490B6F800A0002CF1
:10B4000039D09846002317468B4605461C4603E074
:10B410002A880134A24224DD6A6852F8240001908F
:10B4200000220DF1030101A8FFF7DEFF20BB9DF80C
:10B430000320BA42ECD13288B91803B389452BDB1B
:10B4400042440DF1030101A80123FFF7CDFF98B994
:10B4500031889DF803200A4432802A880134A242B0
:10B46000DADC43B13388013BA3EB0A039BB2FF2B29
:10B4700012D808F80A30002003B0BDE8F08F02317E
:10B480000132894592B207DB328008F802B0328877
:10B49000013292B23280D3E70C2003B0BDE8F08FC6
:10B4A0002DE9F04700231788138090F82D3086B0DF
:10B4B000144605460E46002B40F0FB80AA78002A71
:10B4C00040F0FD80EA78A2B1D91CB94200F2F380C5
:10B4D0000221F154238801339BB201212380F154CE
:10B4E00023880B449BB22380F25423880B449BB2E5
:10B4F00023806A68AAB1D91CB94200F2DC8002211B
:10B5000092F90020F154238801339BB20A21238051
:10B51000F154238801339BB22380F25423880133F2
:10B5200023802B89002B40F01B812B8A002B40F0BD
:10B530002F812B8B002B40F043812B6A002B44D0B2
:10B540002288911DB94200F2B6801988052940F27F
:10B5500003816FF4486801EB080080B24FF27D3C34
:10B56000604540F2F9805888052840F2F5806FF474
:10B57000486E86441FFA8EFEE64540F2ED804FF697
:10B58000FF7C614504D0604502D0814200F2E48036
:10B590000521B1542288013292B212212280B15485
:10B5A0002288013292B222801988B1543244090AA9
:10B5B00051702288023292B222805B88B3543244A6
:10B5C0001B0A53702388023323806B6A002B2FD011
:10B5D0009988B4F800C0881C0CF102020244BA42F7
:10B5E00069D8FE2867D8033106F80C10228801328A
:10B5F00092B2FF212280B1542288013292B222807D
:10B600001988B1543244090A51702088023080B23E
:10B6100020809A8862B199680393002900F09C8089
:10B62000304401F063FE039B9A88238813442380EF
:10B6300095F82C30002B40F08A80287800283BD0E9
:10B640002B88012B00F08880228802F1020CBC4577
:10B6500031D8012804D16B78023313449F422AD396
:10B66000BB1E9B1A06A99BB221F8083D06EB0C00F5
:10B67000FFF7B8FE00BB2978BDF81020022900F0C2
:10B68000048168789042C0F0FB809342C0F0F8805B
:10B690000921FE2A0FD82388501CF0542388013337
:10B6A0009BB22380F154238801331A442280002066
:10B6B00002E0082F23D80C2006B0BDE8F087043341
:10B6C000BB42F8D804A8FFF78BFE0028F4D12388EA
:10B6D000BDF810200321F154238801339BB21921B6
:10B6E0002380F154238801339BB2F1182380F25454
:10B6F000120A4A70238802339BB22380E2E604A830
:10B70000FFF76CFE0028D7D113880822CA5423887B
:10B7100001339BB21B222380CA542088013080B29F
:10B720002080062208440DF1110101F0DFFD23887D
:10B730009DF8102006339BB212F0FE0218BF0122C2
:10B740002380F254238801339BB22380B6E6D5F8D8
:10B750002880B8F1000F4CD1072006B0BDE8F08773
:10B7600005F108080222CDE900474046114633465C
:10B77000FFF73CFE00289FD1CDE900474046334605
:10B7800010220621FFF732FE00283FF4CEAE93E7E9
:10B7900005F11008CDE90047404633460222032157
:10B7A000FFF724FE002887D1CDE900474046334605
:10B7B00010220721FFF71AFE00283FF4BAAE7BE7FC
:10B7C00005F11808CDE9004740463346022214210E
:10B7D000FFF70CFE00287FF46FAFCDE9004740462D
:10B7E000334610221521FFF701FE00283FF4A5AED5
:10B7F00062E7B8F804200232FE2A3FF65CAF2388E5
:10B800004FF000094FF0160A0132F2542388013339
:10B810009BB2238006F803A0238801339BB22380C8
:10B82000B8F80020F2543344120A5A7023880233C5
:10B830009BB22380B8F80410F0180A4661B1D8F81A
:10B8400008301946002B87D001F050FDB8F80420CD
:10B85000238813449BB2238009F1010995F82C2019
:10B860005FFA89F94A4509EB49087FF6E6AEAA6A0C
:10B8700002EB8808B8F804200232FE2AC4D91AE77D
:10B88000012906D01A46082103E79342BFF400AF0E
:10B89000F8E78342F6D302460821FAE6F8B130B45D
:10B8A000437893421CD0B9B10024234601E0994269
:10B8B00012D9045D013423449BB2C5181C466D782F
:10B8C0009542F4D1994207D9025D0233012A9BB215
:10B8D00002D0184430BC7047002030BC704770471D
:10B8E00000242346EEE700BF72DF704773DF704726
:10B8F00074DF704770B5044600F24A2681700D4629
:10B9000030460722002101F0FCFCE38813B1A37844
:10B91000012B6AD0E379002B64D194F84B32002BD1
:10B9200074D194F84C32002B70D194F84D32002B26
:10B930006CD194F84E32002B68D194F84F32002B22
:10B9400064D194F850321A1C18BF01226B1E032BCD
:10B9500000F23681DFE803F002530A0DA379002BD1
:10B960004DD094F82430002B49D12AB9237A002BEA
:10B9700064D1657A002D4DD1A570002384F853322F
:10B9800004F13C0518220021284601F0BAFCE26AC5
:10B990000123511E994284F83C3012D994F8242096
:10B9A00084F8513092B184F85230A378002284F8A0
:10B9B0005020042B00F2F380DFE803F067426BAA0B
:10B9C0007B0094F8243084F851200BBBA37800222C
:10B9D00084F85020042B00F2E280DFE803F05631B7
:10B9E000D1C5CB00A378022B97D1636B002B00F05D
:10B9F000E480012284F85122082098478DE7E379FA
:10BA0000002BB3D0002AB1D00225B5E701229DE773
:10BA1000A36AC8E70422636BA270002BADD06279E1
:10BA2000002AAAD094F85222002AA6D1012184F833
:10BA3000542284F8531207209847A1E70322EAE72B
:10BA40000023012002218022266484F83100C4F8FA
:10BA50004432636484F83C10A4F8482000212A464C
:10BA600004F15400FFF740FF00B170BD94F83010AE
:10BA700094F85400FFF73AFF0028F6D1636B13B136
:10BA800094F831009847002070BD002384F83130CD
:10BA9000F4E7022384F831300723D4E9032184F842
:10BAA0003C3000232664A4F84810C4F84432626491
:10BAB000D4E7D4E9072162640622A4F8481084F888
:10BAC0003C206279002A60D094F85222002A5CD18E
:10BAD00094F85422002A58D0022384F850300122CE
