:020000022000DC
:1060000000000120B5620200DD620200DF620200D2
:10601000E1620200E3620200E562020000000000AB
:10602000000000000000000000000000E762020025
:10603000E962020000000000EB620200ED62020073
:106040000D8F0200EF620200ED970200EF62020086
:10605000EF620200EF620200A5920200399902008D
:10606000EF620200EF620200EF620200EF620200E4
:10607000EF620200EF620200EF620200EF620200D4
:10608000EF6202005D720200EF620200EF62020046
:10609000FD720200EF620200BDD70200EF62020053
:1060A000EF620200EF620200F99E0200EF6202005E
:1060B000EF620200EF62020000000000000000003A
:1060C000EF620200EF620200EF620200EF62020084
:1060D000EF620200EF620200EF62020000000000C7
:1060E00000000000000000000000000000000000B0
:1060F00000000000000000000000000000000000A0
:10610000000000000000000000000000000000008F
:10611000000000000000000000000000000000007F
:10612000000000000000000000000000000000006F
:10613000000000000000000000000000000000005F
:10614000000000000000000000000000000000004F
:10615000000000000000000000000000000000003F
:10616000000000000000000000000000000000002F
:10617000000000000000000000000000000000001F
:10618000000000000000000000000000000000000F
:1061900000000000000000000000000000000000FF
:1061A00000000000000000000000000000000000EF
:1061B00000000000000000000000000000000000DF
:1061C00000000000000000000000000000000000CF
:1061D00000000000000000000000000000000000BF
:1061E00000000000000000000000000000000000AF
:1061F000000000000000000000000000000000009F
:1062000010B5054C237833B9044B13B10448AFF3F0
:1062100000800123237010BDC02C0020000000006E
:1062200020FC020008B5034B1BB103490348AFF340
:10623000008008BD00000000C42C002020FC0200EB
:10624000154B002B08BF134B9D46A3F5803A002148
:106250008B460F461348144A121A07F0B4FC0F4B32
:10626000002B00D098470E4B002B00D09847002001
:10627000002104000D000D48002802D00C48AFF3A7
:10628000008007F051FC2000290005F0E7FA07F034
:1062900037FC00BF000008000000012000000000E3
:1062A00000000000C02C0020003F00200000000083
:1062B000000000000649074A074B9B1A03DD043B18
:1062C000C858D050FBDC02F057FAFFF7B9FF0000C6
:1062D00038FD0200982A0020C02C0020FEE7FEE7CF
:1062E000FEE7FEE7FEE7FEE7FEE7FEE7FEE7FEE786
:1062F000704700BF00B583B0044B0093044A4023AD
:1063000000F036F803B05DF804FB00BF156302002F
:10631000E02C002002B32DE9F843114B114E8846C2
:10632000144643F0010903270025224608EB050126
:10633000002005F0D1FB03461D444FF47A40E41AD7
:1063400023B9337833B1C847013F06D001233370F6
:10635000002CEAD1BDE8F88370473770BDE8F883B8
:10636000F0ED0200DC2C0020704700BF05F068BC97
:10637000F0B595B0002415460F4608461E4602F0BB
:10638000BBF8384623460895082205A91A9D0996A8
:106390000D950A948DF82C400C9402F007F99DF8A5
:1063A00014308DF81140DDE9061003F00302012AD4
:1063B000CDE9020127D0022A04D0384602F0A0F825
:1063C00015B0F0BDBDF81650C3F3C2038DF8103000
:1063D000AD090826082D2C4628BF0824334622463E
:1063E0000EA9384602F0E2F82D1B214608AB02AA9E
:1063F0000EA8264400F0ACFC002DEBD1384602F08C
:106400007FF815B0F0BDBDF81460059DC6F3831686
:10641000C3F3C204B2000EA9384608238DF8104019
:10642000C5F3952502F0C2F808AB324628460EA9FE
:10643000009302AB00F0E6FB384602F061F815B0BD
:10644000F0BD00BF08B5FFF791FF0421034800F03D
:106450008FFB034B01225A7108BD00BF20FD0200D3
:10646000982A0020F0B5324C85B004F5836001F025
:1064700007FC04F2144001F003FCD4E9013703EAFD
:106480000702D01C04EB800114F8200010F0040077
:1064900044D003F1020C0E7806F00306012E654687
:1064A00035D0022E02F1030621D004EB860100282C
:1064B000F1D104EB82020133D26801923B4004EB3C
:1064C000830302F00302012ADE6829D0022A23D1C5
:1064D000BDF806309B090333360C05EB93051548D0
:1064E00001F0DAFB00B16560304605B0F0BD4B88C5
:1064F0000CEB931307EA0302D11C03F1020C14F80E
:106500002100654604EB810100F00400CFE70B8811
:10651000C3F383136344EDE70026E0E79D1CC8E75F
:10652000BDF80430C3F38313360C1D44D7E700BF16
:10653000F02D0020043200200B4B0C4810B5002237
:10654000FF21C3F818249960C3E90022C3F814247A
:1065500083F8202401F08CFF044610B9044802F0AF
:1065600099F8204610BD00BFF02D00208CFC0200E1
:1065700014EE020021B9124B03EBC0000068704713
:10658000104A0F49521AD20815D030B40E4D2B883C
:10659000834212D0002303E035F82340844205D023
:1065A00001339A42F8D1002030BC704701EBC300A0
:1065B000006830BC7047104670470846F8E700BFD7
:1065C000A0FC020020FD0200BC2C0020094B013978
:1065D00003EBC00003290BD8DFE801F00208060432
:1065E0000220704740797047007970470420704757
:1065F00000207047A0FC02002DE9F04383B002ABFD
:10660000002203F8012DDFF8DC9007461846884683
:10661000D9F8084001F09EFAD9E90132D9F80060B2
:10662000134401339B1B012B58D809F21C4501214F
:10663000284601F00DFBFFF715FF0146284601F043
:1066400007FBD9E90132D9F80010134401335B1A72
:10665000012BECD90A400332052302319DF80700D3
:1066600049F82230C9F8001001F09AFA00211C48BC
:1066700001F0CCFA80F31000731C234009EB830374
:1066800000043440033440EA1740D86019F824303D
:1066900067F3C50309F8243039F824306FF3891300
:1066A00029F8243059F8242068F39F221346012149
:1066B00061F301036FF3820349F8242009F82430C1
:1066C00099F820341BB906E000F00EF818B1D9E9AA
:1066D00000329A42F8D103B0BDE8F0833146B9E701
:1066E0000C320020F02D00202DE9F047934C0023C0
:1066F00084B0C4F81834BFF34F8FD4E9015605EACB
:106700000602D31C04EB830114F82330580719D573
:1067100027680B7803F00303012B43D0022B03D12E
:106720004B88023505EB931506EA0502D4F81804E8
:10673000D31C04EB830128B9AF4239D914F82330B4
:106740005B07E6D404EB82026B1CD26801923340F3
:1067500004EB830302F00302DB680293022A05F1D3
:10676000020700F08D80012A26D0D4F810543DB1E4
:106770002B6828469B689847EB681D68002DF7D169
:106780006F48704B7049C01AC008000440F0020006
:10679000FFF732FFD4E90030C01A18BF012004B05F
:1067A000BDE8F0870B880235C3F383131D44BBE7B4
:1067B000676004B0BDE8F087BDF804206348C2F309
:1067C0008313062B28BF062363F389120233990033
:1067D000ADF8042001F04EFE80460028C5D001F03F
:1067E0008BFE0023082201A9404601F0ABFEBDF854
:1067F000043013F4707F00F09F806FF0010AAAEB61
:10680000050A082506EA070103312B46042204EB9A
:106810008101404601F096FEBDF8043007F1010900
:106820000AEB0902C3F3831393424F4605F10405B3
:10683000E8D8D4F81834002B68D1D4F8105465B1D6
:10684000EB685A7928464146002A5BD02B681B68C2
:106850009847EB681D68002DF2D1404601F050FECC
:1068600004A8002300F80D3D01F074F9D4F81834A1
:106870000BB9C4F804909DF8030001F091F989E781
:10688000BDF8063031484FEA93194D46502D28BFC8
:10689000502565F38F1305F10801ADF8063001F0BE
:1068A000E9FD804600283FF460AF26EA070A0AF1B6
:1068B000010A01F021FE4FEA8A0A0023082201A9F9
:1068C000404601F03FFE55452BD9EBB2BAF1000F1F
:1068D00020D006EA0701A3EB0A03033104EB810190
:1068E000DDB252460823404601F02CFE2A460AF14A
:1068F00008031749404601F025FE09F1030907EB9B
:10690000990996E71D68002D9AD1A6E7404601F047
:10691000F7FD3FE72A4608230D49404601F012FEE5
:10692000EBE706EA0701033104EB81012A4608235D
:10693000404601F007FEE0E7B9467AE7F02D002077
:10694000E0FC0200A0FC020020EE02008CFC020031
:10695000FC2D00202DE9F04782B002AB002403F8A3
:10696000014DDFF8ECA00746184691468846DAF854
:10697000084001F0EFF8DAE90132DAF80060134478
:1069800001339B1B022B5ED80AF21C4501212846CD
:1069900001F05EF9FFF766FD0146284601F058F95F
:1069A000DAE90132DAF80010134401335B1A022BE2
:1069B000ECD90A400332033145239DF807004AF819
:1069C0002230CAF8001001F0EBF8B31C23400AEBA8
:1069D000830300211D48C3F80C9001F017F980F3E0
:1069E0001000731C23400AEB83030004344003347B
:1069F00040EA1740D8601AF8243067F3C5030AF854
:106A000024303AF82430012161F389132AF8243024
:106A10005AF8242068F39F22134661F301036FF3B1
:106A200082034AF824200AF824309AF820341BB94B
:106A300006E0FFF759FE18B1DAE900329A42F8D1C0
:106A400002B0BDE8F0873146B3E700BF0C3200204A
:106A5000F02D00202DE9F04F83B002AD002405F8A1
:106A6000014D3B4C8046284693469A468946A56888
:106A700001F070F8D4E90132276813440133DB1BBD
:106A8000032B63D804F21C460121304601F0E0F8E4
:106A9000FFF7E8FC0146304601F0DAF8D4E90132AC
:106AA0002168134401335B1A032BEDD90A400332EA
:106AB000852344F8223004319DF80700216001F05D
:106AC0006FF8BA1CFB1C2A402B4004EB820204EB3B
:106AD000830300211F48C2F80CB0C3F80CA001F0DA
:106AE00095F880F310007B1C2B4004EB830300041B
:106AF0003D40033540EA1840D86014F8253068F36B
:106B0000C50304F8253034F82530022262F38913D6
:106B100024F8253054F8252069F39F2213460121DB
:106B200061F301036FF3820344F8252004F8253054
:106B300094F820341BB906E0FFF7D6FD18B1D4E96C
:106B400000329A42F8D103B0BDE8F08F3946ADE784
:106B5000F02D00200C320020044BD3E900239A4290
:106B600001D0FFF7C1BD0020704700BFF02D00200D
:106B700030B4184DD5F8104400215CB1E3681A799F
:106B80008A4204D116E0DB681A798A4212D01B6867
:106B9000002BF8D1C3681971D5F8103493B1DA68B5
:106BA000C36812681A60D5F81034DB68186030BC0E
:106BB0000846704701310A29DFD14FF0FF310846FE
:106BC00030BC7047C5F81004C2681360084630BC7A
:106BD000704700BFF02D002038B5094BD3F81044A2
:106BE000012583F820544CB1E3685D712368204689
:106BF0005B689847E3681C68002CF5D138BD00BF7E
:106C0000F02D00202DE9F04784B01D460C9C002398
:106C100094F80C802373EB8881460E461746002BB0
:106C200040D1297A05290ED06B7AA88873BB404BD6
:106C300053F821A00021FFF79DFC524603463D4931
:106C4000204601F0A1F8062F09D8DFE807F0046A12
:106C50004249525D33004946204601F095F82B7AAF
:106C6000052B05D06B7A5BB93349204601F08CF8CF
:106C7000204601F07DF884F80C8004B0BDE8F08770
:106C80002E4A2F49204601F07FF8EDE7FFF79EFCE2
:106C90002C4B2B4953F82020204601F075F8297A17
:106CA000A888C4E7254A00922749284A204601F0CF
:106CB0006BF8B6E7D6E90410D6E900230390D6E9CD
:106CC00002070291CDE900074946204601F05CF831
:106CD000C5E74946D6E90023204601F055F8BEE74E
:106CE000B168D6E9002320460091494601F04CF8EE
:106CF000B5E7D6E90201D6E90023019100904946A3
:106D0000204601F041F8AAE7D6E90371B068D6E958
:106D100000230291CDE900074946204601F034F8EE
:106D20009DE732684946204601F02EF897E700BFFC
:106D3000ACEE02009CEE0200A8EE020090EE020013
:106D400098EE020038EE020078EE020070EE0200CB
:106D5000082900D970472DE9F04F1D4690460023C1
:106D60002A7B2B7385B0B8F80630039207460E468F
:106D7000002B78D198F80810052911D098F809301F
:106D8000B8F80400002B60D13B4B53F821400021A0
:106D9000FFF7F0FB224603463849284600F0F4FF8F
:106DA000DFF8F8B0DFF8F890002405E03A5D013430
:106DB00000F0EAFF082C09D0A64249462846F5D83B
:106DC0005946013400F0E0FF082CF5D12C49DFF8DA
:106DD000D490DFF8D4B0284600F0D6FF002411E0AC
:106DE00017F804A006F0C4FE50445946437813F047
:106DF000970F14BF52462E222846013400F0C4FFDC
:106E0000082C08D0A64249462846E9D8013400F0AB
:106E1000BBFF082CF6D198F80830052B02D098F863
:106E2000093063B91749284600F0AEFF284600F044
:106E30009FFF9DF80C302B7305B0BDE8F08F124A10
:106E40001249284600F0A0FFECE7FFF7BFFB104B0C
:106E50000E4953F82020284600F096FF98F80810B5
:106E6000B8F8040090E7084A00920A490A4A2846FE
:106E700000F08AFF7EE700BFACEE02009CEE02004D
:106E800068EE0200A8EE020090EE020098EE02000A
:106E900038EE020078EE020070EE020064EE0200AE
:106EA0005CEE0200A4EE02006CEE0200434B197887
:106EB000002900F081802DE9F04F002487B00125E2
:106EC0008E4603E00134E4B2744560D23C4B27B2F5
:106ED0001E6816F837C0ACF1200205FA02F9394AEB
:106EE000CCF12003D2E9000125FA03F349EA0309B2
:106EF00005FA0CF800EA080201EA0903134306EB5D
:106F0000C70BDFD021EA09032E4920EA08026046B8
:106F1000C1E9002302F0BCF916F837C0ACF1200239
:106F200005FA02F201920199CCF12003C6B225FACA
:106F300003F3ACF12002194306FA02F30393224B48
:106F40000191D3E90023CDE9042305FA0CF3009362
:106F5000CCF12001039B26FA01F10B43039306FABF
:106F60000CF30293DDE90467DDE9002316401F40BE
:106F700032463B46DDE90267BB4208BFB24209D058
:106F80000E4B013493F800E0E4B274459ED307B091
:106F9000BDE8F08F9BF80110DBF80430A1F101018E
:106FA000B1FA81F14909091AB1FA81F14909002BB5
:106FB000E6D060469847E3E7704700BFAC32002058
:106FC000E8320020E0320020D83200202DE9F84FCE
:106FD0000646244800F018FCD8B9234F0123A6F137
:106FE000200103FA01FBC6F12002D7E9000123FAD0
:106FF00002F24BEA020B03FA06FA00EA0A0201EA7D
:107000000B03134307D020EA0A0421EA0B05C7E962
:107010000045BDE8F88F304602F03AF9134ED6E944
:107020000089C8B148EA0A0349EA0B049846A14618
:10703000D7E900234BEA03050D4B0A4819684AEAD1
:1070400002044B464246C6E90023C7E90045002238
:10705000BDE8F84F00F082BB28EA0A0829EA0B09CC
:10706000E6E700BFB4320020E0320020D832002032
:10707000B0320020042A36D92DE9F04182B00E4604
:107080000546144601F0BAFF002836D01D491E4AB5
:107090001E4B0D601E481F491C6016700023002205
:1070A000741EC0E90023C1E90023E4B2EEB105EB90
:1070B000C404194F083D4FF00008032601E0AC421C
:1070C00013D0A37820788DF806803A4601A98DF870
:1070D00004608DF8053001F09BFF083C0028EED0DD
:1070E00002B0BDE8F081072070470C4A0C4800212F
:1070F00000F022FB02B0BDE8F08101F039FF00286A
:10710000C4D0EDE7E8320020AC320020B0320020DD
:10711000D8320020E0320020CD6F0200AD6E0200B8
:1071200018EF020070B5084D2B785BB1074E0024B4
:107130003368012113F8340002F048F82B78013449
:10714000A342F5D8002070BDAC320020E832002008
:1071500000B585B000230390194601AA44F201004E
:10716000CDE9013300F004F805B05DF804FB00BF81
:1071700010B572B6FFF730FDFFF7EEFC0028FBD12B
:10718000104B114C1149E41AE408240444F00100A6
:10719000FFF732FA0E4B1B68DB0700D500BE44F048
:1071A00002000C49FFF728FABFF34F8F0A490B4B37
:1071B000CA6802F4E0621343CB60BFF34F8F00BF95
:1071C000FDE700BFA0FC0200E0FC02001CEF020093
:1071D000F0ED00E028EF020000ED00E00400FA0509
:1071E00059B142B1531E1A4005D1826001608380BB
:1071F000C26010467047092070470E20704700BFDC
:1072000010B403468468C0689A88001B82420AD37F
:10721000D8681C6802400020A154DA680132DA60A4
:107220005DF8044B704704205DF8044B704700BFC5
:1072300003468068DA6890420DD010B498689A8846
:107240001C6802400020A25C0A709A6801329A60B1
:107250005DF8044B70470520704700BFF8B5204A21
:10726000204B0024C2F84041C2F84441C2F84841D2
:10727000C2F84C41C2F80041C2F804411B6833B364
:107280001949D2F804550A68AD1A1A6825F07F45E5
:10729000AA4227460DD8197CDE69AD1A144419B1EB
:1072A0001F74D3E9052090471EB133461A68AA42DD
:1072B000F1D90E490E4A0B7812789A4208D00D493E
:1072C0000D4A41F823404FF48013C2F80031F8BD55
:1072D000531CDBB2022B08BF00230B70EFE700BF8B
:1072E000001001400C340020083400200534002038
:1072F00004340020FC33002000E100E02DE9F04FD1
:107300008C4A8D4913780978DFF85082994285B00C
:10731000D8F800A000F07B810133DBB2022B08BF5C
:10732000002386481370864A076852F823107B189A
:1073300023F07F4300240360534626462046A4469C
:10734000ABB11A688A4200F26581DC68C3F800C0FC
:10735000891A1044DA6934B13D1825F07F45C3E934
:107360000154DE611E4613460124002BE9D1002C96
:1073700040F07C8101230093724B734FDFF8E09162
:1073800043F00103019355464FF0000B46B3D6E995
:1073900001C13446F669694B6C481A68ACEB0203CC
:1073A00023F07F43834248D80B442360002201210D
:1073B000C4E90122E2612174002D5DD02A689A425D
:1073C0004DD2284603E00A689A424FD20846C16966
:1073D0009B1A0029F7D12360E161C461002ED6D148
:1073E00078783978884264D00B4603EB43034C1C11
:1073F000BA7807EBC303E1B28A421A79397004BF45
:1074000000213970022A9C6844D0032A38D0012A0E
:10741000E8D1227C002AE5D1D3F80CC0C4F804C01E
:107420001969A1605869E06099F800009B69A3613F
:107430000028B0D062609446ADE7A2EB0C0222F0C7
:107440007F428A4202D28B1A2360AFE700230122D7
:10745000C4E90033A360E36122746DB12A68C8F8FF
:107460000040D31A2B60E56125468FE7D21A0A60E7
:107470002360E161C461B1E7C8F80040254685E7B3
:10748000002DAFD000232B74ED69002DFBD1C8F87F
:107490000050A5E74DB1AC422B4603D1E4E0944245
:1074A0002FD01346DA69002AF9D1002323748842C9
:1074B0009AD1BBF1000F01D1554553D0002D56D1C3
:1074C000234E244A1F4C4FF480334FF400310127E0
:1074D000C2F880103C43C6F848334FF43C60C6F80D
:1074E00008337760A047154BB7604FF43C601D60D0
:1074F000A047194B1D70002389F8003005B0BDE886
:10750000F08FA34200F09180E0692168D8610028E3
:1075100000F086802A4603680B440360AA424FF0BD
:1075200000033978787823741CBF15464FF0010B9F
:10753000BDE700BF043400200534002008340020DB
:10754000FC33002040EF0200EC320020FEFF7F0001
:107550000010014000E100E0F93300200C3400206D
:10756000F8330020009B002BC5D0002DA8D0434B42
:10757000434A1C68D2F80465424FD5F800A0397818
:10758000331B23F07F43DD1CB9B93F493F4B4FF418
:107590008030C2F844034FF00108C2F804034FF4EE
:1075A0000030C1F8800143F001030860C2F8008098
:1075B0004FF43C60984787F80080AA452CBF04EB45
:1075C0000A0363192E4923F07F43C1F84035D1F8EF
:1075D0000425921B9B1B22F07F4223F07F43033242
:1075E0009A4288D9294BD1F80425C1F8402543F0A7
:1075F00001034FF43C609847234B4FF40032C3F82B
:107600000021002389F8003005B0BDE8F08F002686
:107610000096B1E674BB521A1A6001230093ABE6E0
:10762000002339787878237441E71946EA69C8F865
:10763000002092B9CDE90231114BDFF840C00120A2
:107640009860019B89F80000CCF800204FF43C6062
:107650009847DDE90231D8F80020C8690968D86187
:1076600000287FF458AF59E72946DFE7C8F8003013
:107670009A467FE6C8F800309A46CCE708340020E6
:1076800000100140F933002000E100E040EF02006B
:107690002DE9F8431F4D204E204FDFF898804FF41E
:1076A00080334FF400324FF001090024C6F88020E7
:1076B00047EA0907C5F848334FF43C60C5F808337A
:1076C000C5F80490B847C5F808904FF43C60C8F876
:1076D0000040B847124A134B13491C601470134BF7
:1076E000134A0C700B2114701C8099704FF4801297
:1076F000C023C6F8802186F814333260C5F80845E7
:1077000086F81133D5F80435C8F800302046BDE8B6
:10771000F88300BF0010014000E100E040EF0200EC
:10772000F93300200C34002004340020EC32002017
:107730000534002008340020074B9B784BB132B150
:1077400028B10368187C20B959745A617047072022
:1077500070470820704700BFEC3200202DE9F04749
:10776000264CA37882B0002B3CD000283AD00429C4
:107770003CD94369002B35D0814602A899F81130D5
:107780000026012B00F8016D0CBF8846B046174655
:107790008A4600F0DFF96378A17822789DF8070027
:1077A0005D1CEDB2A94208BF3546AA4222D003EBC8
:1077B000430304EBC3030121114AC3F80890197174
:1077C000D2F804256570C3E9032AC3E9058700F0F0
:1077D000E7F90C4B4FF480123046C3F8002102B099
:1077E000BDE8F087082002B0BDE8F087072002B0AE
:1077F000BDE8F08700F0D4F90420F0E7EC32002077
:107800000010014000E100E0F0B51A4CA37883B00D
:1078100043B338B343692BB3064602A8002500F8EA
:10782000015D357400F096F96278A77821789DF8AB
:107830000700531CDBB29F4208BF2B46994214D06D
:1078400002EB420204EBC2020221966011716370E6
:1078500000F0A6F9084B4FF480122846C3F8002127
:1078600003B0F0BD082003B0F0BD00F099F904208A
:10787000F9E700BFEC32002000E100E030B5047809
:10788000012C83B027D017D3022C13D1384B394D9C
:107890001A78C168AA5C01918DF80040002A33D1A2
:1078A00003F10C000122344902F074FD334B6846A9
:1078B0001B68984703B030BD31493248FFF7B8FC28
:1078C000002844D002A8032300F8083D2B4B1B6876
:1078D000984703B030BD43682B4D19782846FFF711
:1078E0008FFC40B3254B01908DF800401B68684623
:1078F0009847A968EB68AA885B1A9A420AD2234B78
:1079000001221A7003B030BD181D01221A4902F07D
:10791000BBFFCBE71648174A0378D35C2BB901228B
:1079200015490C3002F036FDC4E70122124904303B
:1079300002F0AAFFBEE7AA68EB689A42D9D002AB70
:107940000E4A03F8080D126818469047D1E7084818
:10795000084A0378D35C2BB9012209490C3002F0A4
:10796000A7FCA7E701220649043002F02FFFA1E798
:10797000A02A0020803E002038340020103400204F
:107980003C3400202834002014340020243400200B
:107990002DE9F045324C89B02260002955D00C46C3
:1079A00080468A882F4809689A46FFF719FC10B16B
:1079B00009B0BDE8F085A289A1682B48FFF710FC4B
:1079C0000028F5D1294D98F810C0D8F81470284E29
:1079D0000FCD6C460FC495E80F0098F811501CF1BC
:1079E000000C18BF4FF0010C002D84E80F00D8F8F0
:1079F0000850D8F80040D8F80430069714BF0E227B
:107A00000022D8F80C708DF8152069463046194AC6
:107A10008DF81CA08DF814C0CDE90275CDE90034B5
:107A200001F006FA0028C3D1D8F80030124A013319
:107A30001070BDD0114A3378D35C53B906F10C00F5
:107A400001220F4902F0A6FCB2E7072009B0BDE809
:107A5000F085301D01220A4902F016FFA8E700BF99
:107A600010340020143400202834002048EF020095
:107A7000A02A00207D78020024340020803E0020CF
:107A80003834002070B5114C014611482678FFF7B4
:107A9000CFFB05460EB9284670BD0E480E4A037846
:107AA000D35C0022227053B90C3001220B4902F042
:107AB00071FC0028EFD0FFF74BFB284670BD012278
:107AC0000649043002F0E0FEF3E700BF2434002052
:107AD00014340020A02A0020803E002038340020EA
:107AE00070B501461548FFF78BFB044608B12046E8
:107AF00070BD134D134E2B78F35CABB905F10C0040
:107B000002F03CFC0028F2D10F490C48FFF790FB33
:107B10000028ECD12B780C49F35C012243B90B48C7
:107B2000BDE8704002F0C4BB281D02F09FFEE9E7EB
:107B30000748BDE8704002F049BE00BF283400206D
:107B4000A02A0020803E00203C340020AC2A0020E7
:107B5000A42A002070B4EFF3108472B60D4B9A681B
:107B6000AAB90D490D4E01259D60D1F880503540D0
:107B70001D60C1F88060D1F884505D604FF0FF3324
:107B8000C1F88430027004B962B670BC704701233A
:107B90000370F8E7743E002000E100E0FC06FFBD42
:107BA000094B9A687AB170B910B4EFF3108272B6CB
:107BB00006491C680C605C684C60986002B962B64B
:107BC0005DF8044B70477047743E002000E100E010
:107BD00001F01F024B09012100EB8300914000F0EE
:107BE0001FB800BF01F01F0201234909934000EBB9
:107BF0008100D94300F020B84B0901F01F0150F873
:107C00002300C84000F00100704700BF50E8002F7B
:107C10000B4640E8003C9CF0000FF7D1104670473F
:107C200050E8003F43EA010240E8002C9CF0000FBE
:107C3000F6D11046704700BF50E8003F03EA01024A
:107C400040E8002C9CF0000FF6D11046704700BFB2
:107C500050E8003F03EB010240E8002C9CF0000FCD
:107C6000F6D11046704700BF50E8003FA3EB010279
:107C700040E8002C9CF0000FF6D11046704700BF82
:107C8000012350E8002F42EA030C40E800C191F0C4
:107C9000000FF6D160467047002350E800CF0CEA91
:107CA000030240E8002191F0000FF6D160467047D2
:107CB000B8B130B4D0E90112521A0468D2B2531EDE
:107CC0002160DBB242B101680A685C1E551C0D6080
:107CD0001370E3B2FF2BF6D103680020187130BC9B
:107CE00070470E20704700BFF0B583B002AB00258F
:107CF00003F8015D04461846FFF72CFFD4E9003174
:107D00001A688A4210D9511E19602168A3680F6849
:107D100012F8015C0A79268AE068DB1BDBB29A4222
:107D200006FB050538BF0B719DF80700FFF738FF0C
:107D3000284603B0F0BD00BF30B583B002AB0022CF
:107D400003F8012D054618460C46FFF703FF2A6885
:107D50001368591C1160E9682A8A641AB4FBF2F4AA
:107D60001C709DF80700FFF71BFF03B030BD00BF7C
:107D7000826842B110B504464369016800699847BA
:107D80000023A36010BD70470EB400B582B0039904
:107D900029B102AA04AB42F8043D00F08BF802B00E
:107DA0005DF804EB03B070472DE9F84F8846904525
:107DB000174605461E46DDE90AB175D343464FF026
:107DC0000109B3FBF7F39F4209F10109F9D9B14564
:107DD00038BFB14611F0010AAA6802D1BBF1000F09
:107DE00043D1012402E0013E07FB04F4012EFAD83E
:107DF000B8FBF4F18F42F7D92D4E05E0B4FBF7F450
:107E0000A4B1B8FBF4F1AA68705C531CAB602B689A
:107E10009854D5E901329A4204FB1188EED32846E2
:107E2000FFF7A6FFB4FBF7F4002CEAD1BAF1000F7C
:107E300015D0BBF1000F12D0CB4510D92024AB6870
:107E40002A68591CA960D454D5E901329A420BF131
:107E5000FF3B06D2BBF1000F01D0CB45EFD1BDE80F
:107E6000F88F2846FFF784FFF4E78B0717D4202408
:107E7000CB45B6D92B68511CA9609C54D5E9013279
:107E80009A420BF1FF3B05D2BBF1000FA9D0CB45C5
:107E9000F0D1A6E72846FFF76BFFAA68F4E7002EAB
:107EA0000CBF30242024E3E74FF001098FE700BF27
:107EB00068EF0200002900F0F4812DE9F04F05463B
:107EC00085B092460C460B78DFF8A0B501E0237828
:107ED00093B1013483B1252B15D0AA682968501CB1
:107EE000A8608B54D5E901329A42F0D32846FFF7B7
:107EF0003FFF2378002BECD12B7B002B40F014812B
:107F000005B0BDE8F08F2146002711F8012B2D2A7E
:107F100000F0E180302A00F0E2802B2A00F0D280CD
:107F20002A2A00F0E080A2F13006F3B2092B03D92F
:107F3000B8E1A3F130060146084606EB860310F8C7
:107F4000012BA2F13004092C02EB4303F1D92E2AB4
:107F500000F0D5800023013101E011F8012B02F07F
:107F6000FB0068280C46F8D0253A532AAFD801A167
:107F700051F822F035810200CF7E0200CF7E020050
:107F8000CF7E0200CF7E0200CF7E0200CF7E0200B5
:107F9000CF7E0200CF7E0200CF7E0200CF7E0200A5
:107FA000CF7E0200CF7E0200CF7E0200CF7E020095
:107FB000CF7E0200CF7E0200CF7E0200CF7E020085
:107FC000CF7E0200CF7E0200CF7E0200CF7E020075
:107FD000CF7E0200CF7E0200CF7E0200CF7E020065
:107FE000CF7E0200CF7E0200CF7E0200CF7E020055
:107FF000CF7E0200CF7E0200CF7E0200CF7E020045
:10800000CF7E0200CF7E0200CF7E0200CF7E020034
:10801000CF7E0200CF7E0200CF7E0200CF7E020024
:10802000CF7E0200CF7E0200CF7E0200CF7E020014
:10803000CF7E0200CF7E0200CF7E0200CF7E020004
:108040004F810200CF7E0200CF7E0200CF7E020071
:10805000CF7E0200CF7E0200CF7E0200CF7E0200E4
:10806000CF7E0200CF7E0200CF7E02006981020037
:108070008B810200CF7E0200CF7E0200CF7E020005
:10808000CF7E02008B810200CF7E0200CF7E0200F5
:10809000CF7E0200CF7E0200CF7E0200CF7E0200A4
:1080A000DB810200CF7E0200CF7E02004F82020001
:1080B000CF7E020089820200CF7E0200CF7E0200C6
:1080C0004F81020047F004070C46214611F8012BAE
:1080D0002D2A7FF41FAF47F001070C46F5E747F064
:1080E00002070C46F1E7DAF800301A1DCAF8002042
:1080F00062781E682E2A04F102007FF42BAF4A78C2
:10810000A2F13003092B00F25081002303EB83031B
:1081100002EB430310F8012FA2F130010929A3F16A
:108120003003F3D9014616E7284605B0BDE8F04F05
:10813000FFF71EBEAB682A68591CA9604FF02501E5
:10814000D154D5E901329A42FFF4C1AECEE6DAF855
:108150000020111DCAF8001011682846CDE90067FB
:108160001022FFF721FEB2E6DAF80020131DCAF84C
:108170000030AB6829681278581CA860CA54D5E949
:1081800001329A42FFF4A3AEB0E6DAF80020111DE6
:10819000CAF80010D2F8008088EAE872A2EBE87210
:1081A000092A4FF0010107DDAF48A0FB0202D20807
:1081B000092A01F10101F7DC994238BF19468946C5
:1081C00007F00202002E71D12AB1002B00F0478186
:1081D000FA0700F18D8000268AE0DAF80020131DEE
:1081E000CAF80030AB6829681768581C3022A860AC
:1081F000CA54D5E90123934280F028812A68581C8B
:108200007821A860D154D5E90123934280F01981E7
:108210000F2F03D93A4612090F2AFCD84FF0805687
:1082200003E036093FF453AEAB682968B7FBF6F2BA
:10823000581CA8601BF80200C854D5E901319942C6
:1082400006FB1277EDD32846FFF792FDE9E7DAF84F
:1082500000301A1DCAF80020D3F80080FB077ED535
:108260004746A7EB080917F8013B002B5DD0AA6829
:108270002968501CA8608B54D5E901329A42F0D38A
:108280002846FFF775FDECE7DAF80020111DCAF863
:10829000001011682846CDE900670A22FFF784FD27
:1082A00015E6704708460026214650E6B8F1000F53
:1082B00001DB780700D5013E02B1CBB1F90717D435
:1082C000002E88D0B14513D220220393A9682B68D1
:1082D000481CA8605A54D5E90131994206F1FF368D
:1082E0005DD2002E00F0BD80B145EFD1039B4E461C
:1082F000B8F1000FC0F292807A070AD5A9684A1C2B
:10830000AA602A682B205054D5E90121914280F0BF
:10831000928007F00302022A5FD0CDE90067414650
:108320000A222846FFF740FDD1E54E457FF6CFAD46
:10833000202705E04E453FF4CAAD002E3FF4C7ADFF
:10834000AB682A68591CA960D754D5E901329A4212
:1083500006F1FF36EED32846FFF70AFDEAE7B8F14B
:10836000000F24D0404605F057FC0746BE4220D9F6
:10837000FEB14FF0200902E0BE421AD0CEB1AB6888
:108380002A68591CA96002F80390D5E901329A4283
:1083900006F1FF36F0D32846FFF7EAFCECE7284663
:1083A0000292FFF7E5FC029A9BE70146D2E54746B9
:1083B000DCE708F1FF3818F8013F002B3FF487ADE8
:1083C000AA682968501CA8608B54D5E901329A42EA
:1083D000F1D32846FFF7CCFCEDE7002B9DD1002E12
:1083E0003BD0B14599D2029323464C469946AA68A0
:1083F0002B68501C4FF03001A8609954D5E9013228
:108400009A4206F1FF3605D22EB3B442EFD1029B59
:108410004C4682E72846FFF7ABFCF5E7A9684A1C03
:10842000AA602A682D205054D5E901219142C8F153
:108430000008FFF46EAF28460293FFF799FC029BF9
:1084400067E72846FFF794FCAB68E1E62846FFF7AC
:108450008FFCAB68D2E6029B4C4600265DE71E46C9
:1084600046E7039BB7E600BFCDCCCCCC68EF02005B
:10847000FFF71EBC2DE9F041058ACE1C043D2E44B9
:108480000746B6FBF5F6FFF72FFC78B3F6B24FF4CC
:108490008073013E0446C5800760838027D08046F4
:1084A000002509E06379AE4203F101036371C8F866
:1084B0000000076080461AD03846FFF715FC0135EA
:1084C0000028EFD16679721E14D023460130824213
:1084D0001B68FBD11F684EB100252368214601357A
:1084E00038461C46FFF728FCAE42F6D10024204651
:1084F000BDE8F0812768EFE704300121FFF7A8BB52
:10850000F8B5012104460430FFF7AEFBC0B200B15C
:10851000F8BD6679721E12D02346013082421B6874
:10852000FBD11F68002EF3D00025236821460135BA
:1085300038461C46FFF700FCAE42F6D1F8BD27686E
:10854000F2E700BF2DE9F843C788467907FB06F636
:10855000043E02EB030C0446664503F10400154695
:108560008846B0FBF7F238BFF51A07FB120012B1CC
:10857000013A2468FCD13E1AAE4228BF2E469DB176
:108580004FF000090430AD1B2044324608EB0901CE
:1085900005F00EFBAF42B14424683E464FF00000A8
:1085A00028BF2E46002DEDD1BDE8F8832DE9F84314
:1085B000C7884679154607FB06F6043E05EB030C13
:1085C0001A1D664504468846B2FBF7F038BFF51A17
:1085D00007FB102110B101382468FCD17E1AAE428D
:1085E00028BF2E469DB14FF0000904312144AD1B38
:1085F000324608EB090005F0DBFAAF42B1442468CB
:108600003E464FF0000128BF2E46002DEDD1BDE8BB
:10861000F88300BF41DF7047064A074B10B50024BE
:1086200014701C60BFF35F8F0449054800F040F8E8
:10863000204610BD483400204C34002078EF020062
:108640004034002000B583B002A8002300F8013DAB
:10865000FFF780FAF1EE103A23F09F03E1EE103AB3
:10866000BFF35F8F0A4B4022C3F884219DF80700B7
:10867000FFF796FA05F09CF828B920BF40BF20BF4D
:1086800003B05DF804FBFFF7C5FF03B05DF804FB22
:1086900000E100E0826800239360826813618268D1
:1086A00053618268D3608268536082681360704748
:1086B00001600B6843604A68934204BF0023436033
:1086C000704700BF436843B1026891680B44436040
:1086D0005268934204BF00234360704730B4184D82
:1086E000A5F59472AB1ADB1003EBD3735B1002EBAE
:1086F000C30152F83330984228BF0C4605D311E02D
:1087000052F8333098420CD221468B1ADB1003EB1F
:10871000D3735B108A4202EBC304F1D3094830BC27
:1087200070470D46984204D904F10802AA42D9D3F1
:10873000F4E76068034B002808BF1846EFE700BF66
:10874000CCF0020090EF020070B5161E07DD0C465B
:108750008D1914F8010BFFF7C3F9A542F9D1304682
:1087600070BD00BF10B50C462046FFF78BF90528F9
:10877000FAD0012010BD00BF30B4904B1B78062BFF
:1087800020D08F4B1B68062B00F085808D4AD2F8D5
:10879000883043F47003C2F88830BFF34F8FBFF3C3
:1087A0006F8F4FF01023D3F80022002AC0F2868189
:1087B000D3F80432002BC0F28181834B834A1A60C4
:1087C00030BC7047824B1B681D07DAD1814B1B6898
:1087D00003F0F002302A00F09E8003F0E003402B0B
:1087E00000F099807B4B1B6803F0F003302B00F006
:1087F000B980784B1B6803F0F002302A56D003F0A2
:10880000E003402B52D0734B1B6803F0F003302B76
:1088100000F0B6806F4B1B6803F0F002302A66D080
:1088200003F0E003402B62D06A4B1B6803F0F003B7
:10883000302B00F0B580674B1B6803F0F003302B42
:1088400079D0644B1B6803F0F003502B00F0E480F8
:10885000604B1B6803F0F002302A37D003F0E003CE
:10886000402B33D05B4B1B6803F0F002302A03D05F
:1088700003F0E003402B84D14FF08043D3F8002471
:10888000D20744BF6FF00102C3F800244C4B1B68B1
:10889000062B7FF47BAF504B1B68062B7FF476AF23
:1088A0004E4A136843F4806313606FE74C4B434AAE
:1088B0001B6812784B49C3F34233062A0B6048D138
:1088C000434B1B6819077FF45CAF9CE7464A3B4B60
:1088D00012681B78454902F04F02062B0A607FF4AC
:1088E00050AF3B4B1B6819077FF44BAFBAE74FF013
:1088F00080430022C3F80C21C3F81021C3F83825A7
:108900002E4B1B78062B7FF43CAF314B1B681B07AB
:108910007FF437AF88E7364B284A1B681278354911
:10892000C3F30423062A0B60EAD1294B1B681C07FA
:108930007FF427AF56E7304C204A30491278304850
:10894000304B0525256001250D6000243F21046082
:108950001960062A7FF415AF1D4B1B681C077FF4B6
:1089600010AF6EE7154B284A1B7828491160062B7B
:108970007FF407AF164B1B6818077FF402AF38E788
:1089800023490E4BCA681B7822F08072062BCA60FE
:108990007FF4F7AE0E4B1B681A077FF4F2AE39E78F
:1089A000064B1C4A1B780321062B11607FF4E9AEAD
:1089B000074B1B681D077FF4E4AE3CE7E00F00F0B7
:1089C0003001001000ED00E0B42A00200090D00338
:1089D000E40F00F0E80F00F0340100103C170040F5
:1089E000440200103C05004058020010E40E004014
:1089F00024030010403501401056004088560040C6
:108A0000185600401456004074C007400DF0ADBA2F
:108A1000F0ED00E0A00500404FF08053404AD3F84D
:108A20000414C2F82015D3F80814C2F82415D3F89A
:108A30000C14C2F82815D3F81014C2F82C15D3F86A
:108A40001414C2F83015D3F81814C2F83415D3F83A
:108A50001C14C2F84015D3F82014C2F84415D3F8FA
:108A60002414C2F84815D3F82814C2F84C15D3F8CA
:108A70002C14C2F85015D3F83014C2F85415D3F89A
:108A80003414C2F86015D3F83814C2F86415D3F85A
:108A90003C14C2F86815D3F840142248C2F86C158B
:108AA000D3F844140378C2F87015062B7FF469AE2E
:108AB0001D4B1B6818077FF464AEC9E61B4B0122EF
:108AC000C3F80425D3F80024002AFBD04FF010236C
:108AD00015221649C3F80022D1F80034002BFBD030
:108AE0004FF010221521114BC2F80412D3F80024C4
:108AF000002AFBD000220D49C3F80425D1F8003428
:108B0000002BFBD0BFF34F8F09490A4BCA6802F410
:108B1000E0621343CB60BFF34F8F00BFFDE700BFA0
:108B200000C00040E00F00F0E40F00F000E0014062
:108B300000ED00E00400FA05054A4FF0A043105C88
:108B4000D3F8043523FA00F0C04300F00100704769
:108B5000BCF40200044B195C4FF0A04201238B408F
:108B6000C2F80C35704700BFBCF40200044B195C1E
:108B70004FF0A04201238B40C2F80835704700BF78
:108B8000BCF402004FF0A04310B44FF480204FF427
:108B900000344FF400214FF48012C3F80845C3F8A5
:108BA0000805C3F80815C3F808255DF8044B70479D
:108BB0004FF0A04310B44FF480204FF400344FF432
:108BC00000214FF48012C3F80C45C3F80C05C3F81C
:108BD0000C15C3F80C255DF8044B7047074B4FF09C
:108BE000A041185CD1F804350122824022EA03003A
:108BF0001340C1F80805C1F80C357047BCF40200F9
:108C0000054A4FF0A043105CD3F8103523FA00F06A
:108C1000C04300F001007047B8F402000D2809D0ED
:108C20000E2809D00F2809D010280CBF03204FF0C0
:108C3000FF307047002070470120704702207047C6
:108C4000014B185C704700BFB8F40200C20730B493
:108C50001AD54FF0A0430322C3F844274FF4003540
:108C6000C3F848274FF48024C3F84C274FF4002161
:108C7000C3F850274FF48012C3F80855C3F80845CD
:108C8000C3F80815C3F8082583070AD54FF0A04399
:108C90000C22C3F83427C3F83827C3F83C27C3F89D
:108CA000402730BC704700BF10B570B101280BD110
:108CB0000D4C2369A0703BB1D3E900230120226150
:108CC00098472369002BF7D110BD074CA3680122F8
:108CD0006270002BF8D0D3E900230020A2609847EF
:108CE000A368002BF7D1EFE75034002070B910B51E
:108CF000074CA368012262703BB1D3E90023002036
:108D0000A2609847A368002BF7D110BD704700BF41
:108D10005034002030B5012883B01CD015D303286F
:108D200011D100F0D3F802A800231F4C00F8013D38
:108D3000FEF710FFE368013BE360E56865B39DF86B
:108D40000700FEF72DFF03B030BD184B0122C3F81A
:108D5000802003B030BD02A80023134C00F8013D71
:108D6000FEF7F8FE237853B1E3689DF8070001335E
:108D70000122E360A270FEF713FF03B030BD0C4880
:108D80006360A3602361E36000F092F804F010FDDB
:108D900030B101232370E7E700F0ACF8A570CEE70F
:108DA00000F094F8F5E700BF5034002000E100E047
:108DB000A98C0200034B187810B901221A70704771
:108DC000852070476434002030B585B00478094AA6
:108DD000094B45688DF80040047AC068039053F849
:108DE000213001958DF8084052F8211068469847C7
:108DF00005B030BD683400206C34002030B585B03B
:108E0000047845688DF80040D0E90240064A074BD7
:108E1000039053F8213001958DF8084052F8211045
:108E20006846984705B030BD683400206C34002097
:108E3000F0B51A4B06781A4D0C6991F81DE045F80B
:108E400026400746174803F806E040F826200C465F
:108E500094460FCC89B06D460FC594E80F0085E8A5
:108E60000F000496BEF1000F0BD0BCF1000F0E4AAC
:108E7000694607F1040008BF002201F0C5FB09B0F4
:108E8000F0BDBCF1000F094A694607F10C0008BFAC
:108E9000002201F03BF909B0F0BD00BF803E002088
:108EA000683400206C340020C98D0200FD8D020062
:108EB000054A13792BB901211060537118461171BD
:108EC00070478520704700BF70340020084B1A6837
:108ED000D20706D40122C02183F80013C3F88021F1
:108EE0001A604FF080430122C3F81825704700BF75
:108EF00000E100E0044B01221A604FF08042D2F8FA
:108F00001834DB03FBD470470C00004010B5154B40
:108F10001A6882B07AB10021134A19601B6850792F
:108F200000934FF080410123009CC1F8083310B931
:108F30001168537188470D4B1A6882B100221A607C
:108F40001B6801934FF080420221074B0198C2F841
:108F500008131B68012002B0BDE81040184702B09A
:108F600010BD00BF0001004070340020040100402B
:108F700070B51E4C94F8585082B0A5BB4FF0FF332B
:108F80002946042204F15400C4E90033C4E9023341
:108F9000C4E90433C4E90633C4E90833C4E90A3335
:108FA000C4E90C33C4E90E33C4E91033C4E9123305
:108FB000236504F008FE0E4B0E4A0F4E1560C021CB
:108FC00083F806134021C3F88011196013680193D8
:108FD00001994FF000430122284684F85820C6F832
:108FE000043302B070BD082002B070BD7834002098
:108FF00000E100E07C61004000600040034B93F81A
:109000005800003018BF0120704700BF783400209E
:10901000F0B56C4B1C1894F93050002D68DA8E783E
:10902000C6F340069646002E5CD11D6A013500F05D
:10903000B58009240C2553F8247001375BD004F166
:10904000010C53F82C70013700F0B380A71CAF421D
:1090500046D253F82720013200F0AD8004F1030C12
:10906000AC453DD253F82C70013700F0A28004F1DA
:10907000040CAC4534D253F82C70013700F09980C1
:1090800004F1050CAC452BD253F82C70013700F0DD
:10909000908004F1060CAC4522D253F82C700137B5
:1090A00000F0878004F1070CAC4519D253F82C70FE
:1090B00001377ED004F1080CAC4511D253F82C7066
:1090C000013776D004F1090CAC4509D253F82C7065
:1090D00001376ED00A34AC4202D2DC6A013409D0C6
:1090E0000420F0BD1D68013567D001240825A2E7E2
:1090F0000820F0BD0B241F1865B243F824E087F860
:109100003050002E51D08A78540714D4D6073BD45F
:109110004C784FF0A04600F5E072A40046F82240DB
:10912000294EC40800F0070C375D012202FA0CF248
:109130003A4332558A780C7812F0020209D1083D80
:109140002B44104693F8502042EA841483F8504090
:10915000F0BDAB0003F1804303F5C0430202D3F836
:10916000101521F4473121F44071C3F8101524047F
:10917000D3F8101504F4403402F4F85222430A43A1
:10918000C3F810250020F0BD820002F1A042D2F801
:10919000004724F00204C2F80047C1E7082684F81B
:1091A0003060C3F820E0354634461C4484F848005B
:1091B000A9E764469FE73C469DE700251A6084F8CE
:1091C0003050A0E778340020CC34002070B42E4D0D
:1091D0002E1883B096F93030072B1CDD2B4493F802
:1091E00048309B09032B41D0012B14BF4FF4403171
:1091F0004FF40031800000F1A040D0F8002722F4A5
:109200004032C0F80027D0F800370B43C0F80037D1
:1092100003B070BC7047DAB2072AF9D8980000F1A1
:10922000804000F5C04003F14002D0F810459200A4
:1092300092B244F0010402F18042C0F8104502F5F8
:10924000C04200200190019C10600029E0D096F9F6
:10925000302055F82220002ADAD001220B4902FAE8
:1092600003F3C1F8043303B070BC70474FF0A04360
:10927000D3F81035C34013F0010F0CBF4FF4003189
:109280004FF44031B6E700BF783400200060004062
:109290004FF0A043D3F8103523FA00F000F001009E
:1092A000704700BF2DE9F04186B00023A14A019329
:1092B0001668012E00F054811E469F4B1A68012A41
:1092C00000F05D819D4B1A68012A00F06A819C4B79
:1092D0001A68012A00F077819A4B1A68012A00F077
:1092E0008481994B1A68012A00F09181974B1A6882
:1092F000012A00F09E81964B1A68012A0CD0954BEA
:109300001B68012B00F0A58116F0FF0F15D1002E70
:1093100030DB06B0BDE8F0818F4AD2F8042317068F
:10932000EDD500221A601A6804926033049A1B6813
:10933000012B46F0800600F08C81884F0024012527
:10934000A30003F18043354203F5C0434FEA4505CE
:109350000BD0D3F8100557F82420D3F81015C0F31C
:109360000420C1F3014102B190470134082CE7D138
:10937000002ECEDA00224FF0FF33CDE90223774CE6
:10938000012602AF94F950305D1C2CD0DBB223F0E3
:10939000C00006AA4FEAD00C02EB0C0E03F0070245
:1093A0001EF80C1C06FA02F211421CD0251899096D
:1093B00095F9303054F82330002B00F098810329C0
:1093C00000F098814FEA800C0CF1A04C1EF8145C60
:1093D000DCF800E71540CEF3014E40F05C81BEF1B1
:1093E000030F00F0DE81002594F95130581C2DD078
:1093F000DBB223F0C00006AA4FEAD00802EB080E49
:1094000003F007011EF80C2C06FA01FC12EA0C0FFF
:109410001CD02218990992F9303054F82330002BCF
:1094200000F05B81032900F05B81820002F1A04221
:109430001EF8148CD2F800E718EA0C0FCEF3014E98
:1094400040F03681BEF1030F00F0A68194F952304E
:10945000591C2DD0DBB223F0C00006AA4FEAD00879
:1094600002EB080E03F007011EF80C2C06FA01FCB3
:1094700012EA0C0F1CD02218990992F9303054F8D6
:109480002330002B00F03C81032900F03C81820056
:1094900002F1A0421EF8148CD2F800E718EA0C0F73
:1094A000CEF3014E40F0E380BEF1030F00F06E8179
:1094B00094F953305A1C2DD0DBB223F0C00006AA19
:1094C0004FEAD00802EB080E03F007011EF80C2C3F
:1094D00006FA01FC12EA0C0F1CD02218990992F925
:1094E000303054F82330002B00F0ED80032900F0D9
:1094F000ED80820002F1A0421EF8148CD2F800E741
:1095000018EA0C0FCEF3014E40F0BC80BEF1030F01
:1095100000F00081002D3FF4FCAE4FF0A043019A13
:10952000D3F8103593423FF4F4AE029A01930392BC
:1095300028E700BF0061004004610040086100406E
:109540000C6100401061004014610040186100404F
:109550001C6100407C6100400060004078340020C5
:109560009A49D1F8041311F0010170D01360136807
:109570000493049B964B1A68012A7FF4A3AE934A86
:10958000D2F8042397077FF59DAE00221A601B686E
:109590000493049B8F4B1A68012A46F002067FF45D
:1095A00096AE8A4AD2F8042355077FF590AE002282
:1095B0001A601B680493049B874B1A68012A46F0C3
:1095C00004067FF489AE814AD2F8042314077FF59C
:1095D00083AE00221A601B680493049B7F4B1A68B9
:1095E000012A46F008067FF47CAE784AD2F80423BC
:1095F000D0067FF576AE00221A601B680493049BA8
:10960000774B1A68012A46F010067FF46FAE6F4A56
:10961000D2F8042391067FF569AE00221A601B6818
:109620000493049B6F4B1A68012A46F020067FF4CE
:1096300062AE664AD2F8042352067FF55CAE002281
:109640001A601B680493049B46F0400653E60E46DE
:1096500033E6654B00221A601B6805934FF0A04368
:10966000059AD3F81035019346F000464CE6BEF15A
:10967000020F7FF41DAF032963D0002B3FF418AF16
:10968000984715E7BEF1020F7FF444AF032969D074
:10969000002B54D13EE7BEF1020F7FF4A4AE0329A4
:1096A00000F091800025002B3FF49EAE98479BE68A
:1096B000BEF1020F7FF4CAAE032956D0002B3FF44F
:1096C000C5AE9847C2E603297FF424AF17F80820F7
:1096D00042EA0C0207F808200BE703297FF4B6AE34
:1096E00017F8082042EA0C0207F808209DE6032933
:1096F0007FF479AE17F80C50154307F80C5061E66B
:1097000003297FF4D5AE17F8082042EA0C0207F8C7
:109710000820BCE60329BBD14FF4003ED2F800C7B5
:109720002CF4403CC2F800C7D2F800C701354CEA1F
:109730000E0CEDB2C2F800C7002B3FF4EEAE984716
:10974000E8E64FF4403ED2F800C72CF4403CC2F8A3
:1097500000C7D2F800C701354CEA0E0CEDB2C2F8D2
:1097600000C78AE74FF4403ED8E74FF4403ED2F8B6
:1097700000C72CF4403CC2F800C7D2F800C701353E
:109780004CEA0E0CEDB2C2F800C797E703297FF44C
:1097900074AF4FF4003ED6E703298FD14FF4003E5B
:1097A000E5E703297FF47FAF4FF40035DCF80027AD
:1097B00022F44032CCF80027DCF800272A43CCF80A
:1097C000002701256FE74FF44035EFE700600040C8
:1097D00004610040086100400C61004010610040DD
:1097E00014610040186100407C610040014B1B681F
:1097F000184700BFD4340020104B984201D00020FD
:10980000704730B583B002A8002300F8013D0D4633
:10981000FEF7A0F90A4B1C7934B19DF80700FEF75A
:10982000BFF9112003B030BD01229DF807001D6073
:109830001A71FEF7B5F92046F4E700BF002000409A
:10984000D43400202DE9F04F002685B0194DDFF803
:1098500068908246B3464FF0010805E09DF80F007E
:10986000FEF79EF9A54320D0F7B208FA07F40DF1F0
:109870000F008DF80FB0FEF76DF92C4206F10106CE
:10988000ECD0D9F8003014EA03020192E6D11C436F
:109890009DF80F008AF80070C9F80040FEF780F9C3
:1098A000019A104605B0BDE8F08F042005B0BDE870
:1098B000F08F00BFFFFF0100DC340020B9B1B2B16E
:1098C0000123834010B4C3F3100494B10D4C2468F9
:1098D000234212D0C00000F1804303F5F83300208A
:1098E000C3F81015C3F814255DF8044B70470E201B
:1098F000704707205DF8044B704708205DF8044B63
:10990000704700BFDC340020012383405A0C52040E
:109910004AB91BB1064A1268134206D0054A002014
:10992000C2F804357047072070470820704700BF11
:10993000DC34002000F001402DE9F041734B1A683F
:1099400088B0002A4CD1DFF8DC8198F82E30002B4B
:1099500054D16F4B1A686AB100221A6008A81B68BC
:109960000393022100F80C1DD8F80030039988F801
:1099700010209847674B1C68002C7CD1D8F81470D5
:109980005FB34FF000450126B7FA87F101F14603B6
:109990009B0003F1804202F5E042A3F58C73D2F8FC
:1099A00000E083F0040025FA01F1C0F3800CDB082D
:1099B00005A827EA0107BEF1000F0CD01460126859
:1099C00004928DF818308DF814608DF819C0D8F80D
:1099D0000030049A9847002FD6D108B0BDE8F08136
:1099E0000022DFF840811A60196898F82E30009143
:1099F0000099F3B198F82F30002B46D1464B1A68E6
:109A0000002AA6D00020186098F82D201968B8F810
:109A10001A30019191B28B42019C4DD861D03B4BE1
:109A20003E4A002119601B680293012302991360CA
:109A30008FE7D8F80C20D8F80400B8F808108DF893
:109A400014300690ADF81C10002A46D03448B8F8FF
:109A50001810C8F804200122C8F80C30A8F81A1011
:109A6000A8F808100260D8F8003005A8984700232D
:109A700088F82F3069E700221A601B680593059B60
:109A800088F8102008B0BDE8F081D8F80C30D8F87C
:109A90000400B8F808108DF814200690ADF81C10DA
:109AA000DBB1B8F81810C8F80430C8F80C20A8F8D2
:109AB0001A10A8F80810D6E7B8F80800184C5B1A76
:109AC0009BB2D8F80410A8F81A30C01A01EB400174
:109AD000C4F82C16C4F83026A1E7002388F810300B
:109AE000C1E7D8F80C3053B10D49A8F81A0001208D
:109AF00088F82F00C1F82C36C1F830268FE70122F4
:109B0000A8F81A3088F82F2089E700BF04710040B8
:109B1000107100401471004000710040047000405A
:109B200000700040E0340020214B93F82C20002AE4
:109B30003CD170B41F4C05781960C4F8F0554578D5
:109B40001D49C4F8F4556FF000451A74C678C4F87E
:109B5000085383B00A600968184D019101992A6081
:109B6000817883F82E602D6815480095490183F8A7
:109B70002D205A6183F82F20C9B28022F5B2009EB1
:109B800080F80713C0F88021022102600122C4F886
:109B9000041383F82C200DB1C4F80423054B0122D3
:109BA0000020C3F8002503B070BC70470820704740
:109BB000E03400200070004004710040007100405B
:109BC00000E100E0334A137C002B60D1F0B40C7943
:109BD000012C4ED900F10C0502EB45031B7923B98A
:109BE00092F82D30013382F82D304B788E7891F831
:109BF00000C04F791B01360206F4E06603F0300323
:109C00003343CE780CF0030C360306F4805643EA57
:109C10000C0333438E793F0507F48017360602EBB9
:109C2000450206F0807624043B431B4D04F4E024F7
:109C30003343234305EB0016CC79147100010C7AF1
:109C4000547100F18040C6F8183500F5E040CB793A
:109C50000A7AC0F81425C0F810350B79012B02D907
:109C60000020F0BC70470123C5F800350020F0BC8F
:109C7000704703F0FF05084BC3F8005500F10C05D1
:109C800002EB45030C791B79002BAED1A8E711201C
:109C9000704700BFE034002000700040044B054ACC
:109CA00093F82E00044B00280CBF1046184670474E
:109CB000E03400200470004000700040F0B42D4AF1
:109CC0002D4B1224C2F808431D7C022D82B04BD0CC
:109CD0001C7C012C24D093F82E40586002270125CB
:109CE0000026C2F804731D74DE6019816CB9234B21
:109CF000C2F82C06C2F830161C601B680193019B49
:109D00001560204602B0F0BC704793F82D40C2F8B1
:109D10002C0630465983C2F8304602B0F0BC70477A
:109D2000DC6834B102231120C2F8043302B0F0BC65
:109D3000704793F82E20D86019836AB90F4A1368C8
:109D4000002BFCD00023136012680A4B0092009A8B
:109D5000C3F82C06C3F83016064B02220020C3F8C5
:109D6000042302B0F0BC70471120C2F8044302B0D3
:109D7000F0BC704700700040E034002000710040EB
:109D8000F0B407793B4D7E00F419A40005EB040CF8
:109D900082B09CF80830002B67D12A514A68CCF871
:109DA0000420427972B19C469A0002F5A0720468C0
:109DB00044F802C00133A45842790194DBB29A42BC
:109DC000019CF1D80468CB78240B62B25B01002AB5
:109DD000DBB244DB02F1604202F5614282F80033FB
:109DE0000268120B42F3C40323F0604323F0030321
:109DF00003F1604303F56143012402F01F0204FAFA
:109E000002F2C3F880211A60D0F800C04B78DCF869
:109E1000042503F0030322F003021343CCF80435B6
:109E2000D0F800C08B78DCF8082503F0030322F09B
:109E300003021343CCF8083500680B78D0F81025DE
:109E40003E4422F00F0203F00F0305EB8605134397
:109E5000C0F8103500202C7202B0F0BC7047064AE2
:109E600004F00F0422441376BAE7082002B0F0BCD5
:109E7000704700BF10350020FCEC00E00368054A85
:109E800001211960037903EB430302EB83030222F0
:109E90001A72704710350020F0B4076840F20115BF
:109EA000D7F800428D4024EA0504C7F8004205684F
:109EB00082B0D5F800429DF8186023434FF48034F7
:109EC000C5F800328C4056B90368C3F808430368EC
:109ED00001F5A87143F8212002B0F0BC704701F1F0
:109EE00050039B0005680026EE50ED58036801956D
:109EF000019DC3F80443EAE72DE9F041114C124EED
:109F0000DFF8488082B000254FF48037236804F5DD
:109F1000C04007FA05F20021013580B253B1D6F8EE
:109F200004331A4206D0216023680193D8E9003136
:109F3000019A9847062D04F10404E7D102B0BDE868
:109F4000F08100BF40A1014000A001401035002079
:109F500030B56C4AD2F8043399058BB066D5D2F887
:109F60002431002B62D00023C2F82431D2F82431EE
:109F700003934FF40171644B0398C2F8081393F8EC
:109F8000291009B9012151605E4902228DF818207B
:109F9000D1F88024C1F880249869D96809920022F8
:109FA000CDE90710C3E90622D3E9001406A8A047AB
:109FB000544AD2F81C31BBB1534B186A59698842D4
:109FC00069D350480022C0F81C21D0F81C01019030
:109FD000019849B198688DF8182008915A61079046
:109FE000D3E9001206A89047464AD2F84431DBB1C3
:109FF0000021454BC2F84411D2F8440193F82910CE
:10A000000090009809B1012111609A6962B10022A3
:10A01000586AD9689A610122CDE907108DF8182095
:10A0200006A8D3E9001290470BB030BD354AD2F8EC
:10A0300004335B07BCD5D2F80831002BB8D0324BC3
:10A04000996900293CD00021C2F80811D2F8081102
:10A0500004910499D868596AD2F8182542545A6A6A
:10A06000996901325A625A6A8A42A1D1DA69196839
:10A07000002A2ED0D8685D6A1C699A610790002278
:10A080000120DC60DA615A628DF8180008955B687F
:10A0900006A898478CE793F8280000F0FF040028F2
:10A0A0008FD1C2F81C41D2F81C11029102999C6810
:10A0B000186A196A205C01311962C2F81C0593E71D
:10A0C000C2F80811D2F8080105900598D2F81825B1
:10A0D000C9E793F8292012B90A4A01205060094AB9
:10A0E0004FF40170C2F80803586ADA680890002437
:10A0F000012007928DF818005A689C6106A89047C5
:10A1000056E700BF002000401C3500202DE9F0413B
:10A11000DFF8988107792C2606FB078682B096F82F
:10A120002A30002B40F08F800D4604465C490068C1
:10A130001646FFF761FB002840F081802B68591C10
:10A140000CD001224FF0A04102FA03F3C1F8083508
:10A150002B6803F5E073032241F823206B685A1C37
:10A1600006D003F5E0734FF0A042002142F823101F
:10A170002368AA69C3F82425297D6B7D22680B43D7
:10A18000C2F86C35D5E900122368C3F81425C3F86A
:10A190000C152B7D012B5AD02C2303FB07F308EB66
:10A1A000030256602A6948F80320002E34D0226842
:10A1B0002B7F3C4D0021C2F81C11D2F81C210092CB
:10A1C0002268009EC2F84411D2F84411226801911D
:10A1D0000199C2F804532168090B4AB25B01002AB5
:10A1E000DBB256DB02F1604202F5614282F80033D5
:10A1F0002268120B42F3C40323F0604323F00303ED
:10A2000003F1604303F5614302F01F02012101FAEB
:10A2100002F2C3F880211A602C23246803FB078311
:10A22000002204250121C4F8005583F82A10C3E94F
:10A23000062283F829205A6102B0BDE8F08111207E
:10A2400002B0BDE8F081082002B0BDE8F081AB6843
:10A25000591C06D003F5E0734FF0A042002142F8EC
:10A260002310EB685A1C0DD001224FF0A04102FAD6
:10A2700003F3C1F80835EB6803F5E073032241F8F6
:10A280002320EB682268A968C2F80835C2F81015C7
:10A2900082E7054A01F00F010A441376A8E700BFE0
:10A2A000519F020080000200FCEC00E01C35002001
:10A2B000F0B5314E05792C2303FB056385B05C694D
:10A2C000002C53D11C62996083F828405A610268BF
:10A2D000C2F81C41D2F81C11026802910121029FB0
:10A2E00091600268D3F808C0C2F81C41D2F81C1172
:10A2F00001910199D3F820E0196A5F681CF80EE01B
:10A3000001311962C2F81CE517B1204605B0F0BD55
:10A310001A6A5C690168944203D819E093F828200E
:10A320003ABBD1F81C21002AF8D0C1F81C71D1F831
:10A330001C210392039AD3F820E01A6A1CF80EE05D
:10A3400001321A62C1F81CE51A6AA242E9D3016817
:10A35000D1F81C31002BFBD00123CB6000202C2333
:10A3600003FB056500236B6105B0F0BD112005B04E
:10A37000F0BD0F20F3E700BF1C3500200379044A2D
:10A380002C2101FB03235869003018BF01207047BE
:10A390001C350020F0B4514D04792C2303FB0453E9
:10A3A00086B05F6827B103684FF40176C3F808638D
:10A3B0002C2303FB04539E696EB1DE690EB3002F9C
:10A3C00000F0848003684FF401721120C3F8042365
:10A3D00006B0F0BC704793F829709A61D9605E624C
:10A3E000DE61002F60D02C2202FB0452016853680A
:10A3F00053B14FF40173C1F80433002006B0F0BC30
:10A4000070471961DA61EEE7C1F84431D1F844319F
:10A410000393039B0368D3F82461D3F80871D3F83E
:10A42000441157B9002936D1002EF4D02C2303FB58
:10A4300004540023A3610320E0E7002EF6D161BBA2
:10A44000966996B1C3F80811D3F8081104910499DC
:10A45000D668516AD3F818357354536A9169013339
:10A460005362536A9942D5D808E0C3F80861D3F81B
:10A47000081105910599D3F81835536A2C2303FB6D
:10A480000454002294F82930A2610BB3036801211F
:10A4900010461960B2E7002EC8D12C2303FB0454E8
:10A4A0000023A3610F20A9E70368C3F82471D3F840
:10A4B000242103680192019AC3F80871D3F8082196
:10A4C00003680292012202991A608CE7112095E735
:10A4D000026801211846516090E700BF1C3500203A
:10A4E000F0B5474BD3F8242189B0002A54D000217D
:10A4F000C3F82411D3F82421029202228DF81020EF
:10A50000029AD3F880043F4AC3F880040790D3F836
:10A510003C05D3688DF81800C2E90611059311684F
:10A52000536804A89847364BD3F84421BAB10020A9
:10A53000344AC3F84401D3F8444191690194019C21
:10A5400069B1D3F83C458DF81840D3689061012477
:10A550000593116853688DF8104004A89847284B5C
:10A56000D3F82021B2B10021264AC3F82011D3F834
:10A57000204150690094009C60B1D3F84C05936869
:10A580008DF818008DF810105161059304A8D2E9D8
:10A590000013984709B0F0BDD3F810110029C2D0BC
:10A5A000C3F81021D3F8101116480391039981695B
:10A5B000D3F83C458C42B6D1C569C768D0E90016CE
:10A5C000E4B295B1D3F800C285612CF02005C261D8
:10A5D000C3F800520369C36001228DF81840059743
:10A5E0008DF8102004A8B0479DE7012385618DF800
:10A5F000184005978DF8103004A8B04793E700BFC6
:10A6000000200040483500202DE9F04307796B4ECB
:10A610004FEAC70808EB070306EB830385B093F8FE
:10A620002030002B40F09E800D46044664490068AF
:10A630009146FFF7E1F8002840F090802B68591C04
:10A640000CD001224FF0A04102FA03F3C1F8083503
:10A650002B6803F5E073032241F823206B685A1C32
:10A6600006D003F5E0734FF0A042002142F823101A
:10A670002368AA69C3F82425297D6A7D23680A43D3
:10A68000C3F86C25D5E900312268C2F80C35C2F850
:10A6900014152B7D012B69D008EB07029200B3182B
:10A6A000C3F804902B69B350B9F1000F45D021686D
:10A6B0002B7F444D0022C1F81021D1F810110091D8
:10A6C0002168DDF800C0C1F82021D1F820110191E6
:10A6D0002168DDF804C0C1F82421D1F824110291C9
:10A6E0002168DDF808C0C1F84421D1F8441122687E
:10A6F00003910399C2F804532168090B4AB25B0124
:10A70000002ADBB254DB02F1604202F5614282F8BA
:10A7100000332268120B42F3C40323F0604323F09A
:10A72000030303F1604303F5614302F01F020121BB
:10A7300001FA02F2C3F880211A604744226806EB4E
:10A74000870600230124082186F82040C2F800155E
:10A75000C6E90633736105B0BDE8F083112005B08A
:10A76000BDE8F083082005B0BDE8F083AB68591C54
:10A7700006D003F5E0734FF0A042002142F8231009
:10A78000EB685A1C0DD001224FF0A04102FA03F3EE
:10A79000C1F80835EB6803F5E073032241F8232084
:10A7A000EB682268A968C2F80835C2F8101573E78B
:10A7B000054A01F00F010A441376AAE74835002044
:10A7C000E1A4020010030200FCEC00E001F0604391
:10A7D000B3F1005F2CD1F0B50679234F4FEAC60CD8
:10A7E0000CEB060407EB840483B0636913BBA16020
:10A7F00062610568C5F82031D5F820E10568CDF81B
:10A8000004E0DDF804E0C5F85831D5F858E10568F2
:10A81000CDF800E0DDF800E0C5F84415C5F848259E
:10A8200002680121916062683AB1184603B0F0BD38
:10A8300010207047112003B0F0BD036800E08AB912
:10A84000D3F82011D3F858210029F8D0002A14BFDA
:10A850000F2000200CEB060307EB830300225A6154
:10A8600003B0F0BD0F20F5E7483500200379054A15
:10A8700003EBC30302EB83035869003018BF0120C8
:10A88000704700BF4835002001F06043B3F1005F1E
:10A890007ED1F0B40579464CEB005E1904EB8606D8
:10A8A00082B0766826B107684FF4047CC7F808C305
:10A8B0002B4404EB83039D69002D42D19A61DD6135
:10A8C000D9600368C3F81051D3F81061036801968A
:10A8D000019EC3F84451D3F8445103680095009D8C
:10A8E000C3F83415C3F83825036801221A600579C6
:10A8F0000368EE00721904EB820252685AB14FF4F9
:10A900000472C3F80423002002B0F0BC7047002991
:10A9100042D1002846D1D3F81021D3F84411D3F8FE
:10A920002401002AF3D0354400284FF0000304EB43
:10A93000850414BF032018469942A36118BF0F2055
:10A94000E2E7DD693DB12EB303684FF40472C3F84A
:10A9500004231120D8E71961DA610368C3F81051A4
:10A96000D3F8106103680196019EC3F84451D3F8EF
:10A97000445103680095009DC3F83415C3F8382589
:10A980000268D2F8003243F02003C2F80032AEE78A
:10A99000102070471120B7E7354404EB85040F20E1
:10A9A000A261B1E7354404EB85040320A161ABE764
:10A9B000483500200220FEF711B900BF2DE9F0470D
:10A9C0000D460646FEF72AF903281ED8012D044637
:10A9D0001DD00ED3022D18D11B4B00EB40041C449C
:10A9E000657895B1194B1B687BB12846BDE8F047E7
:10A9F00018471748FCF708FF134B164A04EB4401AD
:10AA00000B44125D9D78AA42EBD0BDE8F0870E4F53
:10AA10004FEA400808EB0003FA18FD5C53782BB9A5
:10AA2000A04447440B4BBA781A55DAE7DFF8289070
:10AA300007484A464FF40041FCF790FE0028EFD14A
:10AA400089F80060ECE700BFD0350020E435002035
:10AA500090350020EC3500206C35002010B50078D2
:10AA6000FEF7DCF803280BD8064B00EB4000184437
:10AA7000407828B1044B1B6813B1BDE8104018475B
:10AA800010BD00BFD0350020E4350020B44B1B685A
:10AA9000DB0700D4704770B5B24DB34E2B783478D5
:10AAA0006BB1B24B1B7800202870002B4BD0FEF707
:10AAB0005DF80120FEF75AF80320FEF757F8172C2F
:10AAC00040D8DFE814F0B600F400F400DC00080120
:10AAD000CA001301EE005000430050004300610023
:10AAE00018001800180018001800660077008B0086
:10AAF0009F005D005D009E48FCF786FED4F11104C6
:10AB0000054600F00081002840F0FD80012C13D0A4
:10AB1000C82303FB04F44FF4FA704FF40043002100
:10AB2000C3FB04014FF47A72002303F0D5FF2A46D9
:10AB300001468F48FCF712FE0220FEF70BF88B4B04
:10AB400001221A7070BDFEF71DF8B8E70123184600
:10AB50002B70FEF743F800224FF480418548BDE892
:10AB60007040FCF7FBBD012318462B70FEF736F84A
:10AB7000002240F6CD417F48BDE87040FCF7EEBDB5
:10AB8000FEF716F8347070BDFEF712F80C23337020
:10AB900070BD764B1B78002B00F0BF800020FDF7C6
:10ABA000E5FF0120FDF7E2FF0320FDF7DFFF1223A1
:10ABB000337070BD6D4B1B78002B00F0B18000200E
:10ABC000FDF7D4FF0120FDF7D1FF0320FDF7CEFFF5
:10ABD0000020FDF7BFFF1323337070BD634B1B785C
:10ABE000002B00F0AD800020FDF7C0FF0120FDF735
:10ABF000BDFF0320FDF7BAFF0120FDF7ABFF1423D3
:10AC0000337070BD594B1B78002B00F083800020FF
:10AC1000FDF7ACFF0120FDF7A9FF0320FDF7A6FF1C
:10AC20000020FDF797FF0120FDF794FF15233370F7
:10AC300070BD4E4B1B78002B00F08A800020FDF782
:10AC400095FF0120FDF792FF0320FDF78FFF494894
:10AC5000FCF7DAFD0023337070BD0020FDF76CFFB8
:10AC6000002860D00020FDF781FF0523337000220B
:10AC700041F69A113F48BDE87040FCF76FBD0020D7
:10AC8000FDF75AFF00285ED00020FDF76FFF46F267
:10AC900066610323337000223648BDE87040FCF73C
:10ACA0005DBD0020FDF756FF0723337070BD002007
:10ACB000FDF742FFD0B30020FDF758FF022C4EF203
:10ACC000666118BF4FF40031347000222948BDE896
:10ACD0007040FCF743BD0020FDF72EFFD8B30020E5
:10ACE000FDF744FF4FF400310423D3E70020FDF7C4
:10ACF00075FF06233370002240F6CD411D48BDE8A4
:10AD00007040FCF72BBD0220FDF730FF174B0022EF
:10AD10001A7070BDFDF736FF82E7FDF733FF46E797
:10AD2000FDF730FF54E7FDF715FF9EE7FDF712FF33
:10AD300043F2333141F69A13022C08BF1946C3E798
:10AD4000FDF720FF58E7FDF705FF41F69A11A0E750
:10AD5000FDF718FF7BE7FDF7FDFE43F23331C3E754
:10AD6000DC350020E0350020E83500206D3500207E
:10AD700070350020B0350020032801D9002070472D
:10AD8000FDF73EBF38B5C54B1C6814F0010401D176
:10AD9000204638BDC24C2378054663B1C14B1B78B1
:10ADA0000020207023B3FDF7E1FE0120FDF7DEFE59
:10ADB0000320FDF7DBFE172D00F26D81DFE815F0B3
:10ADC000C300EC00EC001001D900230102013601A0
:10ADD00028001B0028001B006A0071007100710030
:10ADE000710071009A00AD0035004B0064006400F2
:10ADF000FDF7C8FEDFE7012318462370FDF7EEFEDE
:10AE000000224FF48041A848BDE83840FCF7A6BCBA
:10AE1000012318462370FDF7E1FE002240F6CD41E4
:10AE2000A148BDE83840FCF799BC9E4B1B78002B2D
:10AE300000F016810020FDF799FE0120FDF796FE37
:10AE40000320FDF793FE0120FDF784FE974B1422AB
:10AE50001A7000249CE7934B1B78002B00F00381B1
:10AE60000020FDF783FE0120FDF780FE0320FDF7A3
:10AE70007DFE0020FDF76EFE0120FDF76BFE8B4B83
:10AE800015221A70002483E7FDF792FE874B0024F9
:10AE90001D707DE7FDF78CFE844B0C221A70002498
:10AEA00076E78348FCF7B0FC0446D5F1110000F0CA
:10AEB000C580002C40F0C280012814D0C82505FBB5
:10AEC00000F54FF400434FF4FA700021C3FB050175
:10AED0004FF47A72002303F0FFFD224601467448C6
:10AEE000FCF73CFC04460220FDF734FE6D4B0122CA
:10AEF0001A704DE76B4B1B78002B00F0AE800020E2
:10AF0000FDF734FE0120FDF731FE0320FDF72EFE94
:10AF1000664B12221A7000243AE7624B1B78002B12
:10AF200000F093800020FDF721FE0120FDF71EFEBA
:10AF30000320FDF71BFE0020FDF70CFE5B4B1322E8
:10AF40001A70002424E7574B1B78002B00F08E80EA
:10AF50000020FDF70BFE0120FDF708FE0320FDF7A2
:10AF600005FE5148FCF750FC504B002204461A7075
:10AF70000EE70020FDF7E0FD002869D00020FDF776
:10AF8000F5FD4FF40031494B474804241C70002262
:10AF9000BDE83840FCF7E2BB0020FDF7CDFD0028FE
:10AFA0006CD00020FDF7E2FD022D4EF2666118BF65
:10AFB0004FF400313D4B3C481D700022BDE8384045
:10AFC000FCF7CCBB0020FDF709FE384B36480624C1
:10AFD0001C70002240F6CD41BDE83840FCF7BEBBF6
:10AFE0000020FDF7A9FD002843D00020FDF7BEFD9D
:10AFF00046F266612D4B2C4803241C700022BDE8EC
:10B000003840FCF7ABBB0020FDF796FD00283FD091
:10B010000020FDF7ABFD254B234805241C700022C2
:10B0200041F69A11BDE83840FCF798BB0020FDF7C7
:10B0300091FD1E4B07221A700024A9E60220FDF79D
:10B0400095FD184B00221A70A2E6FDF79BFD72E7F2
:10B05000FDF780FD43F2333195E7FDF793FD57E7A8
:10B06000FDF790FDEFE6FDF78DFD02E7FDF78AFDA8
:10B0700077E7FDF76FFD41F69A11BBE7FDF76AFD33
:10B0800043F2333141F69A13022D08BF194691E776
:10B09000FDF760FDBFE700247AE600BFDC35002045
:10B0A000E03500206D350020B0350020E835002067
:10B0B0007035002038B5244B244A1960830710608E
:10B0C00000F0010503D4CDB92C46204638BD204BF5
:10B0D00020480E240F2210211C701124DA7099715F
:10B0E0005C7240F266620421FBF7C4FF0446B8B10B
:10B0F00015B10120FDF7AAFD204638BD0120FDF75E
:10B10000A5FD154A15480021FCF716FB044600284A
:10B11000F2D1134A13480121BDE83840FCF70CBBBB
:10B12000FCF700F804460028E2D101460E4A0F4819
:10B13000FCF702FB0446002DDED00120FDF786FD62
:10B14000002CD9D1DDE700BFE4350020DC3500203C
:10B15000D035002000F502008DAA020028F502007B
:10B16000B5A9020020F502005DAA020024F5020044
:10B17000032811D8012A0BD0012919D00ED3022996
:10B180000AD10E4B00EB4000034400205A70704778
:10B1900001290AD00022EFE707207047074B00EB98
:10B1A0004000034400209A70704700F10E02D2B2B2
:10B1B00000EB400301490020CA547047D0350020FD
:10B1C000032813D808B5FDF73BFD800000F1A0432C
:10B1D0000020D3F8002722F44032C3F80027D3F828
:10B1E000002742F44032C3F8002708BD062070470C
:10B1F00010B50388102B07D0112B04D1254B1868EC
:10B200000138186030B110BD224C216881B1013184
:10B21000216010BD01220221FFF7AAFF38B30728E1
:10B2200025D01D4B1B68002BEDD0BDE81040184702
:10B2300001220846FFF79CFF38B1072805D0164BBE
:10B240001B6803B198472168E1E70722022101202A
:10B25000FFF78EFF08B10728F1D104220221002058
:10B26000FFF786FF0028EED00728E8D1EBE707229A
:10B2700002210120FFF77CFF08B10728D1D100216E
:10B2800008460A22FFF774FF0028BCD00728C8D15F
:10B2900010BD00BFF4350020F035002008B50020B7
:10B2A000FFF78EFF10B1062800D008BD0120FFF780
:10B2B00087FF0028F9D0062808BF002008BD00BF7E
:10B2C000184B10B5186031B101200C46FFF754FD42
:10B2D000F8B102232370144B186808B1002010BD88
:10B2E00001220221FFF744FF08B10728F7D1072206
:10B2F00002210120FFF73CFF08B10728EFD1002110
:10B3000008460A22FFF734FF0028E7D00728E5D0D7
:10B3100010BDFFF731FD08B92070DCE70B23237067
:10B32000D9E700BFF0350020F435002076DF704704
:10B330007ADF70477CDF70477FDF70478FDF7047B1
:10B34000B1DF704733DF7047704700BFFBF700BFC6
:10B3500010B50388103B82B00446462B2FD8DFE897
:10B3600003F042592E692E2E2E2E2E2E2E2E2E2EEC
:10B370002E2E2E242E2E2E2E2E2E2E2E2E2E2E2EF7
:10B380002E2E2E2E2E2E2E2E2E2E2E2E2E302E2EDB
:10B390002E2E2E2E2E2E2E2E2E2E2E2E2E2E2E2ECD
:10B3A0002E2E2E2E382E2E2E300002A9002321F80C
:10B3B000043D8088FFF7C2FF08B1FBF7C9FE02B069
:10B3C00010BD80881321FFF7B1FF0028F5D102B02E
:10B3D00010BD1F4A0023108819461A46FFF7B0FF18
:10B3E0000028ECD0E9E71B4B1B481C49C01AC008D9
:10B3F000000440F00300FBF7FFF80720FFF7C2FC52
:10B4000010BB134BA1881648198001F075FF002866
:10B41000D5D0D2E70F4B10481249C01AC00800041B
:10B4200040F00300FBF7E8F8094B4FF6FF721A8073
:10B4300002B010BD064A0023108885211A46FFF786
:10B440007BFF0028BBD0B8E7FBF782FED9E700BF3F
:10B45000BE2A0020A0FC0200E0FC020050F5020021
:10B46000783900205CF502000E4B4A881B889A420E
:10B4700000D070470A8840F677239A42F9D130B459
:10B48000094B0A488C880A4D0A49C01A033CC00877
:10B49000A4B20004234622462C8040F0030030BCB6
:10B4A000FBF7D8BABE2A0020A0FC0200E0FC020094
:10B4B000BC2A002070F5020008B5037803B108BD6E
:10B4C000054B3B211888FFF731FF0028F7D0BDE876
:10B4D0000840FBF73DBE00BFBE2A0020072808B584
:10B4E0001CD00A280ED0042800D008BD154B13210B
:10B4F0001888FFF71BFF30F00803F6D0BDE80840BE
:10B50000FBF726BE0020FFF73DFCB8B9FFF7C6FEEB
:10B5100088B9FFF717FF0028F0D108BD094B1A883A
:10B520004FF6FF739A42E0D1074801F0DDF930F0A1
:10B530000803E3D108BDFBF70BFEEAE7FBF708FEC3
:10B54000E4E700BFBE2A0020F4360020F0B50378FF
:10B55000012B83B002D006D3022B02D14068FBF747
:10B56000F7FD03B0F0BD194C194D20782844FCF7C5
:10B5700089FA22780132D2B21544227015F8013CC2
:10B580000A2B05D00D2B03D0124B1B889342E8D811
:10B59000012A12D9104F0E4E104DADF806203B88EF
:10B5A0000DF106023146284602F042F8082804D080
:10B5B000132806D0052800D028B90023237003B033
:10B5C000F0BD2278E9E7FBF7C3FDF6E7EC36002093
:10B5D000F8350020BC2A0020BE2A0020C02A002006
:10B5E000037803B17047F0B5042185B00546406883
:10B5F000FEF764FB18BB6A68144F002402AE115FAB
:10B60000384602F0E9FA6A68135F3355311902349B
:10B61000C3F30723082C4B70F1D104AA0C4B22F87A
:10B620000A4D1B880B48314602F002F830F008033F
:10B6300008D1094A13680133136005B0F0BDFBF768
:10B6400087FDD8E7FBF784FDF3E700BF0CF60200A7
:10B65000BE2A0020C02A0020F03600202DE9F0414B
:10B660000578FDB9838A06464BB3164F164BDFF8B3
:10B670005C80FF1AFF083F0447F001073369585DFB
:10B68000FCF72EFA044678B9B38A0135AB42F5D8F7
:10B69000013B3269D35C0D2B04D10A20FCF720FA60
:10B6A0001128FAD0BDE8F081112C024641463846F7
:10B6B000E4D0FBF74FF92046FBF74AFDE4E74FF0F3
:10B6C000FF33E6E7E0FC0200A0FC0200E0F5020028
:10B6D000FBF73EBD08B530B1032803D10220FFF7C8
:10B6E00051FB50B908BDFFF74DFB50B9FFF7D6FD30
:10B6F00068B9FFF727FE0028F4D0BDE80840FBF743
:10B7000027BDFBF725FDFFF7C9FD0028F1D0FBF7AA
:10B710001FFDEEE708B50949094801F093FC48B957
:10B72000F721074801F0A6FC00B908BDBDE80840B4
:10B73000FBF70EBDFBF70CFDF2E700BF69B402009A
:10B740005C39002010B584B0FDF734FB002831D1FE
:10B7500004A91A4B41F8083D194A1A4800230393DB
:10B76000FEF70EFB18BB184B184AD3F810351548D6
:10B770000021DBB2DA4000910123FEF78DFB114876
:10B78000FEF77CFBFEF78AFA04461148FEF75AF8EA
:10B7900050B90F4B0F4918782246FEF78FF808B1C1
:10B7A000FBF7D6FC04B010BDFBF7D2FCF1E7FBF7CA
:10B7B000CFFCD8E7FBF7CCFCCAE700BF09000006C6
:10B7C00049B302008CF5020000A0014000350C00D6
:10B7D0007439002040A1014008B5054B1878FEF7E8
:10B7E00093F800B908BDBDE80840FBF7B1BC00BF45
:10B7F0007439002000B5144B93E8070085B001AB05
:10B8000003C3124912481A70FEF78EF9C8B901A98C
:10B810000020FEF7D7F988B904210E48FEF74EFA4A
:10B8200048B904210C48FEF749FA08B1FBF790FC2F
:10B8300005B05DF804FBFBF78BFCF2E7FBF788FC37
:10B84000EAE7FBF785FCE2E72CF50200E1B5020030
:10B850006CF502004C3900205439002000B58A4DA7
:10B860008A4BB1B005AC01930FCD0FC495E803002E
:10B870004FF4807384E803000293854C049301A97C
:10B8800005A8844A03940723FCF782F8002840F0B7
:10B89000CB804FF400410020FAF74EFE002840F024
:10B8A000F080FAF7CFFDFBF7F3FE002840F0E680CA
:10B8B00079490320FFF7FEFB002840F0DC8005A952
:10B8C0000020FFF7FDFC002840F0D280FCF7A4FE2A
:10B8D000002840F0CA8001F0E1FE002840F0C2805C
:10B8E000002305A90120059301F0B6FF002840F0D0
:10B8F000B68005A802F08EF8002840F0AD80112334
:10B9000066488DF8043002F087F9644982B201A8D4
:10B91000FFF710FD002840F09C800822002105A8B8
:10B9200002F051F95E4B059305A84FF0C8730693DA
:10B93000FFF7FEFC002840F08980FFF7EBFE594B33
:10B940005948059305A901F0C5FC00287BD10422C4
:10B9500000210DEB020002F036F9544B54480193DC
:10B9600001A901F0F7FD00286AD1AC22002105A849
:10B9700002F029F90224002105224E488DF81440D6
:10B98000012340258DF8161044F250648DF81720DD
:10B990001990494A4948ADF8603005A98DF89030B2
:10B9A000CDE927542E9200F073FD002845D10121E6
:10B9B000424800F069FD1C22002105A802F003F9AD
:10B9C00000233F4A0593ADF822308DF824303D4BDB
:10B9D0004FF420354FF47024032105A8CDE9065417
:10B9E0008DF82010CDE90A2301F0E0F810BBFFF735
:10B9F000A9FEFFF7FFFEFFF7EFFE334802F0ECF879
:10BA0000324B33483349C01AC008000440F00300E9
:10BA1000FAF7F2FD0321294800F0BAFD38B9FBF727
:10BA20009BF8FCF70FFEFAE7FBF792FB31E7FBF719
:10BA30008FFBF4E7FBF78CFBD9E7FBF789FBB6E755
:10BA4000FBF786FB91E7FBF783FB80E7FBF780FBC7
:10BA500073E7FBF77DFB60E7FBF77AFB4FE7FBF74C
:10BA600077FB46E7FBF774FB3AE7FBF771FB32E73E
:10BA7000FBF76EFB2AE7FBF76BFB20E7FBF768FBA6
:10BA800016E7FBF765FB0CE738F502008439002068
:10BA9000843A00204DB50200DDB4020094F50200A6
:10BAA00010003C004DB30200783900205DB6020062
:10BAB000C02A0020B82A0020D5B60200F4360020A3
:10BAC000B9B40200D1B60200A0F50200A0FC020049
:10BAD000E0FC0200B4F502002DE9F84F4400DFF865
