:020000022000DC
:1060000000000120B5620200DD620200DF620200D2
:10601000E1620200E3620200E562020000000000AB
:10602000000000000000000000000000E762020025
:10603000E962020000000000EB620200ED62020073
:10604000698B0200EF620200AD940200EF62020071
:10605000EF620200EF620200658F0200EF62020051
:10606000EF620200EF620200EF620200EF620200E4
:10607000EF620200EF620200EF620200EF620200D4
:10608000EF620200B9720200EF620200EF620200EA
:1060900059730200EF62020035B40200EF620200A1
:1060A000EF620200EF620200EF620200EF620200A4
:1060B000EF620200EF62020000000000000000003A
:1060C000EF620200EF620200EF620200EF62020084
:1060D000EF620200EF620200EF62020000000000C7
:1060E00000000000000000000000000000000000B0
:1060F00000000000000000000000000000000000A0
:10610000000000000000000000000000000000008F
:10611000000000000000000000000000000000007F
:10612000000000000000000000000000000000006F
:10613000000000000000000000000000000000005F
:10614000000000000000000000000000000000004F
:10615000000000000000000000000000000000003F
:10616000000000000000000000000000000000002F
:10617000000000000000000000000000000000001F
:10618000000000000000000000000000000000000F
:1061900000000000000000000000000000000000FF
:1061A00000000000000000000000000000000000EF
:1061B00000000000000000000000000000000000DF
:1061C00000000000000000000000000000000000CF
:1061D00000000000000000000000000000000000BF
:1061E00000000000000000000000000000000000AF
:1061F000000000000000000000000000000000009F
:1062000010B5054C237833B9044B13B10448AFF3F0
:1062100000800123237010BDD02400200000000066
:10622000D0C4020008B5034B1BB103490348AFF3C8
:10623000008008BD00000000D4240020D0C402006B
:10624000154B002B08BF134B9D46A3F5803A002148
:106250008B460F461348144A121A05F0C8FA0F4B22
:10626000002B00D098470E4B002B00D09847002001
:10627000002104000D000D48002802D00C48AFF3A7
:10628000008005F065FA2000290003F00FFF05F0FB
:106290004BFA00BF000008000000012000000000D1
:1062A00000000000D0240020642E00200000000028
:1062B000000000000649074A074B9B1A03DD043B18
:1062C000C858D050FBDC02F001F9FFF7B9FF00001D
:1062D000B0C50200B8220020D0240020FEE7FEE76F
:1062E000FEE7FEE7FEE7FEE7FEE7FEE7FEE7FEE786
:1062F000F0B595B0002415460F4608461E4601F03D
:10630000BDFF384623460895082205A91A9D09961F
:106310000D950A948DF82C400C9402F009F89DF824
:1063200014308DF81140DDE9061003F00302012A54
:10633000CDE9020127D0022A04D0384601F0A2FF9D
:1063400015B0F0BDBDF81650C3F3C2038DF8103080
:10635000AD090826082D2C4628BF082433462246BE
:106360000EA9384601F0E4FF2D1B214608AB02AA16
:106370000EA8264400F03EFD002DEBD1384601F07A
:1063800081FF15B0F0BDBDF81460059DC6F38316FE
:10639000C3F3C204B2000EA9384608238DF810409A
:1063A000C5F3952501F0C4FF08AB324628460EA977
:1063B000009302AB00F078FC384601F063FF15B0A3
:1063C000F0BD00BF014B01221A707047302500203C
:1063D000704700BF00B583B0044B0093044A4023CC
:1063E000FFF786FF03B05DF804FB00BFF563020012
:1063F000F024002038B50E480E4D03780E4CEB5CAF
:106400000025D2B2257053B90C3003F09DFA58B96B
:106410000A4B1B7813B12378002BFCD038BD043015
:1064200003F0D6FC0028F3D000F0FEFEF0E700BF3A
:10643000B8220020602E002030250020EC2400200F
:1064400070B51348134A0378D35C88B0DBB90C30BD
:1064500003F014FA104D0FCD6C460FC495E80F00F1
:1064600008AD062645F8206D84E80F002946002275
:10647000074802F00BFB08B100F0D6FE074B0022E4
:106480001A7008B070BD043003F03AFCE2E700BFB8
:10649000B8220020602E002044B80200EC24002026
:1064A00070B50D4D0FCD88B06C460FC495E80F0048
:1064B00008AD062645F8206D84E80F002946074AF6
:1064C000074802F0E3FA08B100F0AEFE054B0122E6
:1064D0001A7008B070BD00BF44B80200C563020066
:1064E000B8220020EC24002008B5FFF7D9FF0421D2
:1064F000034800F08FFB034B01225A7108BD00BF17
:1065000098C50200CC220020F0B5324C85B004F5CD
:10651000836001F077FA04F2144001F073FAD4E9D1
:10652000013703EA0702D01C04EB800114F82000B5
:1065300010F0040044D003F1020C0E7806F00306BC
:10654000012E654635D0022E02F1030621D004EB60
:1065500086010028F1D104EB82020133D268019256
:106560003B4004EB830302F00302012ADE6829D0DA
:10657000022A23D1BDF806309B090333360C05EB04
:106580009305154801F04AFA00B16560304605B040
:10659000F0BD4B880CEB931307EA0302D11C03F107
:1065A000020C14F82100654604EB810100F00400A0
:1065B000CFE70B88C3F383136344EDE70026E0E7DE
:1065C0009D1CC8E7BDF80430C3F38313360C1D448B
:1065D000D7E700BF04260020182A00200B4B0C48E8
:1065E00010B50022FF21C3F818249960C3E90022E6
:1065F000C3F8142483F8202401F0FCFD044610B9EC
:10660000044801F009FF204610BD00BF0426002009
:1066100024C5020084B8020021B9124B03EBC0006C
:1066200000687047104A0F49521AD20815D030B48A
:106630000E4D2B88834212D0002303E035F823400F
:10664000844205D001339A42F8D1002030BC704713
:1066500001EBC300006830BC704710467047084625
:10666000F8E700BF38C5020098C50200CC2400201E
:10667000094B013903EBC00003290BD8DFE801F017
:10668000020806040220704740797047007970477D
:10669000042070470020704738C502002DE9F04300
:1066A00083B002AB002203F8012DDFF8DC9007462F
:1066B00018468846D9F8084001F00EF9D9E90132A8
:1066C000D9F80060134401339B1B012B58D809F201
:1066D0001C450121284601F07DF9FFF715FF014611
:1066E000284601F077F9D9E90132D9F800101344AE
:1066F00001335B1A012BECD90A4003320523023126
:106700009DF8070049F82230C9F8001001F00AF995
:1067100000211C4801F03CF980F31000731C234059
:1067200009EB830300043440033440EA1740D86087
:1067300019F8243067F3C50309F8243039F82430F8
:106740006FF3891329F8243059F8242068F39F2225
:106750001346012161F301036FF3820349F82420FA
:1067600009F8243099F820341BB906E000F00EF83F
:1067700018B1D9E900329A42F8D103B0BDE8F083EC
:106780003146B9E7202A0020042600202DE9F047F1
:10679000934C002384B0C4F81834BFF34F8FD4E96E
:1067A000015605EA0602D31C04EB830114F82330DA
:1067B000580719D527680B7803F00303012B43D042
:1067C000022B03D14B88023505EB931506EA05022F
:1067D000D4F81804D31C04EB830128B9AF4239D98B
:1067E00014F823305B07E6D404EB82026B1CD268FA
:1067F0000192334004EB830302F00302DB6802934F
:10680000022A05F1020700F08D80012A26D0D4F873
:1068100010543DB12B6828469B689847EB681D686B
:10682000002DF7D16F48704B7049C01AC0080004A2
:1068300040F00200FFF732FFD4E90030C01A18BF61
:10684000012004B0BDE8F0870B880235C3F3831341
:106850001D44BBE7676004B0BDE8F087BDF80420C5
:106860006348C2F38313062B28BF062363F3891200
:1068700002339900ADF8042001F0BEFC80460028E8
:10688000C5D001F0FBFC0023082201A9404601F01D
:106890001BFDBDF8043013F4707F00F09F806FF093
:1068A000010AAAEB050A082506EA070103312B466F
:1068B000042204EB8101404601F006FDBDF80430DE
:1068C00007F101090AEB0902C3F3831393424F4610
:1068D00005F10405E8D8D4F81834002B68D1D4F8B1
:1068E000105465B1EB685A7928464146002A5BD0BE
:1068F0002B681B689847EB681D68002DF2D1404655
:1069000001F0C0FC04A8002300F80D3D00F0E4FFF6
:10691000D4F818340BB9C4F804909DF8030001F0C2
:1069200001F889E7BDF8063031484FEA93194D4622
:10693000502D28BF502565F38F1305F10801ADF8E0
:10694000063001F059FC804600283FF460AF26EA8B
:10695000070A0AF1010A01F091FC4FEA8A0A0023B2
:10696000082201A9404601F0AFFC55452BD9EBB2F6
:10697000BAF1000F20D006EA0701A3EB0A030331A6
:1069800004EB8101DDB252460823404601F09CFC35
:106990002A460AF108031749404601F095FC09F11F
:1069A000030907EB990996E71D68002D9AD1A6E720
:1069B000404601F067FC3FE72A4608230D49404660
:1069C00001F082FCEBE706EA0701033104EB8101E9
:1069D0002A460823404601F077FCE0E7B9467AE70B
:1069E0000426002060C5020038C5020090B80200ED
:1069F00024C50200102600202DE9F04782B002AB2A
:106A0000002403F8014DDFF8ECA007461846914634
:106A10008846DAF8084000F05FFFDAE90132DAF878
:106A20000060134401339B1B022B5ED80AF21C4505
:106A30000121284600F0CEFFFFF766FD01462846FB
:106A400000F0C8FFDAE90132DAF80010134401332C
:106A50005B1A022BECD90A400332033145239DF81F
:106A600007004AF82230CAF8001000F05BFFB31CA0
:106A700023400AEB830300211D48C3F80C9000F06B
:106A800087FF80F31000731C23400AEB830300048C
:106A90003440033440EA1740D8601AF8243067F3D2
:106AA000C5030AF824303AF82430012161F3891330
:106AB0002AF824305AF8242068F39F22134661F301
:106AC00001036FF382034AF824200AF824309AF86D
:106AD00020341BB906E0FFF759FE18B1DAE900329D
:106AE0009A42F8D102B0BDE8F0873146B3E700BF63
:106AF000202A0020042600202DE9F04F83B002ADAB
:106B0000002405F8014D3B4C8046284693469A46A2
:106B10008946A56800F0E0FED4E9013227681344F5
:106B20000133DB1B032B63D804F21C4601213046E2
:106B300000F050FFFFF7E8FC0146304600F04AFF46
:106B4000D4E901322168134401335B1A032BEDD9D8
:106B50000A400332852344F8223004319DF80700AF
:106B6000216000F0DFFEBA1CFB1C2A402B4004EB26
:106B7000820204EB830300211F48C2F80CB0C3F863
:106B80000CA000F005FF80F310007B1C2B4004EBF1
:106B9000830300043D40033540EA1840D86014F8F0
:106BA000253068F3C50304F8253034F82530022277
:106BB00062F3891324F8253054F8252069F39F22C5
:106BC0001346012161F301036FF3820344F825208A
:106BD00004F8253094F820341BB906E0FFF7D6FD01
:106BE00018B1D4E900329A42F8D103B0BDE8F08F71
:106BF0003946ADE704260020202A0020044BD3E9C3
:106C000000239A4201D0FFF7C1BD0020704700BFAA
:106C10000426002030B4184DD5F8104400215CB192
:106C2000E3681A798A4204D116E0DB681A798A424D
:106C300012D01B68002BF8D1C3681971D5F8103435
:106C400093B1DA68C36812681A60D5F81034DB684B
:106C5000186030BC0846704701310A29DFD14FF077
:106C6000FF31084630BC7047C5F81004C268136095
:106C7000084630BC704700BF0426002038B5094BD9
:106C8000D3F81044012583F820544CB1E3685D71BA
:106C9000236820465B689847E3681C68002CF5D1A0
:106CA00038BD00BF042600202DE9F04784B01D4602
:106CB0000C9C002394F80C802373EB8881460E46CD
:106CC0001746002B40D1297A05290ED06B7AA88867
:106CD00073BB404B53F821A00021FFF79DFC5246A7
:106CE00003463D49204600F011FF062F09D8DFE892
:106CF00007F0046A4249525D33004946204600F0DD
:106D000005FF2B7A052B05D06B7A5BB933492046FA
:106D100000F0FCFE204600F0EDFE84F80C8004B08C
:106D2000BDE8F0872E4A2F49204600F0EFFEEDE740
:106D3000FFF79EFC2C4B2B4953F82020204600F0F7
:106D4000E5FE297AA888C4E7254A00922749284AFF
:106D5000204600F0DBFEB6E7D6E90410D6E90023B2
:106D60000390D6E902070291CDE900074946204683
:106D700000F0CCFEC5E74946D6E90023204600F0E6
:106D8000C5FEBEE7B168D6E900232046009149461A
:106D900000F0BCFEB5E7D6E90201D6E90023019177
:106DA00000904946204600F0B1FEAAE7D6E90371FB
:106DB000B068D6E900230291CDE900074946204694
:106DC00000F0A4FE9DE732684946204600F09EFE92
:106DD00097E700BF1CB902000CB9020018B9020005
:106DE00000B9020008B90200A8B80200E8B8020021
:106DF000E0B80200082900D970472DE9F04F1D4680
:106E0000904600232A7B2B7385B0B8F80630039296
:106E100007460E46002B78D198F80810052911D0A6
:106E200098F80930B8F80400002B60D13B4B53F8B8
:106E300021400021FFF7F0FB22460346384928464F
:106E400000F064FEDFF8F8B0DFF8F890002405E009
:106E50003A5D013400F05AFE082C09D0A64249469A
:106E60002846F5D85946013400F050FE082CF5D1DB
:106E70002C49DFF8D490DFF8D4B0284600F046FE65
:106E8000002411E017F804A004F086FC5044594691
:106E9000437813F0970F14BF52462E222846013430
:106EA00000F034FE082C08D0A64249462846E9D80E
:106EB000013400F02BFE082CF6D198F80830052B91
:106EC00002D098F8093063B91749284600F01EFE31
:106ED000284600F00FFE9DF80C302B7305B0BDE87E
:106EE000F08F124A1249284600F010FEECE7FFF737
:106EF000BFFB104B0E4953F82020284600F006FE39
:106F000098F80810B8F8040090E7084A00920A4977
:106F10000A4A284600F0FAFD7EE700BF1CB90200CD
:106F20000CB90200D8B8020018B9020000B902007A
:106F300008B90200A8B80200E8B80200E0B80200F0
:106F4000D4B80200CCB8020014B90200DCB80200C8
:106F5000434B1978002900F081802DE9F04F00247F
:106F600087B001258E4603E00134E4B2744560D257
:106F70003C4B27B21E6816F837C0ACF1200205FA68
:106F800002F9394ACCF12003D2E9000125FA03F3D2
:106F900049EA030905FA0CF800EA080201EA0903C4
:106FA000134306EBC70BDFD021EA09032E4920EA81
:106FB00008026046C1E9002301F0CAFF16F837C095
:106FC000ACF1200205FA02F201920199CCF1200302
:106FD000C6B225FA03F3ACF12002194306FA02F314
:106FE0000393224B0191D3E90023CDE9042305FA51
:106FF0000CF30093CCF12001039B26FA01F10B4323
:10700000039306FA0CF30293DDE90467DDE900233C
:1070100016401F4032463B46DDE90267BB4208BFCF
:10702000B24209D00E4B013493F800E0E4B274454B
:107030009ED307B0BDE8F08F9BF80110DBF8043059
:10704000A1F10101B1FA81F14909091AB1FA81F1FD
:107050004909002BE6D060469847E3E7704700BF38
:10706000C02A0020F82A0020F02A0020E82A002068
:107070002DE9F84F0646244800F0F4FBD8B9234F19
:107080000123A6F1200103FA01FBC6F12002D7E992
:10709000000123FA02F24BEA020B03FA06FA00EAB5
:1070A0000A0201EA0B03134307D020EA0A0421EA8B
:1070B0000B05C7E90045BDE8F88F304601F048FFF1
:1070C000134ED6E90089C8B148EA0A0349EA0B041D
:1070D0009846A146D7E900234BEA03050D4B0A4821
:1070E00019684AEA02044B464246C6E90023C7E94A
:1070F00000450022BDE8F84F00F05EBB28EA0A0810
:1071000029EA0B09E6E700BFC82A0020F02A002080
:10711000E82A0020C42A0020042A36D92DE9F041AB
:1071200082B00E460546144601F096FD002836D082
:107130001D491E4A1E4B0D601E481F491C601670DB
:1071400000230022741EC0E90023C1E90023E4B239
:10715000EEB105EBC404194F083D4FF000080326BB
:1071600001E0AC4213D0A37820788DF806803A462F
:1071700001A98DF804608DF8053001F077FD083C19
:107180000028EED002B0BDE8F081072070470C4A1D
:107190000C48002100F0FEFA02B0BDE8F08101F0D9
:1071A00015FD0028C4D0EDE7F82A0020C02A0020F1
:1071B000C42A0020E82A0020F02A00207170020072
:1071C000516F020088B9020070B5084D2B785BB191
:1071D000074E00243368012113F8340001F024FE27
:1071E0002B780134A342F5D8002070BDC02A0020BE
:1071F000F82A002070B5094D2B7853B1084E0024B1
:10720000336813F8340001F071FE2B780134A34287
:10721000F6D80448BDE8704000F024BBC02A002026
:10722000F82A0020C82A002000B585B0002303906A
:10723000194601AA44F20100CDE9013300F004F837
:1072400005B05DF804FB00BF10B572B6FFF716FD80
:10725000FFF7D4FC0028FBD1104B114C1149E41A64
:10726000E408240444F00100FFF718FA0E4B1B68F1
:10727000DB0700D500BE44F002000C49FFF70EFA10
:10728000BFF34F8F0A490B4BCA6802F4E062134305
:10729000CB60BFF34F8F00BFFDE700BF38C50200D2
:1072A00060C502008CB90200F0ED00E098B9020060
:1072B00000ED00E00400FA05F8B5204A204B002458
:1072C000C2F84041C2F84441C2F84841C2F84C41BA
:1072D000C2F80041C2F804411B6833B31949D2F81F
:1072E00004550A68AD1A1A6825F07F45AA42274658
:1072F0000DD8197CDE69AD1A144419B11F74D3E995
:10730000052090471EB133461A68AA42F1D90E49AA
:107310000E4A0B7812789A4208D00D490D4A41F86E
:1073200023404FF48013C2F80031F8BD531CDBB288
:10733000022B08BF00230B70EFE700BF00100140D5
:107340001C2C0020182C0020152C0020142C0020B0
:107350000C2C002000E100E02DE9F04F8C4A8D4913
:1073600013780978DFF85082994285B0D8F800A0E8
:1073700000F07B810133DBB2022B08BF002386487B
:107380001370864A076852F823107B1823F07F4356
:1073900000240360534626462046A446ABB11A6833
:1073A0008A4200F26581DC68C3F800C0891A104483
:1073B000DA6934B13D1825F07F45C3E90154DE6137
:1073C0001E4613460124002BE9D1002C40F07C819D
:1073D00001230093724B734FDFF8E09143F00103F8
:1073E000019355464FF0000B46B3D6E901C1344630
:1073F000F669694B6C481A68ACEB020323F07F43D3
:10740000834248D80B44236000220121C4E90122B1
:10741000E2612174002D5DD02A689A424DD228463F
:1074200003E00A689A424FD20846C1699B1A0029B4
:10743000F7D12360E161C461002ED6D17878397824
:10744000884264D00B4603EB43034C1CBA7807EB2D
:10745000C303E1B28A421A79397004BF002139703E
:10746000022A9C6844D0032A38D0012AE8D1227C21
:10747000002AE5D1D3F80CC0C4F804C01969A16092
:107480005869E06099F800009B69A3610028B0D0BA
:1074900062609446ADE7A2EB0C0222F07F428A4282
:1074A00002D28B1A2360AFE700230122C4E9003324
:1074B000A360E36122746DB12A68C8F80040D31A52
:1074C0002B60E56125468FE7D21A0A602360E161EF
:1074D000C461B1E7C8F80040254685E7002DAFD06C
:1074E00000232B74ED69002DFBD1C8F80050A5E7EF
:1074F0004DB1AC422B4603D1E4E094422FD0134669
:10750000DA69002AF9D10023237488429AD1BBF1A9
:10751000000F01D1554553D0002D56D1234E244A9A
:107520001F4C4FF480334FF400310127C2F8801014
:107530003C43C6F848334FF43C60C6F808337760E4
:10754000A047154BB7604FF43C601D60A047194B36
:107550001D70002389F8003005B0BDE8F08FA3420C
:1075600000F09180E0692168D861002800F08680F1
:107570002A4603680B440360AA424FF0000339789F
:10758000787823741CBF15464FF0010BBDE700BF90
:10759000142C0020152C0020182C00200C2C00206E
:1075A000B0B90200FC2A0020FEFF7F00001001405D
:1075B00000E100E0092C00201C2C0020082C0020F9
:1075C000009B002BC5D0002DA8D0434B434A1C681C
:1075D000D2F80465424FD5F800A03978331B23F068
:1075E0007F43DD1CB9B93F493F4B4FF48030C2F8AF
:1075F00044034FF00108C2F804034FF40030C1F80F
:10760000800143F001030860C2F800804FF43C6041
:10761000984787F80080AA452CBF04EB0A0363193A
:107620002E4923F07F43C1F84035D1F80425921B41
:107630009B1B22F07F4223F07F4303329A4288D97A
:10764000294BD1F80425C1F8402543F001034FF43C
:107650003C609847234B4FF40032C3F800210023CD
:1076600089F8003005B0BDE8F08F00260096B1E63D
:1076700074BB521A1A6001230093ABE600233978D9
:107680007878237441E71946EA69C8F8002092B96E
:10769000CDE90231114BDFF840C001209860019B19
:1076A00089F80000CCF800204FF43C609847DDE9F1
:1076B0000231D8F80020C8690968D86100287FF431
:1076C00058AF59E72946DFE7C8F800309A467FE609
:1076D000C8F800309A46CCE7182C00200010014072
:1076E000092C002000E100E0B0B902002DE9F843C8
:1076F0001F4D204E204FDFF898804FF480334FF419
:1077000000324FF001090024C6F8802047EA09073B
:10771000C5F848334FF43C60C5F80833C5F8049009
:10772000B847C5F808904FF43C60C8F80040B84727
:10773000124A134B13491C601470134B134A0C70FC
:107740000B2114701C8099704FF48012C023C6F86E
:10775000802186F814333260C5F8084586F8113365
:10776000D5F80435C8F800302046BDE8F88300BFDE
:107770000010014000E100E0B0B90200092C002037
:107780001C2C0020142C0020FC2A0020152C00208A
:10779000182C0020074B9B784BB132B128B10368FD
:1077A000187C20B959745A61704707207047082027
:1077B000704700BFFC2A00202DE9F047264CA37833
:1077C00082B0002B3CD000283AD004293CD9436930
:1077D000002B35D0814602A899F811300026012BE4
:1077E00000F8016D0CBF8846B04617468A4600F087
:1077F00073F86378A17822789DF807005D1CEDB2DC
:10780000A94208BF3546AA4222D003EB430304EB4A
:10781000C3030121114AC3F808901971D2F8042555
:107820006570C3E9032AC3E9058700F07BF80C4BB8
:107830004FF480123046C3F8002102B0BDE8F08753
:10784000082002B0BDE8F087072002B0BDE8F0874D
:1078500000F068F80420F0E7FC2A00200010014046
:1078600000E100E0F0B51A4CA37883B043B338B31D
:1078700043692BB3064602A8002500F8015D357464
:1078800000F02AF86278A77821789DF80700531C49
:10789000DBB29F4208BF2B46994214D002EB420252
:1078A00004EBC202022196601171637000F03AF895
:1078B000084B4FF480122846C3F8002103B0F0BDF6
:1078C000082003B0F0BD00F02DF80420F9E700BF58
:1078D000FC2A002000E100E070B4EFF3108472B6DF
:1078E0000D4B9A68AAB90D490D4E01259D60D1F83E
:1078F000805035401D60C1F88060D1F884505D60D3
:107900004FF0FF33C1F88430027004B962B670BC26
:10791000704701230370F8E7542E002000E100E0D7
:10792000FC06FFBD094B9A687AB170B910B4EFF349
:10793000108272B606491C680C605C684C609860E6
:1079400002B962B65DF8044B70477047542E0020B0
:1079500000E100E001F01F024B09012100EB830070
:10796000914000F01FB800BF01F01F020123490938
:10797000934000EB8100D94300F020B84B0901F09F
:107980001F0150F82300C84000F00100704700BFFD
:1079900050E8002F0B4640E8003C9CF0000FF7D168
:1079A0001046704750E8003F43EA010240E8002CCF
:1079B0009CF0000FF6D11046704700BF50E8003F22
:1079C00003EA010240E8002C9CF0000FF6D11046BB
:1079D000704700BF50E8003F03EB010240E8002C75
:1079E0009CF0000FF6D11046704700BF50E8003FF2
:1079F000A3EB010240E8002C9CF0000FF6D11046EA
:107A0000704700BF012350E8002F42EA030C40E812
:107A100000C191F0000FF6D160467047002350E896
:107A200000CF0CEA030240E8002191F0000FF6D1EC
:107A300060467047B8B130B4D0E90112521A0468F8
:107A4000D2B2531E2160DBB242B101680A685C1EEB
:107A5000551C0D601370E3B2FF2BF6D103680020B4
:107A6000187130BC70470E20704700BFF0B583B06E
:107A700002AB002503F8015D04461846FFF72CFF12
:107A8000D4E900311A688A4210D9511E1960216860
:107A9000A3680F6812F8015C0A79268AE068DB1B8C
:107AA000DBB29A4206FB050538BF0B719DF8070053
:107AB000FFF738FF284603B0F0BD00BF30B583B0F4
:107AC00002AB002203F8012D054618460C46FFF7CD
:107AD00003FF2A681368591C1160E9682A8A641A2E
:107AE000B4FBF2F41C709DF80700FFF71BFF03B016
:107AF00030BD00BF826842B110B5044643690168D9
:107B0000006998470023A36010BD70470EB400B50C
:107B100082B0039929B102AA04AB42F8043D00F0F7
:107B20008BF802B05DF804EB03B070472DE9F84F15
:107B300088469045174605461E46DDE90AB175D3CD
:107B400043464FF00109B3FBF7F39F4209F10109E6
:107B5000F9D9B14538BFB14611F0010AAA6802D17E
:107B6000BBF1000F43D1012402E0013E07FB04F406
:107B7000012EFAD8B8FBF4F18F42F7D92D4E05E06B
:107B8000B4FBF7F4A4B1B8FBF4F1AA68705C531C21
:107B9000AB602B689854D5E901329A4204FB1188F6
:107BA000EED32846FFF7A6FFB4FBF7F4002CEAD18A
:107BB000BAF1000F15D0BBF1000F12D0CB4510D990
:107BC0002024AB682A68591CA960D454D5E9013235
:107BD0009A420BF1FF3B06D2BBF1000F01D0CB451F
:107BE000EFD1BDE8F88F2846FFF784FFF4E78B0755
:107BF00017D42024CB45B6D92B68511CA9609C54BE
:107C0000D5E901329A420BF1FF3B05D2BBF1000FDF
:107C1000A9D0CB45F0D1A6E72846FFF76BFFAA68AD
:107C2000F4E7002E0CBF30242024E3E74FF00109D5
:107C30008FE700BFB8B90200002900F0F4812DE9F8
:107C4000F04F054685B092460C460B78DFF8A0B59C
:107C500001E0237893B1013483B1252B15D0AA68B4
:107C60002968501CA8608B54D5E901329A42F0D3A0
:107C70002846FFF73FFF2378002BECD12B7B002B0E
:107C800040F0148105B0BDE8F08F2146002711F8BF
:107C9000012B2D2A00F0E180302A00F0E2802B2A0F
:107CA00000F0D2802A2A00F0E080A2F13006F3B280
:107CB000092B03D9B8E1A3F130060146084606EBCB
:107CC000860310F8012BA2F13004092C02EB4303C8
:107CD000F1D92E2A00F0D5800023013101E011F8FE
:107CE000012B02F0FB0068280C46F8D0253A532AF5
:107CF000AFD801A151F822F0B97E0200537C0200F6
:107D0000537C0200537C0200537C0200537C02002F
:107D1000537C0200537C0200537C0200537C02001F
:107D2000537C0200537C0200537C0200537C02000F
:107D3000537C0200537C0200537C0200537C0200FF
:107D4000537C0200537C0200537C0200537C0200EF
:107D5000537C0200537C0200537C0200537C0200DF
:107D6000537C0200537C0200537C0200537C0200CF
:107D7000537C0200537C0200537C0200537C0200BF
:107D8000537C0200537C0200537C0200537C0200AF
:107D9000537C0200537C0200537C0200537C02009F
:107DA000537C0200537C0200537C0200537C02008F
:107DB000537C0200537C0200537C0200537C02007F
:107DC000537C0200D37E0200537C0200537C0200ED
:107DD000537C0200537C0200537C0200537C02005F
:107DE000537C0200537C0200537C0200537C02004F
:107DF000ED7E02000F7F0200537C0200537C0200E4
:107E0000537C0200537C02000F7F0200537C02006F
:107E1000537C0200537C0200537C0200537C02001E
:107E2000537C02005F7F0200537C0200537C0200FF
:107E3000D37F0200537C02000D800200537C0200BD
:107E4000537C0200D37E020047F004070C46214613
:107E500011F8012B2D2A7FF41FAF47F001070C46C4
:107E6000F5E747F002070C46F1E7DAF800301A1D93
:107E7000CAF8002062781E682E2A04F102007FF4FE
:107E80002BAF4A78A2F13003092B00F25081002376
:107E900003EB830302EB430310F8012FA2F130013F
:107EA0000929A3F13003F3D9014616E7284605B0A6
:107EB000BDE8F04FFFF71EBEAB682A68591CA960E9
:107EC0004FF02501D154D5E901329A42FFF4C1AEF9
:107ED000CEE6DAF80020111DCAF800101168284615
:107EE000CDE900671022FFF721FEB2E6DAF80020A4
:107EF000131DCAF80030AB6829681278581CA860B6
:107F0000CA54D5E901329A42FFF4A3AEB0E6DAF8DA
:107F10000020111DCAF80010D2F8008088EAE8722B
:107F2000A2EBE872092A4FF0010107DDAF48A0FB80
:107F30000202D208092A01F10101F7DC994238BF97
:107F40001946894607F00202002E71D12AB1002B92
:107F500000F04781FA0700F18D8000268AE0DAF808
:107F60000020131DCAF80030AB6829681768581C38
:107F70003022A860CA54D5E90123934280F02881B9
:107F80002A68581C7821A860D154D5E9012393426E
:107F900080F019810F2F03D93A4612090F2AFCD815
:107FA0004FF0805603E036093FF453AEAB682968C2
:107FB000B7FBF6F2581CA8601BF80200C854D5E9BC
:107FC0000131994206FB1277EDD32846FFF792FD67
:107FD000E9E7DAF800301A1DCAF80020D3F800806B
:107FE000FB077ED54746A7EB080917F8013B002B96
:107FF0005DD0AA682968501CA8608B54D5E901326D
:108000009A42F0D32846FFF775FDECE7DAF8002036
:10801000111DCAF8001011682846CDE900670A2230
:10802000FFF784FD15E6704708460026214650E616
:10803000B8F1000F01DB780700D5013E02B1CBB1EA
:10804000F90717D4002E88D0B14513D2202203930C
:10805000A9682B68481CA8605A54D5E90131994297
:1080600006F1FF365DD2002E00F0BD80B145EFD1A4
:10807000039B4E46B8F1000FC0F292807A070AD5F2
:10808000A9684A1CAA602A682B205054D5E901210E
:10809000914280F0928007F00302022A5FD0CDE97E
:1080A000006741460A222846FFF740FDD1E54E45CC
:1080B0007FF6CFAD202705E04E453FF4CAAD002E38
:1080C0003FF4C7ADAB682A68591CA960D754D5E9FD
:1080D00001329A4206F1FF36EED32846FFF70AFD39
:1080E000EAE7B8F1000F24D0404603F088FB0746CA
:1080F000BE4220D9FEB14FF0200902E0BE421AD0A4
:10810000CEB1AB682A68591CA96002F80390D5E982
:1081100001329A4206F1FF36F0D32846FFF7EAFC17
:10812000ECE728460292FFF7E5FC029A9BE701463E
:10813000D2E54746DCE708F1FF3818F8013F002B8D
:108140003FF487ADAA682968501CA8608B54D5E914
:1081500001329A42F1D32846FFF7CCFCEDE7002B21
:108160009DD1002E3BD0B14599D2029323464C4677
:108170009946AA682B68501C4FF03001A8609954AA
:10818000D5E901329A4206F1FF3605D22EB3B44248
:10819000EFD1029B4C4682E72846FFF7ABFCF5E7A0
:1081A000A9684A1CAA602A682D205054D5E90121EB
:1081B0009142C8F10008FFF46EAF28460293FFF722
:1081C00099FC029B67E72846FFF794FCAB68E1E661
:1081D0002846FFF78FFCAB68D2E6029B4C46002690
:1081E0005DE71E4646E7039BB7E600BFCDCCCCCC8F
:1081F000B8B90200FFF71EBC2DE9F041058ACE1C7C
:10820000043D2E440746B6FBF5F6FFF72FFC78B386
:10821000F6B24FF48073013E0446C5800760838048
:1082200027D08046002509E06379AE4203F10103BF
:108230006371C8F80000076080461AD03846FFF71F
:1082400015FC01350028EFD16679721E14D0234643
:10825000013082421B68FBD11F684EB100252368A4
:108260002146013538461C46FFF728FCAE42F6D1C0
:1082700000242046BDE8F0812768EFE704300121A3
:10828000FFF7A8BBF8B5012104460430FFF7AEFBA9
:10829000C0B200B1F8BD6679721E12D0234601301B
:1082A00082421B68FBD11F68002EF3D00025236893
:1082B0002146013538461C46FFF700FCAE42F6D198
:1082C000F8BD2768F2E700BF2DE9F843C788467973
:1082D00007FB06F6043E02EB030C0446664503F179
:1082E000040015468846B0FBF7F238BFF51A07FBC5
:1082F000120012B1013A2468FCD13E1AAE4228BFE6
:108300002E469DB14FF000090430AD1B204432468B
:1083100008EB090103F060FAAF42B14424683E461D
:108320004FF0000028BF2E46002DEDD1BDE8F883A8
:108330002DE9F843C7884679154607FB06F6043E43
:1083400005EB030C1A1D664504468846B2FBF7F0A0
:1083500038BFF51A07FB102110B101382468FCD191
:108360007E1AAE4228BF2E469DB14FF0000904315F
:108370002144AD1B324608EB090003F02DFAAF4251
:10838000B14424683E464FF0000128BF2E46002D20
:10839000EDD1BDE8F88300BF41DF7047064A074BC7
:1083A00010B5002414701C60BFF35F8F04490548AA
:1083B00000F040F8204610BD282C00202C2C002076
:1083C000C8B90200202C002000B583B002A8002309
:1083D00000F8013DFFF780FAF1EE103A23F09F0319
:1083E000E1EE103ABFF35F8F0A4B4022C3F88421BD
:1083F0009DF80700FFF796FA03F016F828B920BF9A
:1084000040BF20BF03B05DF804FBFFF7C5FF03B01A
:108410005DF804FB00E100E082680023936082685D
:108420001361826853618268D36082685360826896
:108430001360704701600B6843604A68934204BF51
:1084400000234360704700BF436843B102689168EE
:108450000B4443605268934204BF0023436070475B
:1084600030B4184DA5F59472AB1ADB1003EBD3733F
:108470005B1002EBC30152F83330984228BF0C4620
:1084800005D311E052F8333098420CD221468B1AB2
:10849000DB1003EBD3735B108A4202EBC304F1D30E
:1084A000094830BC70470D46984204D904F10802CF
:1084B000AA42D9D3F4E76068034B002808BF1846E6
:1084C000EFE700BF1CBB0200E0B9020030B4904BE4
:1084D0001B78062B20D08F4B1B68062B00F0858065
:1084E0008D4AD2F8883043F47003C2F88830BFF365
:1084F0004F8FBFF36F8F4FF01023D3F80022002A65
:10850000C0F28681D3F80432002BC0F28181834B04
:10851000834A1A6030BC7047824B1B681D07DAD152
:10852000814B1B6803F0F002302A00F09E8003F0BC
:10853000E003402B00F099807B4B1B6803F0F003B5
:10854000302B00F0B980784B1B6803F0F002302A22
:1085500056D003F0E003402B52D0734B1B6803F05E
:10856000F003302B00F0B6806F4B1B6803F0F00275
:10857000302A66D003F0E003402B62D06A4B1B68C0
:1085800003F0F003302B00F0B580674B1B6803F05D
:10859000F003302B79D0644B1B6803F0F003502BB1
:1085A00000F0E480604B1B6803F0F002302A37D003
:1085B00003F0E003402B33D05B4B1B6803F0F00269
:1085C000302A03D003F0E003402B84D14FF08043E6
:1085D000D3F80024D20744BF6FF00102C3F800248F
:1085E0004C4B1B68062B7FF47BAF504B1B68062B54
:1085F0007FF476AF4E4A136843F4806313606FE7ED
:108600004C4B434A1B6812784B49C3F34233062A4A
:108610000B6048D1434B1B6819077FF45CAF9CE7A4
:10862000464A3B4B12681B78454902F04F02062B25
:108630000A607FF450AF3B4B1B6819077FF44BAFC8
:10864000BAE74FF080430022C3F80C21C3F8102191
:10865000C3F838252E4B1B78062B7FF43CAF314BEB
:108660001B681B077FF437AF88E7364B284A1B6827
:1086700012783549C3F30423062A0B60EAD1294B4B
:108680001B681C077FF427AF56E7304C204A30495F
:1086900012783048304B0525256001250D600024F7
:1086A0003F2104601960062A7FF415AF1D4B1B683B
:1086B0001C077FF410AF6EE7154B284A1B7828493A
:1086C0001160062B7FF407AF164B1B6818077FF469
:1086D00002AF38E723490E4BCA681B7822F080723C
:1086E000062BCA607FF4F7AE0E4B1B681A077FF4A7
:1086F000F2AE39E7064B1C4A1B780321062B1160AA
:108700007FF4E9AE074B1B681D077FF4E4AE3CE73E
:10871000E00F00F03001001000ED00E0D422002056
:108720000090D003E40F00F0E80F00F034010010D7
:108730003C170040440200103C0500405802001065
:10874000E40E004024030010403501401056004064
:1087500088560040185600401456004074C0074028
:108760000DF0ADBAF0ED00E0A00500404FF08053F1
:10877000404AD3F80414C2F82015D3F80814C2F8FC
:108780002415D3F80C14C2F82815D3F81014C2F825
:108790002C15D3F81414C2F83015D3F81814C2F8F5
:1087A0003415D3F81C14C2F84015D3F82014C2F8BD
:1087B0004415D3F82414C2F84815D3F82814C2F885
:1087C0004C15D3F82C14C2F85015D3F83014C2F855
:1087D0005415D3F83414C2F86015D3F83814C2F81D
:1087E0006415D3F83C14C2F86815D3F84014224835
:1087F000C2F86C15D3F844140378C2F87015062B30
:108800007FF469AE1D4B1B6818077FF464AEC9E6A0
:108810001B4B0122C3F80425D3F80024002AFBD007
:108820004FF0102315221649C3F80022D1F8003466
:10883000002BFBD04FF010221521114BC2F804126F
:10884000D3F80024002AFBD000220D49C3F80425E8
:10885000D1F80034002BFBD0BFF34F8F09490A4BEE
:10886000CA6802F4E0621343CB60BFF34F8F00BFCE
:10887000FDE700BF00C00040E00F00F0E40F00F093
:1088800000E0014000ED00E00400FA05044B195C33
:108890004FF0A04201238B40C2F80C35704700BF57
:1088A00008BF0200044B195C4FF0A04201238B402B
:1088B000C2F80835704700BF08BF0200C20730B4D5
:1088C0001AD54FF0A0430322C3F844274FF40035D4
:1088D000C3F848274FF48024C3F84C274FF40021F5
:1088E000C3F850274FF48012C3F80855C3F8084561
:1088F000C3F80815C3F8082583070AD54FF0A0432D
:108900000C22C3F83427C3F83827C3F83C27C3F830
:10891000402730BC704700BF10B570B101280BD1A3
:108920000D4C2369A0703BB1D3E9002301202261E3
:1089300098472369002BF7D110BD074CA36801228B
:108940006270002BF8D0D3E900230020A260984782
:10895000A368002BF7D1EFE7302C002070B910B5D9
:10896000074CA368012262703BB1D3E900230020C9
:10897000A2609847A368002BF7D110BD704700BFD5
:10898000302C002030B5012883B01CD015D303282B
:1089900011D100F0C9F802A800231F4C00F8013DD6
:1089A000FEF79AFFE368013BE360E56865B39DF875
:1089B0000700FEF7B7FF03B030BD184B0122C3F824
:1089C000802003B030BD02A80023134C00F8013D05
:1089D000FEF782FF237853B1E3689DF80700013367
:1089E0000122E360A270FEF79DFF03B030BD0C488A
:1089F0006360A3602361E36000F088F802F014FD77
:108A000030B101232370E7E700F0A2F8A570CEE7AC
:108A100000F08AF8F5E700BF302C002000E100E00C
:108A20001989020030B585B00478094A094B4568B8
:108A30008DF80040047AC068039053F82130019506
:108A40008DF8084052F821106846984705B030BDAF
:108A5000442C0020482C002030B585B004784568AF
:108A60008DF80040D0E90240064A074B039053F8C6
:108A7000213001958DF8084052F82110684698473A
:108A800005B030BD442C0020482C0020F0B51A4B16
:108A900006781A4D0C6991F81DE045F82640074606
:108AA000174803F806E040F826200C4694460FCC01
:108AB00089B06D460FC594E80F0085E80F00049655
:108AC000BEF1000F0BD0BCF1000F0E4A694607F152
:108AD000040008BF002201F031F809B0F0BDBCF17C
:108AE000000F094A694607F10C0008BF002200F098
:108AF000F3FD09B0F0BD00BF602E0020442C002023
:108B0000482C0020258A0200598A0200054A137960
:108B10002BB90121106053711846117170478520DF
:108B2000704700BF4C2C0020084B1A68D20706D4AF
:108B30000122C02183F80013C3F880211A604FF08E
:108B400080430122C3F81825704700BF00E100E010
:108B5000044B01221A604FF08042D2F81834DB0334
:108B6000FBD470470C00004010B5154B1A6882B05A
:108B70007AB10021134A19601B68507900934FF0B5
:108B800080410123009CC1F8083310B9116853716A
:108B900088470D4B1A6882B100221A601B68019346
:108BA0004FF080420221074B0198C2F808131B685E
:108BB000012002B0BDE81040184702B010BD00BF50
:108BC000000100404C2C00200401004070B51E4CF8
:108BD00094F8585082B0A5BB4FF0FF3329460422C9
:108BE00004F15400C4E90033C4E90233C4E9043396
:108BF000C4E90633C4E90833C4E90A33C4E90C33D1
:108C0000C4E90E33C4E91033C4E91233236502F01A
:108C1000EEFD0E4B0E4A0F4E1560C02183F8061371
:108C20004021C3F8801119601368019301994FF036
:108C300000430122284684F85820C6F8043302B0C5
:108C400070BD082002B070BD542C002000E100E08F
:108C50007C61004000600040034B93F858000030F6
:108C600018BF0120704700BF542C0020F0B56C4B9A
:108C70001C1894F93050002D68DA8E78C6F340063F
:108C80009646002E5CD11D6A013500F0B58009249E
:108C90000C2553F8247001375BD004F1010C53F814
:108CA0002C70013700F0B380A71CAF4246D253F8B6
:108CB0002720013200F0AD8004F1030CAC453DD219
:108CC00053F82C70013700F0A28004F1040CAC457D
:108CD00034D253F82C70013700F0998004F1050C60
:108CE000AC452BD253F82C70013700F0908004F182
:108CF000060CAC4522D253F82C70013700F0878067
:108D000004F1070CAC4519D253F82C7001377ED012
:108D100004F1080CAC4511D253F82C70013776D011
:108D200004F1090CAC4509D253F82C7001376ED010
:108D30000A34AC4202D2DC6A013409D00420F0BD0E
:108D40001D68013567D001240825A2E70820F0BD81
:108D50000B241F1865B243F824E087F83050002E2A
:108D600051D08A78540714D4D6073BD44C784FF0AE
:108D7000A04600F5E072A40046F82240294EC4083F
:108D800000F0070C375D012202FA0CF23A4332552B
:108D90008A780C7812F0020209D1083D2B44104663
:108DA00093F8502042EA841483F85040F0BDAB00A1
:108DB00003F1804303F5C0430202D3F8101521F4F8
:108DC000473121F44071C3F810152404D3F810156D
:108DD00004F4403402F4F85222430A43C3F8102545
:108DE0000020F0BD820002F1A042D2F8004724F03A
:108DF0000204C2F80047C1E7082684F83060C3F8CF
:108E000020E0354634461C4484F84800A9E764460F
:108E10009FE73C469DE700251A6084F83050A0E7A4
:108E2000542C0020A82C002070B42E4D2E1883B096
:108E300096F93030072B1CDD2B4493F848309B0902
:108E4000032B41D0012B14BF4FF440314FF40031BC
:108E5000800000F1A040D0F8002722F44032C0F892
:108E60000027D0F800370B43C0F8003703B070BCC0
:108E70007047DAB2072AF9D8980000F1804000F56F
:108E8000C04003F14002D0F81045920092B244F085
:108E9000010402F18042C0F8104502F5C0420020F2
:108EA0000190019C10600029E0D096F9302055F81F
:108EB0002220002ADAD001220B4902FA03F3C1F87A
:108EC000043303B070BC70474FF0A043D3F81035A3
:108ED000C34013F0010F0CBF4FF400314FF4403189
:108EE000B6E700BF542C002000600040164B03443E
:108EF00093F93030072B18DCDAB2072A14D810B4F3
:108F00009A0002F1804202F5C042104CD2F81005DE
:108F1000012120F0010001FA03F3C2F81005C4F8A2
:108F200008335DF8044B70477047800000F1A040A3
:108F3000D0F8003723F44033C0F80037D0F80037BA
:108F4000C0F80037704700BF542C0020006000407C
:108F50004FF0A043D3F8103523FA00F000F00100E1
:108F6000704700BF2DE9F04186B00023A14A01936C
:108F70001668012E00F054811E469F4B1A68012A84
:108F800000F05D819D4B1A68012A00F06A819C4BBC
:108F90001A68012A00F077819A4B1A68012A00F0BA
:108FA0008481994B1A68012A00F09181974B1A68C5
:108FB000012A00F09E81964B1A68012A0CD0954B2D
:108FC0001B68012B00F0A58116F0FF0F15D1002EB4
:108FD00030DB06B0BDE8F0818F4AD2F804231706D3
:108FE000EDD500221A601A6804926033049A1B6857
:108FF000012B46F0800600F08C81884F002401256B
:10900000A30003F18043354203F5C0434FEA450511
:109010000BD0D3F8100557F82420D3F81015C0F35F
:109020000420C1F3014102B190470134082CE7D17B
:10903000002ECEDA00224FF0FF33CDE90223774C29
:10904000012602AF94F950305D1C2CD0DBB223F026
:10905000C00006AA4FEAD00C02EB0C0E03F0070288
:109060001EF80C1C06FA02F211421CD025189909B0
:1090700095F9303054F82330002B00F09881032903
:1090800000F098814FEA800C0CF1A04C1EF8145CA3
:10909000DCF800E71540CEF3014E40F05C81BEF1F4
:1090A000030F00F0DE81002594F95130581C2DD0BB
:1090B000DBB223F0C00006AA4FEAD00802EB080E8C
:1090C00003F007011EF80C2C06FA01FC12EA0C0F43
:1090D0001CD02218990992F9303054F82330002B13
:1090E00000F05B81032900F05B81820002F1A04265
:1090F0001EF8148CD2F800E718EA0C0FCEF3014EDC
:1091000040F03681BEF1030F00F0A68194F9523091
:10911000591C2DD0DBB223F0C00006AA4FEAD008BC
:1091200002EB080E03F007011EF80C2C06FA01FCF6
:1091300012EA0C0F1CD02218990992F9303054F819
:109140002330002B00F03C81032900F03C81820099
:1091500002F1A0421EF8148CD2F800E718EA0C0FB6
:10916000CEF3014E40F0E380BEF1030F00F06E81BC
:1091700094F953305A1C2DD0DBB223F0C00006AA5C
:109180004FEAD00802EB080E03F007011EF80C2C82
:1091900006FA01FC12EA0C0F1CD02218990992F968
:1091A000303054F82330002B00F0ED80032900F01C
:1091B000ED80820002F1A0421EF8148CD2F800E784
:1091C00018EA0C0FCEF3014E40F0BC80BEF1030F45
:1091D00000F00081002D3FF4FCAE4FF0A043019A57
:1091E000D3F8103593423FF4F4AE029A0193039200
:1091F00028E700BF006100400461004008610040B2
:109200000C61004010610040146100401861004092
:109210001C6100407C61004000600040542C002034
:109220009A49D1F8041311F0010170D0136013684A
:109230000493049B964B1A68012A7FF4A3AE934AC9
:10924000D2F8042397077FF59DAE00221A601B68B1
:109250000493049B8F4B1A68012A46F002067FF4A0
:1092600096AE8A4AD2F8042355077FF590AE0022C5
:109270001A601B680493049B874B1A68012A46F006
:1092800004067FF489AE814AD2F8042314077FF5DF
:1092900083AE00221A601B680493049B7F4B1A68FC
:1092A000012A46F008067FF47CAE784AD2F80423FF
:1092B000D0067FF576AE00221A601B680493049BEB
:1092C000774B1A68012A46F010067FF46FAE6F4A9A
:1092D000D2F8042391067FF569AE00221A601B685C
:1092E0000493049B6F4B1A68012A46F020067FF412
:1092F00062AE664AD2F8042352067FF55CAE0022C5
:109300001A601B680493049B46F0400653E60E4621
:1093100033E6654B00221A601B6805934FF0A043AB
:10932000059AD3F81035019346F000464CE6BEF19D
:10933000020F7FF41DAF032963D0002B3FF418AF59
:10934000984715E7BEF1020F7FF444AF032969D0B7
:10935000002B54D13EE7BEF1020F7FF4A4AE0329E7
:1093600000F091800025002B3FF49EAE98479BE6CD
:10937000BEF1020F7FF4CAAE032956D0002B3FF492
:10938000C5AE9847C2E603297FF424AF17F808203A
:1093900042EA0C0207F808200BE703297FF4B6AE77
:1093A00017F8082042EA0C0207F808209DE6032976
:1093B0007FF479AE17F80C50154307F80C5061E6AE
:1093C00003297FF4D5AE17F8082042EA0C0207F80B
:1093D0000820BCE60329BBD14FF4003ED2F800C7F9
:1093E0002CF4403CC2F800C7D2F800C701354CEA63
:1093F0000E0CEDB2C2F800C7002B3FF4EEAE98475A
:10940000E8E64FF4403ED2F800C72CF4403CC2F8E6
:1094100000C7D2F800C701354CEA0E0CEDB2C2F815
:1094200000C78AE74FF4403ED8E74FF4403ED2F8F9
:1094300000C72CF4403CC2F800C7D2F800C7013581
:109440004CEA0E0CEDB2C2F800C797E703297FF48F
:1094500074AF4FF4003ED6E703298FD14FF4003E9E
:10946000E5E703297FF47FAF4FF40035DCF80027F0
:1094700022F44032CCF80027DCF800272A43CCF84D
:10948000002701256FE74FF44035EFE7006000400B
:1094900004610040086100400C6100401061004020
:1094A00014610040186100407C610040014B1B6862
:1094B000184700BFB02C0020104B984201D000206C
:1094C000704730B583B002A8002300F8013D0D4677
:1094D000FEF702FA0A4B1C7934B19DF80700FEF73B
:1094E00021FA112003B030BD01229DF807001D6054
:1094F0001A71FEF717FA2046F4E700BF002000407B
:10950000B02C0020034B984203D1034B00221A6079
:109510001A71704700200040B02C002030B56C4A12
:10952000D2F8043399058BB066D5D2F82431002BDC
:1095300062D00023C2F82431D2F8243103934FF4CF
:109540000171644B0398C2F8081393F8291009B904
:10955000012151605E4902228DF81820D1F8802443
:10956000C1F880249869D96809920022CDE90710D2
:10957000C3E90622D3E9001406A8A047544AD2F84A
:109580001C31BBB1534B186A5969884269D35048A2
:109590000022C0F81C21D0F81C010190019849B1AB
:1095A00098688DF8182008915A610790D3E9001245
:1095B00006A89047464AD2F84431DBB10021454B1A
:1095C000C2F84411D2F8440193F829100090009891
:1095D00009B1012111609A6962B10022586AD96803
:1095E0009A610122CDE907108DF8182006A8D3E969
:1095F000001290470BB030BD354AD2F804335B07F8
:10960000BCD5D2F80831002BB8D0324B996900296B
:109610003CD00021C2F80811D2F808110491049935
:10962000D868596AD2F8182542545A6A99690132A1
:109630005A625A6A8A42A1D1DA691968002A2ED080
:10964000D8685D6A1C699A61079000220120DC607D
:10965000DA615A628DF8180008955B6806A8984789
:109660008CE793F8280000F0FF0400288FD1C2F89F
:109670001C41D2F81C11029102999C68186A196A5F
:10968000205C01311962C2F81C0593E7C2F8081189
:10969000D2F8080105900598D2F81825C9E793F883
:1096A000292012B90A4A01205060094A4FF401707A
:1096B000C2F80803586ADA6808900024012007926B
:1096C0008DF818005A689C6106A8904756E700BFBD
:1096D00000200040B82C00202DE9F041DFF89881EF
:1096E00007792C2606FB078682B096F82A30002BD5
:1096F00040F08F800D4604465C4900681646FFF72F
:10970000DBFE002840F081802B68591C0CD0012220
:109710004FF0A04102FA03F3C1F808352B6803F5B6
:10972000E073032241F823206B685A1C06D003F52E
:10973000E0734FF0A042002142F823102368AA6989
:10974000C3F82425297D6B7D22680B43C2F86C3554
:10975000D5E900122368C3F81425C3F80C152B7D36
:10976000012B5AD02C2303FB07F308EB03025660AE
:109770002A6948F80320002E34D022682B7F3C4D04
:109780000021C2F81C11D2F81C2100922268009E10
:10979000C2F84411D2F84411226801910199C2F82B
:1097A00004532168090B4AB25B01002ADBB256DB85
:1097B00002F1604202F5614282F800332268120B26
:1097C00042F3C40323F0604323F0030303F1604337
:1097D00003F5614302F01F02012101FA02F2C3F80E
:1097E00080211A602C23246803FB078300220425B0
:1097F0000121C4F8005583F82A10C3E9062283F832
:1098000029205A6102B0BDE8F081112002B0BDE804
:10981000F081082002B0BDE8F081AB68591C06D089
:1098200003F5E0734FF0A042002142F82310EB68EB
:109830005A1C0DD001224FF0A04102FA03F3C1F8E7
:109840000835EB6803F5E073032241F82320EB6849
:109850002268A968C2F80835C2F8101582E7054ADF
:1098600001F00F010A441376A8E700BF1D9502001E
:1098700080000200FCEC00E0B82C0020F8B52F4D71
:10988000047902682C2303FB045300215B68C2F8AF
:10989000001583B103682A4AC3F808230368294ED8
:1098A0001B0B5AB25209203203F01F03012101FAA7
:1098B00003F346F8223003684FF0FF32D3F80CC5AB
:1098C000D3F81475D3F80815D3F81065C3F8142528
:1098D000C3F80C2503689445C3F80825C3F8102580
:1098E00006D00CF5E07C4FF0A043022243F82C2078
:1098F0007B1C06D007F5E0774FF0A043022243F827
:109900002720721C06D006F5E0764FF0A043022215
:1099100043F826204B1C06D001F5E0714FF0A04320
:10992000022243F821200068FFF7ECFD2C2303FB03
:109930000454002384F82A306360F8BDB82C00205A
:109940008402020000E100E0F0B5314E05792C23DD
:1099500003FB056385B05C69002C53D11C629960E0
:1099600083F828405A610268C2F81C41D2F81C11E1
:10997000026802910121029F91600268D3F808C039
:10998000C2F81C41D2F81C1101910199D3F820E0D2
:10999000196A5F681CF80EE001311962C2F81CE513
:1099A00017B1204605B0F0BD1A6A5C69016894429F
:1099B00003D819E093F828203ABBD1F81C21002ADB
:1099C000F8D0C1F81C71D1F81C210392039AD3F886
:1099D00020E01A6A1CF80EE001321A62C1F81CE598
:1099E0001A6AA242E9D30168D1F81C31002BFBD0DE
:1099F0000123CB6000202C2303FB056500236B6152
:109A000005B0F0BD112005B0F0BD0F20F3E700BF99
:109A1000B82C0020F0B5474BD3F8242189B0002A98
:109A200054D00021C3F82411D3F824210292022239
:109A30008DF81020029AD3F880043F4AC3F88004BE
:109A40000790D3F83C05D3688DF81800C2E90611D9
:109A500005931168536804A89847364BD3F84421FE
:109A6000BAB10020344AC3F84401D3F844419169A3
:109A70000194019C69B1D3F83C458DF81840D36836
:109A8000906101240593116853688DF8104004A873
:109A90009847284BD3F82021B2B10021264AC3F8B9
:109AA0002011D3F8204150690094009C60B1D3F894
:109AB0004C0593688DF818008DF8101051610593CE
:109AC00004A8D2E90013984709B0F0BDD3F81011EB
:109AD0000029C2D0C3F81021D3F810111648039101
:109AE00003998169D3F83C458C42B6D1C569C768F2
:109AF000D0E90016E4B295B1D3F800C285612CF02C
:109B00002005C261C3F800520369C36001228DF8C9
:109B1000184005978DF8102004A8B0479DE7012351
:109B200085618DF8184005978DF8103004A8B0476E
:109B300093E700BF00200040E42C00202DE9F04313
:109B400007796B4E4FEAC70808EB070306EB830360
:109B500085B093F82030002B40F09E800D460446DF
:109B6000644900689146FFF7A7FC002840F0908008
:109B70002B68591C0CD001224FF0A04102FA03F3CC
:109B8000C1F808352B6803F5E073032241F8232060
:109B90006B685A1C06D003F5E0734FF0A042002119
:109BA00042F823102368AA69C3F82425297D6A7D19
:109BB00023680A43C3F86C25D5E900312268C2F84E
:109BC0000C35C2F814152B7D012B69D008EB070268
:109BD0009200B318C3F804902B69B350B9F1000F89
:109BE00045D021682B7F444D0022C1F81021D1F8C7
:109BF000101100912168DDF800C0C1F82021D1F8D2
:109C0000201101912168DDF804C0C1F82421D1F8A8
:109C1000241102912168DDF808C0C1F84421D1F86F
:109C20004411226803910399C2F804532168090B77
:109C30004AB25B01002ADBB254DB02F1604202F55A
:109C4000614282F800332268120B42F3C40323F00E
:109C5000604323F0030303F1604303F5614302F023
:109C60001F02012101FA02F2C3F880211A60474461
:109C7000226806EB870600230124082186F820408D
:109C8000C2F80015C6E90633736105B0BDE8F0837C
:109C9000112005B0BDE8F083082005B0BDE8F083D1
:109CA000AB68591C06D003F5E0734FF0A0420021C9
:109CB00042F82310EB685A1C0DD001224FF0A0414E
:109CC00002FA03F3C1F80835EB6803F5E0730322E9
:109CD00041F82320EB682268A968C2F80835C2F869
:109CE000101573E7054A01F00F010A441376AAE73D
:109CF000E42C0020159A020010030200FCEC00E0A6
:109D0000F8B506792F4C0268F500AB1904EB830314
:109D100000215B68C2F8001583B103682A4AC3F8C2
:109D200008230368294F1B0B5AB25209203203F053
:109D30001F03012101FA03F347F8223003684FF0B3
:109D4000FF32D3F80CE5D3F814C5D3F80815D3F8CF
:109D50001075C3F80C25C3F8142503689645C3F89D
:109D60000825C3F8102506D00EF5E07E4FF0A0437D
:109D7000022243F82E20BCF1FF3F06D00CF5E07C18
:109D80004FF0A043022243F82C207A1C06D007F59E
:109D9000E0774FF0A043022243F827204B1C06D067
:109DA00001F5E0714FF0A043022243F82120354431
:109DB00004EB85040068FFF7A5FB002384F820303E
:109DC0006360F8BDE42C00201003020000E100E015
:109DD00001F06043B3F1005F2CD1F0B50679234F59
:109DE0004FEAC60C0CEB060407EB840483B06369EE
:109DF00013BBA16062610568C5F82031D5F820E188
:109E00000568CDF804E0DDF804E0C5F85831D5F870
:109E100058E10568CDF800E0DDF800E0C5F844152C
:109E2000C5F8482502680121916062683AB1184678
:109E300003B0F0BD10207047112003B0F0BD0368DF
:109E400000E08AB9D3F82011D3F858210029F8D0BE
:109E5000002A14BF0F2000200CEB060307EB83033E
:109E600000225A6103B0F0BD0F20F5E7E42C00207A
:109E700072DF704773DF704776DF70477ADF7047B5
:109E80007CDF70477FDF70478FDF7047B1DF70473F
:109E9000FDF7CAB908B5037803B108BD054B3B21EE
:109EA0001888FFF7E9FF0028F7D0BDE80840FDF764
:109EB000BBB900BFF22200200D2820D1114B12485F
:109EC000C01AC008000410B540F003000C460F494A
:109ED000FCF7E4FB0E4B0F491888224601F0F8F915
:109EE00030F008020DD043F20202904209D043F252
:109EF0000142904205D0BDE81040FDF795B9FDF74D
:109F000093B910BD38C5020060C5020054BF0200FD
:109F1000F22200205C2D002010B50C4B0C4CE41AF2
:109F2000E408240444F0030402203AB9FEF7BAFC22
:109F300020460849BDE81040FCF7B0BBFEF7A6FC80
:109F400020460549BDE81040FCF7A8BB38C5020013
:109F500060C5020084BF020070BF0200FDF764B953
:109F600010B50388103B82B00446462B46D8DFE884
:109F700003F06524458145454545454545454545ED
:109F80004545455145454545454545454545454575
:109F9000454545454545454545454545454745456F
:109FA0004545454545454545454545454545454561
:109FB000454545455B4545454700354B35483649A0
:109FC000C01AC008000440F00300FCF767FB012042
:109FD000FEF768FC314B4FF6FF721A80FDF70AF965
:109FE00008B1FDF721F92E4B01211878FFF742FF48
:109FF00008B1FDF719F90020FEF748FC02B010BDCA
:10A0000080881321FFF738FF0028F7D0FDF70CF9FF
:10A0100002B010BD02A9002321F8043D8088FFF79B
:10A0200033FF0028EAD0F1E71C4A002310881946C4
:10A030001A46FFF72BFF0028E0D0E7E7144B15483E
:10A040001849C01AC008000440F00300FCF726FBC2
:10A050000120FEF71BFC0020FEF724FC0F4BA1881B
:10A060001148198001F02CF870B9FDF7ADF80028FF
:10A07000C4D0CBE7094A0023108885211A46FFF790
:10A0800001FF0028BAD0C1E7FDF7CEF8EDE700BF29
:10A0900038C5020060C5020044BF0200F222002061
:10A0A000F022002038BF0200742D002080B54FF44C
:10A0B0000041A6B00020FCF791FA08B1FDF7B4F812
:10A0C000FCF712FA0120FEF7F9FBFDF70FFB08B1D0
:10A0D000FDF7AAF840F2666201217048FDF71CF80E
:10A0E00008B1FDF7A1F8FEF759F908B1FDF79CF8A2
:10A0F00001F010F908B1FDF797F826AC002344F8F9
:10A100003C3D0120214601F0DDF908B1FDF78CF856
:10A11000204601F093FA08B1FDF786F826AD112329
:10A1200005F8783D5E4801F06AFB5D4982B2284639
:10A13000FFF7A6FE08B1FDF777F8082200212046B8
:10A1400001F055FB574B179320464FF0C8731893F7
:10A15000FFF794FE08B1FDF767F80021524800F0C0
:10A1600063FE08B1FDF760F80022504B504808929A
:10A170002146179300F092FF08B1FDF755F84D4BBB
:10A180004D480893294601F041F808B1FDF74CF815
:10A19000494B4A4E9B7C8DF806303C2241F22353BA
:10A1A00000212846ADF8043001F021FB02210623EE
:10A1B00001273C228DF82010204600218DF8233005
:10A1C0008DF8227001F013FB324601AB284652F89D
:10A1D000041BADF86C701C9300F0E2F808B1FDF7B9
:10A1E00023F8B168364A204600F0DAF808B1FDF7E6
:10A1F0001BF81822002102A801F0F9FA012000231F
:10A200004FF4807640258DF8080002AA2B492D488E
:10A21000ADF814300393ADF81C600495FFF728FEE9
:10A2200008B1FDF701F81C220021204601F0DFFAF9
:10A230000023254A1793ADF86A308DF86C30234B14
:10A2400020464FF420254FF420340321CDE9185443
:10A250008DF86810CDE91C2300F0D2FB08B1FCF7A3
:10A26000E3FF1B4B1B481C49C01AC008000440F008
:10A270000300FCF713FA134B01211878FFF7FAFDDE
:10A2800008B1FCF7D1FF0020FEF700FBFCF7B6FC9D
:10A290000028FBD1FEF798F8F8E700BFD82200208D
:10A2A00098BF02005000A000482D0020919E02009F
:10A2B000742D0020199F02005C2D0020E022002058
:10A2C000EC220020F0220020959E02005D9F0200FB
:10A2D00038C5020060C50200A8BF02006DDF7047EC
:10A2E00079DF70477DDF704764DF70472DE9F04FFD
:10A2F00083B004880C9EBDF83490B6F800A0002C02
:10A3000039D09846002317468B4605461C4603E085
:10A310002A880134A24224DD6A6852F824000190A0
:10A3200000220DF1030101A8FFF7DEFF20BB9DF81D
:10A330000320BA42ECD13288B91803B389452BDB2C
:10A3400042440DF1030101A80123FFF7CDFF98B9A5
:10A3500031889DF803200A4432802A880134A242C1
:10A36000DADC43B13388013BA3EB0A039BB2FF2B3A
:10A3700012D808F80A30002003B0BDE8F08F02318F
:10A380000132894592B207DB328008F802B0328888
:10A39000013292B23280D3E70C2003B0BDE8F08FD7
:10A3A0002DE9F04700231788138090F82D3086B0F0
:10A3B000144605460E46002B40F0FB80AA78002A82
:10A3C00040F0FD80EA78A2B1D91CB94200F2F380D6
:10A3D0000221F154238801339BB201212380F154DF
:10A3E00023880B449BB22380F25423880B449BB2F6
:10A3F00023806A68AAB1D91CB94200F2DC8002212C
:10A4000092F90020F154238801339BB20A21238062
:10A41000F154238801339BB22380F2542388013303
:10A4200023802B89002B40F01B812B8A002B40F0CE
:10A430002F812B8B002B40F043812B6A002B44D0C3
:10A440002288911DB94200F2B6801988052940F290
:10A4500003816FF4486801EB080080B24FF27D3C45
:10A46000604540F2F9805888052840F2F5806FF485
:10A47000486E86441FFA8EFEE64540F2ED804FF6A8
:10A48000FF7C614504D0604502D0814200F2E48047
:10A490000521B1542288013292B212212280B15496
:10A4A0002288013292B222801988B1543244090ABA
:10A4B00051702288023292B222805B88B3543244B7
:10A4C0001B0A53702388023323806B6A002B2FD022
:10A4D0009988B4F800C0881C0CF102020244BA4208
:10A4E00069D8FE2867D8033106F80C10228801329B
:10A4F00092B2FF212280B1542288013292B222808E
:10A500001988B1543244090A51702088023080B24F
:10A5100020809A8862B199680393002900F09C809A
:10A52000304401F059F9039B9A882388134423800F
:10A5300095F82C30002B40F08A80287800283BD0FA
:10A540002B88012B00F08880228802F1020CBC4588
:10A5500031D8012804D16B78023313449F422AD3A7
:10A56000BB1E9B1A06A99BB221F8083D06EB0C0006
:10A57000FFF7B8FE00BB2978BDF81020022900F0D3
:10A58000048168789042C0F0FB809342C0F0F8806C
:10A590000921FE2A0FD82388501CF0542388013348
:10A5A0009BB22380F154238801331A442280002077
:10A5B00002E0082F23D80C2006B0BDE8F087043352
:10A5C000BB42F8D804A8FFF78BFE0028F4D12388FB
:10A5D000BDF810200321F154238801339BB21921C7
:10A5E0002380F154238801339BB2F1182380F25465
:10A5F000120A4A70238802339BB22380E2E604A841
:10A60000FFF76CFE0028D7D113880822CA5423888C
:10A6100001339BB21B222380CA542088013080B2B0
:10A620002080062208440DF1110101F0D5F823889D
:10A630009DF8102006339BB212F0FE0218BF0122D3
:10A640002380F254238801339BB22380B6E6D5F8E9
:10A650002880B8F1000F4CD1072006B0BDE8F08784
:10A6600005F108080222CDE900474046114633466D
:10A67000FFF73CFE00289FD1CDE900474046334616
:10A6800010220621FFF732FE00283FF4CEAE93E7FA
:10A6900005F11008CDE90047404633460222032168
:10A6A000FFF724FE002887D1CDE900474046334616
:10A6B00010220721FFF71AFE00283FF4BAAE7BE70D
:10A6C00005F11808CDE9004740463346022214211F
:10A6D000FFF70CFE00287FF46FAFCDE9004740463E
:10A6E000334610221521FFF701FE00283FF4A5AEE6
:10A6F00062E7B8F804200232FE2A3FF65CAF2388F6
:10A700004FF000094FF0160A0132F254238801334A
:10A710009BB2238006F803A0238801339BB22380D9
:10A72000B8F80020F2543344120A5A7023880233D6
:10A730009BB22380B8F80410F0180A4661B1D8F82B
:10A7400008301946002B87D001F046F8B8F80420ED
:10A75000238813449BB2238009F1010995F82C202A
:10A760005FFA89F94A4509EB49087FF6E6AEAA6A1D
:10A7700002EB8808B8F804200232FE2AC4D91AE78E
:10A78000012906D01A46082103E79342BFF400AF1F
:10A79000F8E78342F6D302460821FAE675DF7047F0
:10A7A00076DF70477ADF70477BDF704730B51D4B2F
:10A7B0001A8884B2A24283B001D003B030BD1A4DD2
:10A7C000187A297B88420FD32A7C00211972E2B9BA
:10A7D0006B69002BF1D00022ADF806408DF8042003
:10A7E00001A8984703B030BD104603F10A01FFF7F6
:10A7F000D5FF28B11128E0D0AB69002BF1D1DCE7FF
:10A800001A7A01321A7203B030BD3B212046FFF79D
:10A81000C7FF30F00803DBD0AB69002BD8D09847D6
:10A82000D6E700BF9C2D0020802D0020F0B50288C7
:10A83000112A83B0034649D036D9122A08D0502AAB
:10A8400004D16C4DC188EA89914251D003B0F0BD6A
:10A85000694C828821889142F8D1E1896589B1F5F6
:10A86000FA7F24BF6FF4F9700E18588938BF00269C
:10A8700085424FD8A58985424CD39B89B34249D3A1
:10A8800001F2F311994245D35A4B5B694FF4807141
:10A890002181002BDAD00121ADF806208DF80410BB
:10A8A00001A8984703B0F0BD102ACFD1C27B012A7E
:10A8B000CCD1514C21884FF6FF7291423CD04D4B88
:10A8C0009B69002BC2D004209847BFE74A4C82887E
:10A8D00023889A42BAD16068FCF7C4FF18B1454B8F
:10A8E0009B6903B198474FF6FF73238003B0F0BD17
:10A8F000028A022AAAD1404C86882788B742A5D16D
:10A90000123000F04FF9002856D16068FCF7AAFF1A
:10A9100070B99BE7374D267A6068D5E90131002E82
:10A9200008BF194600236372FCF746FF00288DD04C
:10A93000AB69002BB5D189E7304D8288228003CDE9
:10A94000C4F80E10E689C4F80A00B6F5FA7F28BFED
:10A950006FF4F9754FF00001588AB4F80AC02172FB
:10A9600028BF7119234D8445EF8919D8B4F80CC05C
:10A97000844515D39B8A8B4212D306F2F3169E426E
:10A980000ED301216172002F7FF460AF6B69002B41
:10A990003FF45CAF8DF80410ADF8062001A880E705
:10A9A00000236372002F7FF451AF60686968FCF781
:10A9B00003FF0028BCD149E7637A63B9D5E90131C7
:10A9C000267A60683A46002E08BF1946FCF7F4FE66
:10A9D0000028ADD13AE76B6900222272002B3FF4C8
:10A9E00035AF0122ADF806608DF8042001A8984724
:10A9F0002CE700BF802D00209C2D0020B02D0020D2
:10AA000000282FD0F8B5054606460FCD164F3C4618
:10AA10000FC4844695E80700144B3B6084E80700A8
:10AA2000BCF1000F18D06046FFF7BCFE98B9326841
:10AA30001068516803C30E4B0E490F4A18464FF673
:10AA4000FF7440F8041F1C800021FCF7A3FE0028BF
:10AA500014BF03200020F8BD1846FFF7A5FE00280C
:10AA6000E9D0F8BD0E207047802D0020B02D0020C9
:10AA70009C2D0020B82D0020ADA702002DE9F04745
:10AA80000388B0F80490112B98B059D01A2B804647
:10AA900047D0102B02D018B0BDE8F087394A936830
:10AAA00018A8DB4340F8603D5168FCF787FF009B26
:10AAB0000193019B63B300273C46214601A8FCF7A4
:10AAC0005DFF28B118AB03EB4703013723F8284C8F
:10AAD0000134142CF1D10D970DAE0FCE02AC0FC482
:10AAE0000FCE0FC496E8070084E8070087B10DF188
:10AAF0000A0A254E0AEB47073AF8025F234C204624
:10AB000029460434FCF730FFA642F8D1BA45F3D108
:10AB1000B9F1130F1BD90420FCF786FB18B0BDE870
:10AB2000F087047A1A482409012C494620D9FCF7F9
:10AB300011FF022C494617481ED0FCF70BFFAAE76D
:10AB400049461548FCF710FF18B0BDE8F0874946A4
:10AB50001148FCF7FFFE49460C48FCF7FBFE98F84D
:10AB60000F30012B97D049460C48FCF7F3FE92E7D3
:10AB7000FCF7FAFE07484946FCF7F6FE18B0BDE8B8
:10AB8000F08700BFD82D0020502E0020DC2D0020A3
:10AB9000E82D0020EC2D0020E02D0020E42D0020E9
:10ABA000AADF7047007800F001007047F0B58B789D
:10ABB00091B0002B0C460988ADF80C1008BF01239A
:10ABC000054616466846032200218DF80E3000F037
:10ABD0000EFE637C0022013B8DF80020042B09D877
:10ABE000DFE813F00500D300D700DB00CF0011230E
:10ABF0008DF80030A37C0022013B8DF80120042B4E
:10AC000009D8DFE813F00500D200D600BA00CE0064
:10AC100011238DF801309DF80230E77B227D207CE6
:10AC2000217B67F3C303002A60F3041314BF0222DD
:10AC3000012261F3000362F3420309A81C220021F0
:10AC40008DF8023000F0D3FD637B13F0300F73D129
:10AC5000627BA37B8DF824200021142204A88DF8A8
:10AC6000253000F0C4FDA368A288CDF814D003A954
:10AC70000491ADF81C201BB1E2880893ADF81820B0
:10AC8000A369002B36D001AF03220021384600F023
:10AC9000AEFDA2691388ADF82C305388ADF82E3084
:10ACA00051680D97137B0A91013B00218DF8041028
:10ACB000042B2DD8DFE803F0299D8D9199001123F5
:10ACC0008DF80530917A9DF8063061F3C3038DF855
:10ACD0000630D17A61F304138DF80630117A927B35
:10ACE000002A61F3000314BF0222012262F342032F
:10ACF0008DF80630E36903B10C93334604AA09A921
:10AD00002846FFF74DFF11B0F0BD11238DF8043038
:10AD1000537B0021013B8DF80510042BD2D801A1F3
:10AD200051F823F0BFAC0200C3AD0200CBAD02006E
:10AD3000BBAD0200E3AD0200032202A8002100F037
:10AD400056FDE37C0022013B8DF80920042B07D837
:10AD5000DFE803F0035F5B57530011238DF80930E0
:10AD60009DF80A3002AA0E92012262F342031122D8
:10AD70008DF80A308DF808206AE712238DF801302B
:10AD800049E722238DF8003034E721238DF8003085
:10AD900030E731238DF800302CE712238DF8003096
:10ADA00028E722238DF8013035E721238DF8013083
:10ADB00031E731238DF801302DE712238DF805306E
:10ADC00080E721238DF805307CE731238DF80530AD
:10ADD00078E731238DF804309AE712238DF8043098
:10ADE00096E722238DF805306CE722238DF8043096
:10ADF0008EE721238DF804308AE722238DF809306D
:10AE0000AEE712238DF80930AAE731238DF8093017
:10AE1000A6E721238DF80930A2E700BF90DF704735
:10AE2000A5DF7047B5DF704708B90E20704730B412
:10AE300003464FF0171200201B2541F61B34196101
:10AE40001A60C3F806201D719872D8729C8130BCBC
:10AE5000704700BF70B5858884B01DBB0388232B65
:10AE60000C4621D06FD93A2B54D0552B00F0B1802D
:10AE7000242B00F09C80A37AA3B1E1880020FFF787
:10AE8000CFFF00286DD011280CD0FDF7E9FA7A4ADF
:10AE90007A4B7B499B1ADB081B04024643F00100F6
:10AEA000FBF7AAFD04B070BD037A0A7B03959342B9
:10AEB00028BF134602A96A4628460095ADF8083017
:10AEC000ADF80A30ADF80450FFF7A8FF0028D2D043
:10AED000694B6A4EF61AF608FDF7C2FA360446F0D8
:10AEE000010603462A4630466649FBF705FEBDF8D3
:10AEF0000020BDF8023002B91BB163493046FBF7B0
:10AF0000FBFDBDF80420002AB5D030465F49FBF7B1
:10AF100073FDB0E74389C98822698B4228BF0B467D
:10AF2000172B38BF172323814AB1E17A39B140F694
:10AF300077210291ADF80C3002A9204690470023FA
:10AF4000E372A372AEE7102B0FD0112B93D14FF009
:10AF5000171241F61B338D72CD72C1F806208B811A
:10AF6000A0E70122A072E2729CE70B790B73C27B0F
:10AF7000012A52D0022A4DD0C98822898A425DD343
:10AF8000627B9A42BFF477AF00259BB228466A469F
:10AF900002A9ADF80830ADF80A3003950095ADF878
:10AFA0000450FFF73BFF00283FF465AF90E70B69C3
:10AFB000027A4A73002B3FF45EAF4DF67A21ADF86A
:10AFC0000C5002918DF80C2002A920469847A37AD4
:10AFD00052E7C388C988A572172B38BF17238B4245
:10AFE00028BF0B4628462381FFF71CFFC0B9E37A30
:10AFF000002B7FF440AF2369002B3FF43CAF40F6B9
:10B00000772122890291ADF80C2002A920469847A9
:10B01000A37A31E74988E180AFE70988E180ACE7AE
:10B02000FDF71EFA144A154B19499B1ADB081B043D
:10B03000024643F00100FBF7DFFCD8E70020FFF7F2
:10B04000EFFE18B90123E372237B99E7112803D19E
:10B050000123A372237B93E7FDF702FA064A074B0D
:10B0600007499B1ADB081B04024643F00100FBF76B
:10B07000C3FC237B84E700BF38C5020070C5020013
:10B08000A4C00200C0BF02000CC002004CC00200FD
:10B09000D8C00200B0DF704766DF704760B159B1B9
:10B0A0000378DE2B0AD00B684360DE224FF6FF7375
:10B0B00002704380002070470E20704708207047C0
:10B0C00038B10378DE2B02D1418000207047082080
:10B0D00070470E20704700BF19B110B10B78DE2BFE
:10B0E00000D0704730B505464B888088984285B0BF
:10B0F0000C4606D02A88012A0DD0512A20D005B04E
:10B1000030BD0B7A002B35D12B88112B48D0512B19
:10B110004DD0012BF3D12B7A012BF0D162888242E2
:10B12000EDD123720021FFF7B7FF00284ED0112880
:10B1300008BF2372E3D063689847E0E76388A88874
:10B140008342DCD1AA79022AD9D1A97B01F0FD0082
:10B1500004282ED00529D2D100206946C1E9020079
:10B16000009048608DF800201846FFF793FF0028F4
:10B17000E1D1C4E70021FFF78FFF0346A8B11128F2
:10B1800012D0636898472B88112B05D0512BD5D04E
:10B19000012BB4D1A888BEE7AA8863889A42AED1B1
:10B1A0004FF6FF736380AAE701232372EBE70346A0
:10B1B000C6E7694600204FF4C07548600090C1E9B9
:10B1C00002008DF80020ADF80450CDE7207296E71C
:10B1D000A8DF7047AEDF704762DF70470388502BEF
:10B1E00012D110B44B88C4889C4202D05DF8044B45
:10B1F0007047038A012BF9D14B69002BF6D0827C72
:10B200005DF8044B80881847704700BFF0B52F4B9E
:10B210000E6805460FCB8FB002AC84E80F006E615C
:10B22000204605F11201FFF7D7FF08B10FB0F0BDBE
:10B230000EA941F2235321F8343D2A46AB7C8DF808
:10B2400006300120FFF7C4FF0028EFD1014620227D
:10B2500006A800F0CCFA9DF82530AA7C8DF81A20BB
:10B26000012443F0120341F224574FF001162888BD
:10B270008DF8253006A905F10A02ADF81870079679
:10B280008DF829408DF82B40FFF790FC0028CDD198
:10B290000146202206A800F0AAFA9DF82530AF7CCE
:10B2A000079643F00A0341F2255628888DF8294075
:10B2B00006A9AA1C8DF82A408DF82530ADF8186033
:10B2C0008DF81A70FFF772FCB0E700BF18C10200DA
:10B2D00070B588B00E4605468DF80720012404A8F5
:10B2E00010220021ADF80E4000F081FA7389ADF80C
:10B2F00010300DF107020DF10E0304A928468DF858
:10B300001240CDE90632FFF765FF08B070BD00BFFF
:10B3100010DF704770B53B4D2B7884B0002B63D1A4
:10B32000394E3A49012302A83370FDF783F8039B95
:10B33000002B4FD1364902A8FDF77CF8039B4BB197
:10B34000D3E900210020904702A8FDF77DF8039B78
:10B35000002BF5D12F4A002312688DF8083002A87F
:10B360000192FCF7B9FA2C4901A8FFF7D1FFB0FA16
:10B3700080F304465B099DF808002B70FCF7D2FAB5
:10B38000002C2ED1254B26491C70347091F81623C1
:10B39000EC2352091341DB072FD5224B9A683ABBA5
:10B3A0004FF480030B601A4902A8FDF743F8039B92
:10B3B000BBB1D3E900210120904702A8FDF744F872
:10B3C000039B002BF5D10CE002A8FDF73DF8039B91
:10B3D000002BAFD0D3E90021002090470028F3D103
:10B3E0000446204604B070BD0824204604B070BD59
:10B3F0001A6842F480021A60D5E742F20200FBF7B5
:10B4000013FFD0E7512E0020502E00202CC1020047
:10B4100044C1020028C1020049720200522E0020DD
:10B4200000E100E0542E0020014B1878704700BF67
:10B43000512E002000B583B068460849FCF7FAFF9A
:10B44000019B43B1D3E9002090476846FCF7FCFF1D
:10B45000019B002BF6D103B05DF804FB38C102005C
:10B4600060DF704769DF704761DF7047134B1B78FF
:10B470001BB330B5124D91B034240DF1020103A875
:10B48000ADF80240FFF7F0FF88B9294601A8FCF7A4
:10B49000D1FF029B002BF0D0D3E9002103A89047F5
:10B4A00001A8FCF7D1FF029B002BF5D1E5E70528A9
:10B4B00001D0FBF7B9FE11B030BD7047532E00200C
:10B4C00090C30200002900F0A68070B5534B0B60BA
:10B4D00084B00C4605460C22002101A800F087F933
:10B4E0000126062301A922688DF8045020208DF83A
:10B4F0000660ADF80830FFF7B5FF00287DD10C22BB
:10B50000002101A800F073F9012100238DF8051036
:10B5100022688DF8063001A940208DF80730FFF72A
:10B52000A1FF00285BD10C22002101A800F05FF9E7
:10B530000A2322688DF8043001A90120FFF792FF49
:10B5400000283ED10C22002101A800F050F94FF450
:10B55000B0632268019301A9A120FFF783FF10BB0C
:10B560000C22002101A800F042F99DF80430226865
:10B570006FF3000301A9A0208DF80430FFF772FFDC
:10B5800008B904B070BDFCF76BFF254A254B26496E
:10B590009B1ADB081B04024643F00100FBF72CFA60
:10B5A000002004B070BDFCF75BFF1D4A1D4B1F4916
:10B5B0009B1ADB081B04024643F00100FBF71CFA50
:10B5C000CEE7FCF74DFF164A164B19499B1ADB08CC
:10B5D0001B04024643F00100FBF70EFAB2E7FCF74A
:10B5E0003FFF0F4A0F4B13499B1ADB081B0402460F
:10B5F00043F00100FBF700FA95E7FCF731FF084A3A
:10B60000084B0D499B1ADB081B04024643EA06005F
:10B61000FBF7F2F973E70E20704700BFB822002055
:10B6200038C5020080C502008CC2020038C2020088
:10B63000ECC10200A0C1020058C10200F8B50646E4
:10B640000768FFF70DFF3368BB42054605D825BBE9
:10B650001A4B01221A702846F8BD194B194C1A4989
:10B66000E41AE408240444F002042046FBF716F828
:10B670003A46204633681549FBF73EFA4FF08053AF
:10B680003268D3F80C3112499B0203F10053204673
:10B690009A1AFBF7B1F9002DDAD02846FCF7E0FE44
:10B6A000074A084B0B499B1ADB081B04024643F070
:10B6B0000100FBF7A1F92846F8BD00BF532E00207A
:10B6C00038C5020080C50200E0C2020010C30200BB
:10B6D00044C3020070C302004BDF704710B5114C29
:10B6E00084B001A8FFF7F8FFA8B9214602A8FCF72B
:10B6F000A1FE039B002BF4D0D3E9002101989047D1
:10B7000002A8FCF7A1FE039B002BF5D101A8FFF7CF
:10B71000E3FF0028E9D0052801D0FBF785FD04B040
:10B7200010BD00BFA8C3020008B5074B044613B103
:10B730000021AFF30080054B1868836A03B1984776
:10B74000204600F071F800BF00000000C0C30200F6
:10B7500070B50D4E0D4CA41BA4100025A54209D1B7
:10B760000B4E0C4C00F062F8A41BA4100025A5425F
:10B7700005D170BD56F8253098470135EEE756F8EB
:10B78000253098470135F2E7C4240020C424002066
:10B79000C4240020C8240020044B054A1B681B6AEF
:10B7A000002B08BF1346D3F8EC007047F4220020AA
:10B7B0005823002082B001B901A942B14BB11378DE
:10B7C0000B601278101C18BF012002B070471046A1
:10B7D000FBE76FF00100F8E710B5431E0A44914201
:10B7E00000D110BD11F8014B03F8014FF7E70244F7
:10B7F0000346934200D1704703F8011BF9E7034663
:10B8000013F8012B002AFBD1181A0138704749B1EF
:10B81000FF2A85BF8A2303600A704FF0FF3098BF6C
:10B820000120704708467047FEE700BFF8B500BF2B
:10B83000F8BC08BC9E467047F8B500BFF8BC08BC11
:10B840009E467047FFFFFFFFFFFFFFFFFFFFFFFF69
:10B85000FFFFFFFF00000000000000000000D60115
:10B8600006010000D563020041640200D1630200BA
:10B87000756172745F6C6F675F6261636B656E6444
:10B8800000000000282A00207F000000A82A0020D5
:10B890004261636B656E647320666C757368656482
:10B8A000000000006170700000B9020030B90200B1
:10B8B000E0B8020038B9020040B9020048B90200FD
:10B8C00050B9020058B9020060B902002025303298
:10B8D00078000000202020007C000000256300008C
:10B8E0001B5B313B33316D0025734C6F67732064F4
:10B8F000726F70706564202825642925730D0A0015
:10B900001B5B306D00000000257300003C25733E7A
:10B910002025733A200000000D0A000000000000FE
:10B9200068B9020070B9020078B9020080B902005B
:10B930001B5B313B33306D001B5B313B33326D00A1
:10B940001B5B313B33336D001B5B313B33346D008C
:10B950001B5B313B33356D001B5B313B33366D0078
:10B960001B5B313B33376D006572726F72000000F4
:10B970007761726E696E6700696E666F0000000025
:10B980006465627567000000C82A00204661746122
:10B990006C206572726F720053797374656D2072DA
:10B9A00065736574000000000000000000000000E6
:10B9B0000338FDD870470000303132333435363724
:10B9C0003839414243444546DCC40200DCC402002D
:10B9D000040000007077725F6D676D7400000000F6
:10B9E000556E6B6E6F776E206572726F7220636F2B
:10B9F00064650000000000001CBB020001000000A4
:10BA000028BB02000200000048BB02000300000047
:10BA10006CBB02000400000080BB020005000000B7
:10BA200094BB020006000000A8BB02000700000053
:10BA3000C0BB020008000000D8BB020009000000E3
:10BA4000F0BB02000A0000000CBC02000B0000006A
:10BA500024BC02000C0000003CBC02000D000000F1
:10BA600050BC02000E00000064BC02000F00000089
:10BA700074BC02001000000088BC0200110000002D
:10BA8000A0BC020012000000B0BC020013000000C5
:10BA9000C8BC020080000000DCBC02008100000085
:10BAA00000BD0200820000001CBD020083000000F7
:10BAB00038BD02008400000058BD0200850000006F
:10BAC0007CBD020086000000A4BD020090000000C2
:10BAD000BCBD020091000000DCBD0200920000002D
