:020000022000DC
:1060000000000120B5620200DD620200DF620200D2
:10601000E1620200E3620200E562020000000000AB
:10602000000000000000000000000000E762020025
:10603000E962020000000000EB620200ED62020073
:1060400049AF0200EF62020029B80200EF620200CD
:10605000EF620200EF620200E1B20200EF620200B2
:10606000EF620200EF620200EF620200EF620200E4
:10607000EF620200EF620200EF620200EF620200D4
:10608000EF620200C1740200EF620200EF620200E0
:1060900061750200EF62020045400300EF620200FA
:1060A000EF620200EF620200EF620200EF620200A4
:1060B000EF620200EF62020000000000000000003A
:1060C000EF620200EF620200EF620200EF62020084
:1060D000EF620200EF620200EF62020000000000C7
:1060E00000000000000000000000000000000000B0
:1060F00000000000000000000000000000000000A0
:10610000000000000000000000000000000000008F
:10611000000000000000000000000000000000007F
:10612000000000000000000000000000000000006F
:10613000000000000000000000000000000000005F
:10614000000000000000000000000000000000004F
:10615000000000000000000000000000000000003F
:10616000000000000000000000000000000000002F
:10617000000000000000000000000000000000001F
:10618000000000000000000000000000000000000F
:1061900000000000000000000000000000000000FF
:1061A00000000000000000000000000000000000EF
:1061B00000000000000000000000000000000000DF
:1061C00000000000000000000000000000000000CF
:1061D00000000000000000000000000000000000BF
:1061E00000000000000000000000000000000000AF
:1061F000000000000000000000000000000000009F
:1062000010B5054C237833B9044B13B10448AFF3F0
:1062100000800123237010BD5824002000000000DE
:10622000306A030008B5034B1BB103490348AFF3C1
:10623000008008BD000000005C240020306A0300DC
:10624000154B002B08BF134B9D46A3F5803A002148
:106250008B460F461348144A121A0EF0DFF80F4B04
:10626000002B00D098470E4B002B00D09847002001
:10627000002104000D000D48002802D00C48AFF3A7
:1062800000800EF06DF82000290006F075FE0EF07B
:1062900053F800BF000008000000012000000000CB
:1062A000000000005824002070360020000000008C
:1062B000000000000649074A074B9B1A03DD043B18
:1062C000C858D050FBDC04F07FFAFFF7B9FF00009C
:1062D000A86B03001822002058240020FEE7FEE7E8
:1062E000FEE7FEE7FEE7FEE7FEE7FEE7FEE7FEE786
:1062F000F0B595B0002415460F4608461E4604F03A
:1063000009F9384623460895082205A91A9D0996D9
:106310000D950A948DF82C400C9404F055F99DF8D5
:1063200014308DF81140DDE9061003F00302012A54
:10633000CDE9020127D0022A04D0384604F0EEF855
:1063400015B0F0BDBDF81650C3F3C2038DF8103080
:10635000AD090826082D2C4628BF082433462246BE
:106360000EA9384604F030F92D1B214608AB02AACD
:106370000EA8264400F05CFE002DEBD1384604F058
:10638000CDF815B0F0BDBDF81460059DC6F38316B9
:10639000C3F3C204B2000EA9384608238DF810409A
:1063A000C5F3952504F010F908AB324628460EA92E
:1063B000009302AB00F096FD384604F0AFF815B03C
:1063C000F0BD00BF014B01221A707047B8240020B5
:1063D000704700BF00B583B0044B0093044A4023CC
:1063E000FFF786FF03B05DF804FB00BFF563020012
:1063F0007824002038B50E480E4D03780E4CEB5C27
:106400000025D2B2257053B90C3005F05BFC58B9A9
:106410000A4B1B7813B12378002BFCD038BD043015
:1064200005F094FE0028F3D001F002F8F0E700BF79
:10643000182200206C360020B8240020742400208C
:1064400070B51348134A0378D35C88B0DBB90C30BD
:1064500005F0D2FB104D0FCD6C460FC495E80F0030
:1064600008AD062645F8206D84E80F002946002275
:10647000074804F0FBFC08B100F0DAFF074B0022EC
:106480001A7008B070BD043005F0F8FDE2E700BFF7
:10649000182200206C36002074470300742400206A
:1064A00070B50D4D0FCD88B06C460FC495E80F0048
:1064B00008AD062645F8206D84E80F002946074AF6
:1064C000074804F0D3FC08B100F0B2FF054B0122ED
:1064D0001A7008B070BD00BF74470300C5630200A6
:1064E000182200207424002008B5FFF7D9FF0421EA
:1064F000034800F0ADFC034B01225A7108BD00BFF8
:10650000906B03002C220020F0B5324C85B004F5CE
:10651000836002F001FF04F2144002F0FDFED4E9B2
:10652000013703EA0702D01C04EB800114F82000B5
:1065300010F0040044D003F1020C0E7806F00306BC
:10654000012E654635D0022E02F1030621D004EB60
:1065500086010028F1D104EB82020133D268019256
:106560003B4004EB830302F00302012ADE6829D0DA
:10657000022A23D1BDF806309B090333360C05EB04
:106580009305154802F0D4FE00B16560304605B0B1
:10659000F0BD4B880CEB931307EA0302D11C03F107
:1065A000020C14F82100654604EB810100F00400A0
:1065B000CFE70B88C3F383136344EDE70026E0E7DE
:1065C0009D1CC8E7BDF80430C3F38313360C1D448B
:1065D000D7E700BF8C250020A02900200B4B0C48DA
:1065E00010B50022FF21C3F818249960C3E90022E6
:1065F000C3F8142483F8202403F048FF044610B99C
:10660000044804F055F8204610BD00BF8C2500203A
:10661000C46A0300B447030021B9124B03EBC00066
:1066200000687047104A0F49521AD20815D030B48A
:106630000E4D2B88834212D0002303E035F823400F
:10664000844205D001339A42F8D1002030BC704713
:1066500001EBC300006830BC704710467047084625
:10666000F8E700BFD86A0300906B030054240020B1
:10667000094B013903EBC00003290BD8DFE801F017
:10668000020806040220704740797047007970477D
:106690000420704700207047D86A03002DE9F043BA
:1066A00083B002AB002203F8012DDFF8DC9007462F
:1066B00018468846D9F8084001F012FAD9E90132A3
:1066C000D9F80060134401339B1B012B58D809F201
:1066D0001C450121284602F0FBFDFFF715FF01468E
:1066E000284602F0F5FDD9E90132D9F8001013442B
:1066F00001335B1A012BECD90A4003320523023126
:106700009DF8070049F82230C9F8001001F00EFA90
:1067100000211C4802F0A2FD80F31000731C2340EE
:1067200009EB830300043440033440EA1740D86087
:1067300019F8243067F3C50309F8243039F82430F8
:106740006FF3891329F8243059F8242068F39F2225
:106750001346012161F301036FF3820349F82420FA
:1067600009F8243099F820341BB906E000F00EF83F
:1067700018B1D9E900329A42F8D103B0BDE8F083EC
:106780003146B9E7A82900208C2500202DE9F047E3
:10679000934C002384B0C4F81834BFF34F8FD4E96E
:1067A000015605EA0602D31C04EB830114F82330DA
:1067B000580719D527680B7803F00303012B43D042
:1067C000022B03D14B88023505EB931506EA05022F
:1067D000D4F81804D31C04EB830128B9AF4239D98B
:1067E00014F823305B07E6D404EB82026B1CD268FA
:1067F0000192334004EB830302F00302DB6802934F
:10680000022A05F1020700F08D80012A26D0D4F873
:1068100010543DB12B6828469B689847EB681D686B
:10682000002DF7D16F48704B7049C01AC0080004A2
:1068300040F00200FFF732FFD4E90030C01A18BF61
:10684000012004B0BDE8F0870B880235C3F3831341
:106850001D44BBE7676004B0BDE8F087BDF80420C5
:106860006348C2F38313062B28BF062363F3891200
:1068700002339900ADF8042003F00AFE8046002898
:10688000C5D003F047FE0023082201A9404603F0CB
:1068900067FEBDF8043013F4707F00F09F806FF046
:1068A000010AAAEB050A082506EA070103312B466F
:1068B000042204EB8101404603F052FEBDF804308F
:1068C00007F101090AEB0902C3F3831393424F4610
:1068D00005F10405E8D8D4F81834002B68D1D4F8B1
:1068E000105465B1EB685A7928464146002A5BD0BE
:1068F0002B681B689847EB681D68002DF2D1404655
:1069000003F00CFE04A8002300F80D3D01F0E8F8A8
:10691000D4F818340BB9C4F804909DF8030001F0C2
:1069200005F989E7BDF8063031484FEA93194D461D
:10693000502D28BF502565F38F1305F10801ADF8E0
:10694000063003F0A5FD804600283FF460AF26EA3C
:10695000070A0AF1010A03F0DDFD4FEA8A0A002363
:10696000082201A9404603F0FBFD55452BD9EBB2A7
:10697000BAF1000F20D006EA0701A3EB0A030331A6
:1069800004EB8101DDB252460823404603F0E8FDE6
:106990002A460AF108031749404603F0E1FD09F1D0
:1069A000030907EB990996E71D68002D9AD1A6E720
:1069B000404603F0B3FD3FE72A4608230D49404611
:1069C00003F0CEFDEBE706EA0701033104EB81019A
:1069D0002A460823404603F0C3FDE0E7B9467AE7BC
:1069E0008C250020006B0300D86A0300C047030019
:1069F000C46A0300982500202DE9F04782B002AB5D
:106A0000002403F8014DDFF8ECA007461846914634
:106A10008846DAF8084001F063F8DAE90132DAF87A
:106A20000060134401339B1B022B5ED80AF21C4505
:106A30000121284602F04CFCFFF766FD014628467E
:106A400002F046FCDAE90132DAF8001013440133AF
:106A50005B1A022BECD90A400332033145239DF81F
:106A600007004AF82230CAF8001001F05FF8B31CA2
:106A700023400AEB830300211D48C3F80C9002F069
:106A8000EDFB80F31000731C23400AEB830300042A
:106A90003440033440EA1740D8601AF8243067F3D2
:106AA000C5030AF824303AF82430012161F3891330
:106AB0002AF824305AF8242068F39F22134661F301
:106AC00001036FF382034AF824200AF824309AF86D
:106AD00020341BB906E0FFF759FE18B1DAE900329D
:106AE0009A42F8D102B0BDE8F0873146B3E700BF63
:106AF000A82900208C2500202DE9F04F83B002AD9D
:106B0000002405F8014D3B4C8046284693469A46A2
:106B10008946A56800F0E4FFD4E9013227681344F0
:106B20000133DB1B032B63D804F21C4601213046E2
:106B300002F0CEFBFFF7E8FC0146304602F0C8FB4E
:106B4000D4E901322168134401335B1A032BEDD9D8
:106B50000A400332852344F8223004319DF80700AF
:106B6000216000F0E3FFBA1CFB1C2A402B4004EB21
:106B7000820204EB830300211F48C2F80CB0C3F863
:106B80000CA002F06BFB80F310007B1C2B4004EB8D
:106B9000830300043D40033540EA1840D86014F8F0
:106BA000253068F3C50304F8253034F82530022277
:106BB00062F3891324F8253054F8252069F39F22C5
:106BC0001346012161F301036FF3820344F825208A
:106BD00004F8253094F820341BB906E0FFF7D6FD01
:106BE00018B1D4E900329A42F8D103B0BDE8F08F71
:106BF0003946ADE78C250020A82900202DE9F04F6B
:106C000083B002AE002406F8014D3E4C804630466B
:106C100093469A46A568894600F062FFD4E901329E
:106C2000276813440133DB1B042B69D804F21C468C
:106C30000121304602F04CFBFFF766FC014630466E
:106C400002F046FBD4E901322168134401335B1A98
:106C5000042BEDD90A400332C52344F82230053114
:106C60009DF80700216000F061FFB81CFA1C284065
:106C70002A403B1D2B4004EB800004EB820204EB16
:106C80008303C0F80CB00021C2F80CA01E480C9A77
:106C9000DA6002F0E3FA80F310007B1C2B4004EB77
:106CA000830300043D40033540EA1840D86014F8DF
:106CB000253068F3C50304F8253034F82530032265
:106CC00062F3891324F8253054F8252069F39F22B4
:106CD0001346012161F301036FF3820344F8252079
:106CE00004F8253094F820341BB906E0FFF74EFD78
:106CF00018B1D4E900329A42F8D103B0BDE8F08F60
:106D00003946A7E78C250020A82900202DE9F04F5F
:106D100087B006AE002406F8114D454C109F04972D
:106D2000CDE90223804699463046119B0593924651
:106D3000A5688B4600F0D4FED4E9013227681344DD
:106D40000133DB1B052B70D804F21C4601213046B1
:106D500002F0BEFAFFF7D8FB0146304602F0B8FA5F
:106D6000D4E901322168134401335B1A052BEDD9B4
:106D70000A40033240F2051344F8223006319DF8F0
:106D800007002160FE1C00F0D1FEB91C29402E40F6
:106D90003A1D2A4004EB810104EB86067B1D2B4043
:106DA00004EB8202C1F80CA004EB8303C6F80C903C
:106DB000109ED6600021119A1E48DA6002F04EFA49
:106DC00080F310007B1C2B4004EB830300043D4048
:106DD000033540EA1840D86014F8253068F3C5033D
:106DE00004F8253034F82530042262F3891324F89E
:106DF000253054F825206BF39F221346012161F3BF
:106E000001036FF3820344F8252004F8253094F839
:106E100020341BB906E0FFF7B9FC18B1D4E9003201
:106E20009A42F8D107B0BDE8F08F3946A0E700BF1D
:106E30008C250020A8290020044BD3E900239A4286
:106E400001D0FFF7A3BC0020704700BF8C250020B5
:106E500030B4184DD5F8104400215CB1E3681A79BC
:106E60008A4204D116E0DB681A798A4212D01B6884
:106E7000002BF8D1C3681971D5F8103493B1DA68D2
:106E8000C36812681A60D5F81034DB68186030BC2B
:106E90000846704701310A29DFD14FF0FF3108461B
:106EA00030BC7047C5F81004C2681360084630BC97
:106EB000704700BF8C25002038B5094BD3F810442B
:106EC000012583F820544CB1E3685D7123682046A6
:106ED0005B689847E3681C68002CF5D138BD00BF9B
:106EE0008C2500202DE9F04784B01D460C9C002322
:106EF00094F80C802373EB8881460E461746002BCE
:106F000040D1297A05290ED06B7AA88873BB404BF3
:106F100053F821A00021FFF77FFB524603463D496D
:106F2000204602F07DFA062F09D8DFE807F0046A50
:106F30004249525D33004946204602F071FA2B7AED
:106F4000052B05D06B7A5BB93349204602F068FA0D
:106F5000204602F059FA84F80C8004B0BDE8F087AE
:106F60002E4A2F49204602F05BFAEDE7FFF780FB3F
:106F70002C4B2B4953F82020204602F051FA297A55
:106F8000A888C4E7254A00922749284A204602F0EB
:106F900047FAB6E7D6E90410D6E900230390D6E90C
:106FA00002070291CDE900074946204602F038FA6F
:106FB000C5E74946D6E90023204602F031FABEE78C
:106FC000B168D6E9002320460091494602F028FA2C
:106FD000B5E7D6E90201D6E90023019100904946C0
:106FE000204602F01DFAAAE7D6E90371B068D6E997
:106FF00000230291CDE900074946204602F010FA2D
:107000009DE732684946204602F00AFA97E700BF3A
:107010004848030038480300444803003048030050
:10702000385E0300D84703001848030010480300E7
:10703000082900D970472DE9F04F1D4690460023DE
:107040002A7B2B7385B0B8F80630039207460E46AC
:10705000002B78D198F80810052911D098F809303C
:10706000B8F80400002B60D13B4B53F821400021BD
:10707000FFF7D2FA224603463849284602F0D0F9F3
:10708000DFF8F8B0DFF8F890002405E03A5D01344D
:1070900002F0C6F9082C09D0A64249462846F5D880
:1070A0005946013402F0BCF9082CF5D12C49DFF81F
:1070B000D490DFF8D4B0284602F0B2F9002411E0F1
:1070C00017F804A00DF070F950445946437813F0B6
:1070D000970F14BF52462E222846013402F0A0F921
:1070E000082C08D0A64249462846E9D8013402F0C7
:1070F00097F9082CF6D198F80830052B02D098F8AB
:10710000093063B91749284602F08AF9284602F087
:107110007BF99DF80C302B7305B0BDE8F08F124A57
:107120001249284602F07CF9ECE7FFF7A1FA104B70
:107130000E4953F82020284602F072F998F80810FA
:10714000B8F8040090E7084A00920A490A4A28461B
:1071500002F066F97EE700BF4848030038480300A4
:10716000084803004448030030480300385E030029
:10717000D8470300184803001048030004480300E0
:10718000FC470300404803000C480300434B1978B8
:10719000002900F081802DE9F04F002487B00125FF
:1071A0008E4603E00134E4B2744560D23C4B27B212
:1071B0001E6816F837C0ACF1200205FA02F9394A08
:1071C000CCF12003D2E9000125FA03F349EA0309CF
:1071D00005FA0CF800EA080201EA0903134306EB7A
:1071E000C70BDFD021EA09032E4920EA08026046D6
:1071F000C1E9002304F06AF816F837C0ACF12002A8
:1072000005FA02F201920199CCF12003C6B225FAE7
:1072100003F3ACF12002194306FA02F30393224B65
:107220000191D3E90023CDE9042305FA0CF300937F
:10723000CCF12001039B26FA01F10B43039306FADC
:107240000CF30293DDE90467DDE9002316401F40DB
:1072500032463B46DDE90267BB4208BFB24209D075
:107260000E4B013493F800E0E4B274459ED307B0AE
:10727000BDE8F08F9BF80110DBF80430A1F10101AB
:10728000B1FA81F14909091AB1FA81F14909002BD2
:10729000E6D060469847E3E7704700BF482A0020E1
:1072A000802A0020782A0020702A00202DE9F84F3B
:1072B0000646244800F0DAFBD8B9234F0123A6F193
:1072C000200103FA01FBC6F12002D7E9000123FAED
:1072D00002F24BEA020B03FA06FA00EA0A0201EA9A
:1072E0000B03134307D020EA0A0421EA0B05C7E980
:1072F0000045BDE8F88F304603F0E8FF134ED6E9AD
:107300000089C8B148EA0A0349EA0B049846A14635
:10731000D7E900234BEA03050D4B0A4819684AEAEE
:1073200002044B464246C6E90023C7E90045002255
:10733000BDE8F84F00F044BB28EA0A0829EA0B0927
:10734000E6E700BF502A0020782A0020702A00209B
:107350004C2A0020042A36D92DE9F04182B00E468D
:107360000546144603F068FE002836D01D491E4A23
:107370001E4B0D601E481F491C6016700023002222
:10738000741EC0E90023C1E90023E4B2EEB105EBAD
:10739000C404194F083D4FF00008032601E0AC4239
:1073A00013D0A37820788DF806803A4601A98DF88D
:1073B00004608DF8053003F049FE083C0028EED04B
:1073C00002B0BDE8F081072070470C4A0C4800214C
:1073D00000F0E4FA02B0BDE8F08103F0E7FD002818
:1073E000C4D0EDE7802A0020482A00204C2A002043
:1073F000702A0020782A0020AD7202008D710200F0
:10740000B448030070B5084D2B785BB1074E0024DB
:107410003368012113F8340003F0F6FE2B780134B1
:10742000A342F5D8002070BD482A0020802A002001
:1074300000B585B000230390194601AA44F201006B
:10744000CDE9013300F004F805B05DF804FB00BF9E
:1074500010B572B6FFF730FDFFF7EEFC0028FBD148
:10746000104B114C1149E41AE408240444F00100C3
:10747000FFF714F90E4B1B68DB0700D500BE44F084
:1074800002000C49FFF70AF9BFF34F8F0A490B4B73
:10749000CA6802F4E0621343CB60BFF34F8F00BFB2
:1074A000FDE700BFD86A0300006B0300B848030083
:1074B000F0ED00E0C448030000ED00E00400FA0530
:1074C000F8B5204A204B0024C2F84041C2F844419C
:1074D000C2F84841C2F84C41C2F80041C2F8044128
:1074E0001B6833B31949D2F804550A68AD1A1A68F3
:1074F00025F07F45AA4227460DD8197CDE69AD1AD2
:10750000144419B11F74D3E9052090471EB13346C6
:107510001A68AA42F1D90E490E4A0B7812789A429B
:1075200008D00D490D4A41F823404FF48013C2F8AA
:107530000031F8BD531CDBB2022B08BF00230B70D7
:10754000EFE700BF00100140A42B0020A02B00207B
:107550009D2B00209C2B0020942B002000E100E0BC
:107560002DE9F04F8C4A8D4913780978DFF8508265
:10757000994285B0D8F800A000F07B810133DBB2DE
:10758000022B08BF002386481370864A076852F80A
:1075900023107B1823F07F430024036053462646C4
:1075A0002046A446ABB11A688A4200F26581DC68C5
:1075B000C3F800C0891A1044DA6934B13D1825F0C7
:1075C0007F45C3E90154DE611E4613460124002BAA
:1075D000E9D1002C40F07C8101230093724B734F62
:1075E000DFF8E09143F00103019355464FF0000BA3
:1075F00046B3D6E901C13446F669694B6C481A684E
:10760000ACEB020323F07F43834248D80B44236052
:1076100000220121C4E90122E2612174002D5DD024
:107620002A689A424DD2284603E00A689A424FD20D
:107630000846C1699B1A0029F7D12360E161C46142
:10764000002ED6D178783978884264D00B4603EB87
:1076500043034C1CBA7807EBC303E1B28A421A79A0
:10766000397004BF00213970022A9C6844D0032A73
:1076700038D0012AE8D1227C002AE5D1D3F80CC009
:10768000C4F804C01969A1605869E06099F8000065
:107690009B69A3610028B0D062609446ADE7A2EB7D
:1076A0000C0222F07F428A4202D28B1A2360AFE79B
:1076B00000230122C4E90033A360E36122746DB1A9
:1076C0002A68C8F80040D31A2B60E56125468FE789
:1076D000D21A0A602360E161C461B1E7C8F80040D2
:1076E000254685E7002DAFD000232B74ED69002DD2
:1076F000FBD1C8F80050A5E74DB1AC422B4603D1F1
:10770000E4E094422FD01346DA69002AF9D100232D
:10771000237488429AD1BBF1000F01D1554553D053
:10772000002D56D1234E244A1F4C4FF480334FF482
:1077300000310127C2F880103C43C6F848334FF4AB
:107740003C60C6F808337760A047154BB7604FF42C
:107750003C601D60A047194B1D70002389F8003064
:1077600005B0BDE8F08FA34200F09180E069216888
:10777000D861002800F086802A4603680B44036025
:10778000AA424FF000033978787823741CBF15465D
:107790004FF0010BBDE700BF9C2B00209D2B00206C
:1077A000A02B0020942B0020E0480300842A002016
:1077B000FEFF7F000010014000E100E0912B00205F
:1077C000A42B0020902B0020009B002BC5D0002D67
:1077D000A8D0434B434A1C68D2F80465424FD5F801
:1077E00000A03978331B23F07F43DD1CB9B93F4932
:1077F0003F4B4FF48030C2F844034FF00108C2F809
:1078000004034FF40030C1F8800143F00103086025
:10781000C2F800804FF43C60984787F80080AA4582
:107820002CBF04EB0A0363192E4923F07F43C1F8F0
:107830004035D1F80425921B9B1B22F07F4223F098
:107840007F4303329A4288D9294BD1F80425C1F8E5
:10785000402543F001034FF43C609847234B4FF41D
:107860000032C3F80021002389F8003005B0BDE8DC
:10787000F08F00260096B1E674BB521A1A600123FD
:107880000093ABE6002339787878237441E71946F2
:10789000EA69C8F8002092B9CDE90231114BDFF84E
:1078A00040C001209860019B89F80000CCF80020BE
:1078B0004FF43C609847DDE90231D8F80020C869F0
:1078C0000968D86100287FF458AF59E72946DFE7F7
:1078D000C8F800309A467FE6C8F800309A46CCE7F0
:1078E000A02B002000100140912B002000E100E0BF
:1078F000E04803002DE9F8431F4D204E204FDFF8EC
:1079000098804FF480334FF400324FF00109002487
:10791000C6F8802047EA0907C5F848334FF43C60B1
:10792000C5F80833C5F80490B847C5F808904FF477
:107930003C60C8F80040B847124A134B13491C601A
:107940001470134B134A0C700B2114701C80997027
:107950004FF48012C023C6F8802186F814333260B9
:10796000C5F8084586F81133D5F80435C8F8003055
:107970002046BDE8F88300BF0010014000E100E0B0
:10798000E0480300912B0020A42B00209C2B00201A
:10799000842A00209D2B0020A02B0020074B9B78E1
:1079A0004BB132B128B10368187C20B959745A61BF
:1079B0007047072070470820704700BF842A0020C6
:1079C0002DE9F047264CA37882B0002B3CD000284C
:1079D0003AD004293CD94369002B35D0814602A80E
:1079E00099F811300026012B00F8016D0CBF884674
:1079F000B04617468A4600F073F86378A17822787B
:107A00009DF807005D1CEDB2A94208BF3546AA42A9
:107A100022D003EB430304EBC3030121114AC3F853
:107A200008901971D2F804256570C3E9032AC3E9E7
:107A3000058700F07BF80C4B4FF480123046C3F8FA
:107A4000002102B0BDE8F087082002B0BDE8F08751
:107A5000072002B0BDE8F08700F068F80420F0E7E6
:107A6000842A00200010014000E100E0F0B51A4C2B
:107A7000A37883B043B338B343692BB3064602A857
:107A8000002500F8015D357400F02AF86278A778C7
:107A900021789DF80700531CDBB29F4208BF2B469C
:107AA000994214D002EB420204EBC202022196601A
:107AB0001171637000F03AF8084B4FF480122846B9
:107AC000C3F8002103B0F0BD082003B0F0BD00F002
:107AD0002DF80420F9E700BF842A002000E100E02F
:107AE00070B4EFF3108472B60D4B9A68AAB90D49C1
:107AF0000D4E01259D60D1F8805035401D60C1F8C4
:107B00008060D1F884505D604FF0FF33C1F884305D
:107B1000027004B962B670BC704701230370F8E7C5
:107B20006036002000E100E0FC06FFBD094B9A68CA
:107B30007AB170B910B4EFF3108272B606491C68BE
:107B40000C605C684C60986002B962B65DF8044BEA
:107B5000704770476036002000E100E0F0B44368F1
:107B60001BB1384AD468A34246D20023364F0B805B
:107B70007A684FF0010C02F580544FF6FF76083218
:107B800094420ED8BCF1020FA1F800C007F114070F
:107B900054D07A6802F58054083294424FF0020CB7
:107BA000F0D913680133EDD05388033302EB83031C
:107BB0009C42E7D39588B5420AD0158845B19568AF
:107BC00003689D4211D05388033302EB8302D7E749
:107BD0009C42D7D91A6801321A46D3D05D88033542
:107BE00003EB85039C42E5D2CCE7184B42601B892E
:107BF00003810120F0BC704712699342B5D813F09D
:107C00000305B2D1114A048912899442ADD10468A6
:107C10009A689442A9D10C484268934203D902F56C
:107C20008052934207D38269934207D902F580526A
:107C3000934203D201250D800120DBE70020F0BC38
:107C4000704700BF40240020E82B0020CC2B0020F0
:107C5000F0B5334C334DB4F802C062684FEA8C067D
:107C600006EB0C0305EB830383B0596801F58050E4
:107C7000002A52D05388033302EB8302904213D878
:107C8000664405EB8605EB68002B3DD0264B274864
:107C9000196802229A80052500230122257003B06D
:107CA000BDE8F04001F0FCBF13680133E8D0538811
:107CB000033302EB83038342E2D84FF6FF7E9788BB
:107CC000774514D0178897B162605388164D1748CE
:107CD000AE882968033300259BB200959B0001EB19
:107CE00086010325257001F03DFF03B0F0BD9842E9
:107CF000C6D91A6801321A46C2D05F88033703EB2F
:107D000087039842DBD2BBE708480425012225708F
:107D100003B0BDE8F04001F0C3BF01F10802ADE7D8
:107D2000CC2B0020E82B0020B02C00204024002089
:107D30002DE9F04FAC4E89B004464FF6FF77356819
:107D4000002D00F0D9802A78531E052B67D8DFE874
:107D500003F05931311D1D03002C40F0C380DFF8C2
:107D6000B0C29CF80C209CF80030002A00F0528130
:107D7000013B8CF80C40062B51D8DFE813F0E703E9
:107D8000F8020302D8015000FB02C802002C40F0A8
:107D9000A9802B79012B00F04A81C0F0DE800DF123
:107DA0000C08022B0394C8E90244C8F810403ED1E5
:107DB00020463DE0B5F81490AB7D002C00F0A38088
:107DC000022BEA8840F2C4804FEA8904DFF8388247
:107DD00004EB090108EB8101D31C0A8913440B81D0
:107DE000EA884C4408EB84040DF10C086389033BDA
:107DF0009B1A00226381C8F808200392C8E9032275
:107E0000012015E0002C40F097802B79032B00F225
:107E1000DF80DFE813F080013D01550160010023A0
:107E20000DF10C08C8E90333C8F8083003930F209C
:107E300004902B78023B042B0AD8DFE803F0472F8D
:107E40002303430004238DF80C30EB88ADF8183081
:107E5000664C04F1100554F8043B404603B19847C2
:107E6000A542F8D1624963480024346001F074F9F6
:107E70000121614801F038FA00287FF460AF09B0B1
:107E8000BDE8F08F03238DF80C30EB88ADF8183087
:107E90002B89ADF81A30EB680593D9E702238DF8EA
:107EA0000C302B89ADF81830AB88ADF81A30EB6880
:107EB0000593AB7DA3F10603B3FA83F35B098DF859
:107EC0001C30C5E705238DF80C30C1E701238DF880
:107ED0000C302B89ADF81830AB88ADF81A30EB6850
:107EE0000593B5E70DF10C080023C8F8083003939B
:107EF000C8E9033301209BE73D493E4801F0FEF805
:107F0000054630601FE74FEA8904DFF8FC8004EB88
:107F1000090108EB8101B1F808A0496801EB8A0A60
:107F2000062B00F2B682DFE813F0CC019301A50125
:107F3000B80141016C0186010DF10C082F4A0023A4
:107F400053600393C8E90233C8F8103001206FE78B
:107F5000DFF8B4804FEA890443E702232B71CDE9AF
:107F600004440DF10C08EB68039340460DF10A013F
:107F7000FFF7F4FD002800F0C1810499204A8B88A6
:107F8000EB800B882B811F4800940423BDF80A4026
:107F900001F0E8FD002840F0DE821B4B04EB840476
:107FA00003EB84040123237469E701239A001A4434
:107FB00008EB8203002059680090082308F822008B
:107FC000124A104801F0CEFD00283FF458AF356842
:107FD0000A4A0DF10C08002353600393C8E90233E9
:107FE000C8F810300E2023E7E42B0020B42B00202B
:107FF000DC2B00209C2C0020AC2C0020C42B00206B
:10800000E848030040240020E82B0020EC4803004F
:10801000CC2B0020072B00F28382DFE813F0FA015B
:10802000810281029D01E60178017801C001BF4B08
:108030001B78002B00F05381DFF8F4E2BEF80490C7
:10804000B9F1010F15D8DFF80C8309EB890208EBB1
:108050008202043212F8043C002B00F0088209F17D
:10806000010399B201299946AEF8043002F11402D5
:10807000F0D90DF10C0808220021AD480CF0CEF922
:108080000020C8F808000390C8E903003568CFE66F
:10809000DFF8C08298F80030022B00F0688298F870
:1080A0001430022B81D0A14B0DF10C0800200122CD
:1080B0001A7003905860C8E90200C8F81000B7E6CB
:1080C0009C4A9D481168002302242B719480012250
:1080D00001F0E6FD78E7974C984A21689648DFF86A
:1080E00074824FF0000985F804900823CDF80090C1
:1080F00001F038FD924B25685B88A18803EB830370
:1081000008EB830208F8239053682360022355602C
:108110001181A38058E7874B8A4A19688648012352
:108120002B7100230093082301F01CFD4CE7BCF8E1
:108130000230DFF8208203EB830308EB8308D8F8D2
:108140000C30002B00F0DC817A4B7B48196802224E
:108150009A8005228CF800200023012201F0A0FD66
:1081600000283FF48CAE0DF10C08002341F61D529F
:108170003568C8F808300393C8E90333904208BF54
:10818000184655E6DCF804206A485388848801685C
:10819000694801EB84010333002400949BB203245B
:1081A0009B008CF8004001F0DDFCD9E7664BAA6922
:1081B00066491A604FF0000B1846C3F804B0FFF789
:1081C000CDFC002800F0CA810223AB750423514680
:1081D000CDF800B0EA18584801F0C4FC00283FF47C
:1081E0004EAEAB7DEA88022B4FF00E0026D84C44F1
:1081F00008EB8408B8F80A30033B9B1AA8F80A3049
:10820000B1E7524B504AB3F800A051684A48504A6F
:1082100000234FF0060C85F816C00093042301F0EC
:10822000A1FC0028DDD10AEB8A0A08EB8A080123A9
:1082300088F8103023E6EA8841F61D5004EB090166
:1082400008EB8101D31C0A8913440B81EA88CEE72D
:10825000032A0CBF052306230022AB750AF1040193
:108260000092042305F10802334801F07BFC00284A
:10827000B7D104E62B693048002B14BF0323012338
:108280000022AB750AF108010092042305F10C02EB
:1082900001F068FC0028A4D1F1E5EB882A692648A2
:1082A0004FF0010C85F816C04FF0000C0AF10C01DC
:1082B0009B00CDF800C001F055FC00283FF4DFAD75
:1082C0008FE702230022AB75042300925146EA187F
:1082D000194801F047FC00283FF4D1AD81E70DF1CA
:1082E0000C080822214612480CF098F80394C8E9BB
:1082F0000244C8F810403568022099E50A2000239E
:10830000C8E90033C8E90233C8F8103090E5094BDA
:108310000C4A1968084800230093CCF8043007235E
:108320008CF80030082301F01DFC19E7C42B002055
:10833000C02C0020B02C002040240020EC4803007A
:10834000CC2B0020F4480300A82B0020BC2C0020DC
:10835000E8480300E82B0020884ADCF804109388E2
:10836000498803330B44022193808CF80010FFF7F7
:108370006FFCF5E6BCF80220DFF81082930013448E
:1083800008EB830806200023D8F804107C4A0093E9
:108390008CF8000008237B4801F0E4FBE0E60123B1
:1083A0008CF800309CF80A304BB1DFF8E081D8F847
:1083B0000C3000228CF80A20002B00F0AB809CF8D7
:1083C0000B30002B43D0DFF8C481D8F820300022D6
:1083D0008CF80B20002B3AD198F82430BBB3012342
:1083E000ACF80230FFF734FCBAE6BCF80220DFF844
:1083F0009C81624C9300991808EB810120684D68BC
:10840000B4F804E0486002202560A1F808E0A080EC
:10841000B5E7DFF87881BCF8081098F8142098F8D0
:108420000030B2FA82F252090131B3FA83F35B09E8
:108430008CF80B20ACF80810002201218CF80A30CF
:10844000ACF802208CF80C208CF80010ACE70DF191
:108450000C080020C8F808008CF80000ACF80200F6
:10846000CCF804000390C8E903003568E0E4136821
:10847000DEF8001003F5805C03F1080A002968D0DB
:108480004B88033301EB83018C4505D8CEF80040BF
:10849000E5E5EA880F20D1E60B680133F6D04B887A
:1084A000033301EB83039C45F0D38888B8421AD08C
:1084B000B1F800B0BBF1000F15D0EB88CEF800107A
:1084C0008342DBD1002300932F4A2E48042301F07E
:1084D00049FB00284DD109EB890908EB89080123E4
:1084E00088F81030CBE49C45D0D919680131194681
:1084F000CCD05888033003EB80039C45D5D2C5E728
:1085000004228CF80020D8F804101E48012201F043
:10851000C7FB25E698F81020002A3FF450AF5FE72C
:10852000013B062B3FF67BAC01A252F823F000BFC3
:108530004D8502006F830200858102002F810200B9
:108540001F7E0200758302000F8302009CF80A3030
:108550002AE7514698E735680E20D0E60DF10C0861
:108560000390C8E90200C8F810000A2060E4002364
:108570001CE535680E200DF10C08C0E6B02C00207B
:10858000EC48030040240020E8480300E82B0020CA
:108590004068FFF7CDBB00BF38B5084B1A68042A06
:1085A0000AD01D68064C02460121184644F82520D1
:1085B00000F08EFE002038BD0C2038BDB82C002005
:1085C000B42B00202DE9F04FA34C8BB02278002370
:1085D000CDE90533CDE90733099372B19F4C04F11E
:1085E000100554F8043B05A803B19847A542F8D1FB
:1085F000002528460BB0BDE8F08F201D02F0FF06D5
:1086000000F07EFE07460028F2D14FF010234FF015
:1086100080525B6911695269DFF86482581C08BF97
:1086200002FB01F3C8F810308D49A3F540534046D2
:108630000022C8F80C3001F067FA05460028D8D1AE
:108640001C238C2287498848DFF838A200F0E0FC20
:10865000D8F80C90DFF83082029609F5405348466E
:108660004FF0030B2A469946002800F099800368D2
:108670007E498B4240F0948043687D498B4200F0F4
:10868000058101318B4240F08B80029B63B102EB8C
:10869000820C08EB8C0102260132DAF8003008F86F
:1086A0002C6092B24B600E818168CAF800004FF0D6
:1086B000020C0131AAF804C000F5805300F108064D
:1086C0002CD04189033106EB81008342C0F0A580A4
:1086D00060464FF6FF7E0192B6F804C0F4450FD015
:1086E000B6F800C0BCF1000F0AD0624AD6F808C044
:1086F0001268944504D95F4AC2F800C071880331FA
:10870000084480B2AAF804007188033106EB8106A0
:10871000B34277D80228019A40F01F8104210F4309
:1087200099451846A0D1BBF1010F7CD9FFB2022FA9
:1087300079D0062F00F08180002F74D004A94A4818
:1087400000F0A0FC1C22044600210BF067FE002C68
:1087500000F001810123013F23700A2F09D8DFE8CF
:1087600007F019081908160816081C061C00022331
:10877000237104A93C4800F0B1FC01213E4800F0FF
:108780009BFD00287FF434AFFFF7D2FA31E70123D5
:108790002371EEE700232371EBE703232371E8E75E
:1087A00000F58053014601E08B4214D00E6801367B
:1087B00001F10401F8D002EB820108EB81060BF114
:1087C000FF3B01324FF0030C1FFA8BFB92B208F80B
:1087D00021C07060A4E7DAF8001031B3274E02EB35
:1087E000820108EB810C7280022602F1010E08F86A
:1087F00021601FFA8EF2CCF80400ACF8086047F054
:1088000001078DE73168013184D07188033106EBAF
:10881000810C6345BFF460AF019A4FF48061AAF800
:10882000041008217BE70B25E3E60221AAF80410D7
:108830000121CAF800000291E1E7084D012200235E
:10884000227005F11006636055F8043B05A803B1DA
:108850009847AE42F8D1CBE6C42B0020B42B0020C1
:10886000084B0300102C00209C2C0020DEC0ADDE45
:10887000FE011EF1E02B0020AC2C0020CC2B0020B0
:1088800040240020B02C0020E82B0020930003930C
:10889000134408EB830C002108F823104FF0020367
:1088A000ACF80830CCF804008668013600F5805337
:1088B00000F1080140D0408900F1030E01EB8E0E5B
:1088C00073452FD302260192E646B1F804C04FF655
:1088D000FF72944537D0B1F800C0BCF1000F32D020
:1088E0001F4AD1F808C01268944505D91C4ABEF841
:1088F0000860C2F800C0488806440336B6B2AEF835
:1089000008604888033001EB80018B4219D9086860
:10891000013016D0488800F1030C01EB8C0C634544
:10892000D3D2019A0399114408EB81014FF480607E
:108930004FF001060E740881013292B247F002072F
:10894000EEE6019AF8E74FF001028EF81020488811
:10895000BEF80860D0E708254BE60821DFE600BF37
:10896000E02B002008B301B370B582B00C460DF1C6
:1089700006010546FFF7F2F8A0B1BDF806000C4B62
:108980006E6800EB800003EB800001210C3000F0EA
:108990009FFC26606B6801220C3300206360AA7282
:1089A00002B070BD0A2002B070BD0520704700BF44
:1089B000E82B0020E8B110B582B00DF106010446A5
:1089C000FFF7CCF890B1BDF806300C4A03EB8303F7
:1089D00002EB8303DA6872B1A27A62B1DA6800212D
:1089E000013A0846DA60A17202B010BD0A2002B056
:1089F00010BD05207047062002B010BDE82B0020F6
:108A0000484B1B78002B32D0002934D00A884FF60F
:108A1000FF739A4229D04B883BB34B689B072CD1FC
:108A20002DE9F043B1F8088008F103039BB240F24E
:108A3000FD32934283B01CD83B4A17783FB9568920
:108A4000148934441C44A4B2B4F5806F17D3147D48
:108A50003CB9D68B948B34441C44A4B2B4F5806FDB
:108A60005DD3072003B0BDE8F083042070470220E7
:108A700070470920F6E70520704703207047BC4681
:108A80004FEA8C09E14402EB890933440C46054660
:108A900001A92648A9F80A3000F0F4FA1C2206467B
:108AA00000210BF0BBFC5EB302234FF00009B7823C
:108AB000337086F816906368336101211C4800F01A
:108AC00007FCF060238833816388B38001A9A6F88E
:108AD0000A90A6F80680154800F000FB45B1C5F8DD
:108AE0000490F268134B2A601B8985F80A902B8149
:108AF0000121114800F0E0FB044660B10020B1E71D
:108B0000B9F80A30C8F57F4808F1FD089844A9F87B
:108B10000A800820A6E7FFF70BF92046A2E7012705
:108B2000BC46ADE7C42B0020E82B00209C2C002085
:108B3000E02B0020CC2B0020AC2C0020002836D0CD
:108B4000484B1B78002B30D0002930D00A884FF6D4
:108B5000FF739A422FD04B886BB34B689B0728D189
:108B60002DE9F043B1F8089009F103039BB240F2FC
:108B7000FD32934283B020D83B4A15783DB95789DE
:108B800014893C441C44A4B2B4F5806F17D3147DFF
:108B90003CB9D78B948B3C441C44A4B2B4F5806F91
:108BA0005BD3072003B0BDE8F083022070470520A7
:108BB000704703207047042070470920F2E7A84659
:108BC000AC464FEA8C05654402EB85053B440646FE
:108BD0000C4626486B8101A900F054FA1C22074676
:108BE00000210BF01BFC57B300250323A7F81480CA
:108BF0003B70BD7563683B6101211D4800F068FB57
:108C0000F86023883B816388BB800423A7F8069023
:108C1000BB753368BB6101A97D81144800F05EFA21
:108C20007560FA68134B32601B89B572338101217C
:108C3000114800F041FB044658B12846B2E76B8961
:108C4000C9F57F4909F1FD099944A5F80A90082062
:108C5000A8E7FFF76DF82046A4E74FF00108C446E7
:108C6000AFE700BFC42B0020E82B00209C2C002085
:108C7000E02B0020CC2B0020AC2C0020184B1B78C4
:108C800023B34FF6FF7398421ED070B582B001A98E
:108C90000446144800F0F6F91C22054600210BF0AA
:108CA000BDFBADB105230126EC8001A92B702E710F
:108CB0000C4800F013FA31460B4800F0FDFA044668
:108CC00048B1002002B070BD0420704702207047F8
:108CD000082002B070BDFFF72BF8204602B070BD2F
:108CE000C42B00209C2C0020AC2C0020194B1B789E
:108CF000EBB110B582B001A9174800F0C3F91C22EE
:108D0000044600210BF08AFB0CB30623237001A953
:108D1000114800F0E3F9114B1A7852B901211048BB
:108D200000F0CAFA044668B1002002B010BD02206B
:108D30007047012201210A481A7300F0BDFA044667
:108D40000028F1D1FEF7F4FF204602B010BD082044
:108D500002B010BDC42B00209C2C0020CC2B002086
:108D6000AC2C00202DE9F043344C2478002C60D04A
:108D70003AB333B39F88012F5ED8314C07EB870C91
:108D8000013704EB8C0CBFB24FF6FF7E4FF00008AA
:108D90009CF8004074B91C68DCF8045005F5805656
:108DA000002C43D06588033504EB8504B4420BD313
:108DB000C3F80080022F9F800CF1140C3CD00227D6
:108DC000E6E70520BDE8F08325680135F0D0658829
:108DD000033504EB8505AE42EAD3B4F80490F145BF
:108DE00015D0B4F80090B9F1000F10D01C60A58820
:108DF0008542D1D125888D42CED1A16811601968F4
:108E0000104B51601B8913810020BDE8F083AE42F6
:108E1000CED92C6801342C46CAD0B5F8029009F19D
:108E2000030905EB8905AE42D7D2C1E705F1080475
:108E3000BCE70220BDE8F0830A20C3E7C42B002072
:108E4000E82B0020CC2B0020334B1B78002B5CD070
:108E500051B34AB32DE9F0419588012D5AD82F4FCF
:108E600005EB850307EB830701353B78ADB24FF681
:108E7000FF7C4FF0000E43B1022D958007F11407DF
:108E800048D03B780225002BF6D113687C6804F5A6
:108E90008056002B3BD05C88033403EB8403B34241
:108EA00004D3C2F800E0E7E7052070471C680134EE
:108EB000F7D05C88033403EB8404A642F1D3B3F803
:108EC0000480E04512D0B3F80080B8F1000F0DD057
:108ED00013601C888442D9D19B680B601268104BC8
:108EE0004A601B890B810020BDE8F081A642D8D9D9
:108EF000236801332346D4D0B4F8028008F1030874
:108F000004EB8804A642DAD2CBE70220704704F1D2
:108F10000803C4E70A20E7E7C42B0020E82B002061
:108F2000CC2B0020334B1B78002B5CD051B34AB3C1
:108F30002DE9F0419588012D5AD82F4F05EB850377
:108F400007EB830701353B78ADB24FF6FF7C4FF05E
:108F5000000E43B1022D958007F1140748D03B78ED
:108F60000225002BF6D113687C6804F58056002B8F
:108F70003BD05C88033403EB8403B34204D3C2F8D0
:108F800000E0E7E7052070471C680134F7D05C88F3
:108F9000033403EB8404A642F1D3B3F80480E04524
:108FA00012D0B3F80080B8F1000F0DD013609C8888
:108FB0008442D9D19B680B601268104B4A601B89B0
:108FC0000B810020BDE8F081A642D8D92368013387
:108FD0002346D4D0B4F8028008F1030804EB8804D7
:108FE000A642DAD2CBE70220704704F10803C4E7B7
:108FF0000A20E7E7C42B0020E82B0020CC2B002020
:1090000020B119B103680B6000207047052070473C
:1090100099B110B4B2FBF3F403FB1424A4B244B925
:10902000C0E9001484608281C38120465DF8044B4E
:10903000704709205DF8044B70470E20704700BF51
:1090400082B050E8022FC188B2EB324F4FF00003DC
:1090500017BF92B241EA014142EA014104E042688D
:10906000B2EB324F08BF012340E80212002AE8D1D8
:109070008DF807309DF80730002B0CBF1120002021
:1090800002B0704730B482B050E8013F9DB2C4894D
:1090900025448489A54228BF2D1B0489A54202BF0F
:1090A000BFF32F8F002207E0C5EA030540E8015413
:1090B000002CE9D14FF001028DF803200193019BB0
:1090C0009DF803200B602AB10B880068184402B099
:1090D00030BC704702F0FF031846F8E70A884B8857
:1090E0009A4201D00020704750E8012FC2EA0242A4
:1090F00040E80123002BF7D10120704730B482B043
:1091000050E8023F1FFAA3F5C488A54202BFBFF38F
:109110002F8F00220DE0C48925448489A54228BFF1
:109120002D1BC3EA054540E80254002CE8D14FF05E
:1091300001028DF803200193019B9DF803200B6031
:109140002AB14B880068184402B030BC704702F066
:10915000FF031846F8E700BF0A884B889A4201D0FF
:109160000020704750E8022FC2EA224240E8022362
:10917000002BF7D10120704701F01F024B0901219C
:1091800000EB8300914000F07FB800BF10B50123D1
:1091900001F01F04490900EB810003FA04F100F01B
:1091A00067F8E04000F0010010BD00BF01F01F02B1
:1091B00001234909934000EB8100D94300F070B8C6
:1091C0004B0901F01F0150F82300C84000F00100D6
:1091D000704700BF2DE9F84F01F1FF394FEA5913ED
:1091E00000F104090F46064609EB830904460025F1
:1091F0004FF0010823686FEA030B9BFAABFBBBFA45
:109200008BFBBBF1200F20D0AB445F450CD81CE09A
:109210002368DB4393FAA3F3B3FA83F3202B05EB24
:10922000030B12D05F4510D90BF01F0A4FEA5B10F9
:1092300008FA0AF106EB800000F01AF820FA0AF0AA
:10924000C307E5D45846BDE8F88F04344C4505F112
:109250002005CFD1BB465846BDE8F88F50E8002F17
:109260000B4640E8003C9CF0000FF7D110467047D9
:1092700050E8002F42EA010340E8003C9CF0000F58
:10928000F6D11046704700BF50E8003F43EA0102A4
:1092900040E8002C9CF0000FF6D11046704700BF4C
:1092A00050E8003F03EA010240E8002C9CF0000F68
:1092B000F6D11046704700BF50E8002F02EB0103C3
:1092C00040E8003C9CF0000FF6D11046704700BF0C
:1092D00050E8003F03EB010240E8002C9CF0000F37
:1092E000F6D11046704700BF50E8003FA3EB0102E3
:1092F00040E8002C9CF0000FF6D11046704700BFEC
:10930000012350E800CF4CEA030240E8002191F02D
:10931000000FF6D160467047012350E8002F42EA63
:10932000030C40E800C191F0000FF6D16046704791
:10933000002350E800CF0CEA030240E8002191F03E
:10934000000FF6D160467047B8B130B4D0E90112D1
:10935000521A0468D2B2531E2160DBB242B10168D6
:109360000A685C1E551C0D601370E3B2FF2BF6D12A
:1093700003680020187130BC70470E20704700BF92
:10938000F0B583B002AB002503F8015D0446184632
:10939000FEF7A6FBD4E900311A688A4210D9511EA3
:1093A00019602168A3680F6812F8015C0A79268A9F
:1093B000E068DB1BDBB29A4206FB050538BF0B7188
:1093C0009DF80700FEF7B2FB284603B0F0BD00BFD2
:1093D00030B583B002AB002203F8012D05461846D4
:1093E0000C46FEF77DFB2A681368591C1160E9687A
:1093F0002A8A641AB4FBF2F41C709DF80700FEF789
:1094000095FB03B030BD00BF826842B110B5044681
:1094100043690168006998470023A36010BD704745
:109420000EB400B582B0039929B102AA04AB42F888
:10943000043D00F08BF802B05DF804EB03B0704718
:109440002DE9F84F88469045174605461E46DDE94A
:109450000AB175D343464FF00109B3FBF7F39F42BE
:1094600009F10109F9D9B14538BFB14611F0010A36
:10947000AA6802D1BBF1000F43D1012402E0013EF2
:1094800007FB04F4012EFAD8B8FBF4F18F42F7D9A8
:109490002D4E05E0B4FBF7F4A4B1B8FBF4F1AA68D3
:1094A000705C531CAB602B689854D5E901329A422A
:1094B00004FB1188EED32846FFF7A6FFB4FBF7F4B0
:1094C000002CEAD1BAF1000F15D0BBF1000F12D079
:1094D000CB4510D92024AB682A68591CA960D45404
:1094E000D5E901329A420BF1FF3B06D2BBF1000FE6
:1094F00001D0CB45EFD1BDE8F88F2846FFF784FFB8
:10950000F4E78B0717D42024CB45B6D92B68511C20
:10951000A9609C54D5E901329A420BF1FF3B05D278
:10952000BBF1000FA9D0CB45F0D1A6E72846FFF745
:109530006BFFAA68F4E7002E0CBF30242024E3E779
:109540004FF001098FE700BFFC480300002900F03D
:10955000F4812DE9F04F054685B092460C460B7814
:10956000DFF8A0B501E0237893B1013483B1252B56
:1095700015D0AA682968501CA8608B54D5E901321F
:109580009A42F0D32846FFF73FFF2378002BECD117
:109590002B7B002B40F0148105B0BDE8F08F2146F5
:1095A000002711F8012B2D2A00F0E180302A00F06D
:1095B000E2802B2A00F0D2802A2A00F0E080A2F17B
:1095C0003006F3B2092B03D9B8E1A3F13006014606
:1095D000084606EB860310F8012BA2F13004092C93
:1095E00002EB4303F1D92E2A00F0D580002301318C
:1095F00001E011F8012B02F0FB0068280C46F8D0BE
:10960000253A532AAFD801A151F822F0CD97020094
:109610006795020067950200679502006795020052
:109620006795020067950200679502006795020042
:109630006795020067950200679502006795020032
:109640006795020067950200679502006795020022
:109650006795020067950200679502006795020012
:109660006795020067950200679502006795020002
:1096700067950200679502006795020067950200F2
:1096800067950200679502006795020067950200E2
:1096900067950200679502006795020067950200D2
:1096A00067950200679502006795020067950200C2
:1096B00067950200679502006795020067950200B2
:1096C00067950200679502006795020067950200A2
:1096D0006795020067950200E79702006795020010
:1096E0006795020067950200679502006795020082
:1096F0006795020067950200679502006795020072
:109700006795020001980200239802006795020005
:109710006795020067950200679502002398020092
:109720006795020067950200679502006795020041
:109730006795020067950200739802006795020022
:1097400067950200E79802006795020021990200E0
:109750006795020067950200E797020047F004074B
:109760000C46214611F8012B2D2A7FF41FAF47F03C
:1097700001070C46F5E747F002070C46F1E7DAF877
:1097800000301A1DCAF8002062781E682E2A04F1E3
:1097900002007FF42BAF4A78A2F13003092B00F2CC
:1097A0005081002303EB830302EB430310F8012FE6
:1097B000A2F130010929A3F13003F3D9014616E7DC
:1097C000284605B0BDE8F04FFFF71EBEAB682A681B
:1097D000591CA9604FF02501D154D5E901329A42B4
:1097E000FFF4C1AECEE6DAF80020111DCAF8001071
:1097F00011682846CDE900671022FFF721FEB2E686
:10980000DAF80020131DCAF80030AB682968127816
:10981000581CA860CA54D5E901329A42FFF4A3AE9D
:10982000B0E6DAF80020111DCAF80010D2F8008066
:1098300088EAE872A2EBE872092A4FF0010107DD1D
:10984000AF48A0FB0202D208092A01F10101F7DCAE
:10985000994238BF1946894607F00202002E71D19D
:109860002AB1002B00F04781FA0700F18D80002615
:109870008AE0DAF80020131DCAF80030AB682968C6
:109880001768581C3022A860CA54D5E901239342B6
:1098900080F028812A68581C7821A860D154D5E925
:1098A0000123934280F019810F2F03D93A46120900
:1098B0000F2AFCD84FF0805603E036093FF453AE30
:1098C000AB682968B7FBF6F2581CA8601BF80200C9
:1098D000C854D5E90131994206FB1277EDD32846E9
:1098E000FFF792FDE9E7DAF800301A1DCAF8002008
:1098F000D3F80080FB077ED54746A7EB080917F889
:10990000013B002B5DD0AA682968501CA8608B54CD
:10991000D5E901329A42F0D32846FFF775FDECE70E
:10992000DAF80020111DCAF8001011682846CDE9A8
:1099300000670A22FFF784FD15E6704708460026F7
:10994000214650E6B8F1000F01DB780700D5013E53
:1099500002B1CBB1F90717D4002E88D0B14513D28C
:1099600020220393A9682B68481CA8605A54D5E9A3
:109970000131994206F1FF365DD2002E00F0BD8024
:10998000B145EFD1039B4E46B8F1000FC0F2928073
:109990007A070AD5A9684A1CAA602A682B20505465
:1099A000D5E90121914280F0928007F00302022A5A
:1099B0005FD0CDE9006741460A222846FFF740FD07
:1099C000D1E54E457FF6CFAD202705E04E453FF46B
:1099D000CAAD002E3FF4C7ADAB682A68591CA96018
:1099E000D754D5E901329A4206F1FF36EED3284624
:1099F000FFF70AFDEAE7B8F1000F24D040460AF06D
:109A000015FD0746BE4220D9FEB14FF0200902E005
:109A1000BE421AD0CEB1AB682A68591CA96002F8C0
:109A20000390D5E901329A4206F1FF36F0D3284679
:109A3000FFF7EAFCECE728460292FFF7E5FC029A02
:109A40009BE70146D2E54746DCE708F1FF3818F806
:109A5000013F002B3FF487ADAA682968501CA8601D
:109A60008B54D5E901329A42F1D32846FFF7CCFC5A
:109A7000EDE7002B9DD1002E3BD0B14599D202934A
:109A800023464C469946AA682B68501C4FF030017B
:109A9000A8609954D5E901329A4206F1FF3605D201
:109AA0002EB3B442EFD1029B4C4682E72846FFF723
:109AB000ABFCF5E7A9684A1CAA602A682D2050541F
:109AC000D5E901219142C8F10008FFF46EAF2846A4
:109AD0000293FFF799FC029B67E72846FFF794FC87
:109AE000AB68E1E62846FFF78FFCAB68D2E6029B45
:109AF0004C4600265DE71E4646E7039BB7E600BFDF
:109B0000CDCCCCCCFC48030010B582B038B1B9B193
:109B100001600B68114602B0BDE8104018470B48C1
:109B20000B4C0C4B0C4A0D49001BC0080E240004C2
:109B300040F001000094FDF761F80E2002B010BD66
:109B40000248034C034B064AEDE700BF206B0300BD
:109B5000D86A03000C490300C0490300C849030048
:109B6000F44903002DE9F04182B0002854D0002AC6
:109B700064D0D0F800C0BCF1000F69D01C46002BA7
:109B800033D04768D7F80480B3FBF8F708FB1737E2
:109B9000002F3CD18F0723D112F0030F53D1C76898
:109BA000B94211D23248334C334B344A3449001B4A
:109BB000C0081024000440F001000094FDF71EF8D6
:109BC000204602B0BDE8F0814E1E05693444AC4227
:109BD000E8D8DCF80C40A44602B0BDE8F04160478C
:109BE0002348244C244B274AE0E72148214C224BB0
:109BF000254A2349001BC0080924000440F0010045
:109C00000094FCF7FBFF204602B0BDE8F081184845
:109C1000184C194B1D4AECE71548164C164B1C4ABC
:109C20001749001BC0080E24000440F001000094F6
:109C3000FCF7E4FF204602B0BDE8F0810C480D4C73
:109C40000D4B144AECE70A480A4C0B4B124AADE79D
:109C5000084C0748084B114A0949001BC008082452
:109C6000000440F001000094FCF7C8FF2046A8E77C
:109C7000206B0300D86A030020490300C44A030094
:109C8000C8490300884A0300044A03005C4A0300F1
:109C9000C0490300544A0300A04A0300484A030095
:109CA000F0B583B0002843D0D0F800C0BCF1000F5D
:109CB0004ED03AB34768D7F800E00EF1FF370F42B5
:109CC00031D1C768B94210D229482A4C2A4B2B4AB5
:109CD0002B49001BC0081024000440F00100009430
:109CE000FCF78CFF204603B0F0BD4D1E04690EFB4F
:109CF0000255A542E8D8DCF81040A44603B0BDE800
:109D0000F04060471B4C1A481B4B1E4A1C49001B65
:109D1000C0080924000440F001000094FCF76EFF25
:109D2000204603B0F0BD1248124C134B164ACFE741
:109D3000104C0F48104B154A1149001BC0080E2447
:109D4000000440F001000094FCF758FF2046CAE7E9
:109D5000084C0748084B0E4A0949001BC008082454
:109D6000000440F001000094FCF748FF2046BAE7E9
:109D7000206B0300D86A03003449030070490300D4
:109D8000C8490300044A030048490300C0490300CE
:109D9000484A030029DF704728DF704708467047AC
:109DA00000207047024B187A003018BF012070471E
:109DB000642D0020034B187A0122B0FA80F05A7407
:109DC00040097047642D002008B510461A460AF075
:109DD0001AFB002008BD00BF08B51422002104486A
:109DE0000AF01CFB0348FFF72BF9002008BD00BF59
:109DF000642D0020542D002010B5094C094B436000
:109E00002046FFF77DFA40B90AF016F91C232074AA
:109E10008C2205490548FFF7FBF8002010BD00BF64
:109E2000642D0020FC4A0300C82C0020542D002083
:109E300030B55E4C237A87B0002B3AD05C4B1B6860
:109E4000022222721A79002A3ED0012A0CD1D3E9CB
:109E500003021044FFF7A0FF002849D0112803D1C6
:109E60000123237207B030BD19688A68C2B100228D
:109E700068460092C0E902220325026101959A68B2
:109E800005921A79002A4BD0012A07D102228DF8B7
:109E90000020DA68120302925B6904938B6898478A
:109EA00000234449444823726360FFF755F907B023
:109EB00030BD40494048FFF721F93D4A0346106054
:109EC0000028BDD16060F2E7D3E90525521BB2F549
:109ED000805F28BF4FF48052D3E903109208012A13
:109EE00038BF012229442844FFF754FF0028B5D188
:109EF000227C002ADBD1227A002AD8D0022A0AD179
:109F0000E0601A79DAB1012A05D1D3E904210132DE
:109F10008A421A611FD0637C73B10AF07DF8C6E7EC
:109F200001228DF800201A690292DA6803925B69B7
:109F300004938B689847B3E7FFF77AFFB7E7D3E955
:109F40000512881AB0F5805F94BF121802F580528E
:109F500091429A61DFD10022227219688868A8B103
:109F600068460092C0E90122C0E903229A6805927E
:109F70001A7982B1012A07D102228DF80020DA680D
:109F8000120302925B6904938B68984709490A4857
:109F9000FFF7E2F8BFE701228DF800201A6902926C
:109FA000DA6803925B690493EEE700BF642D00203A
:109FB0007C2D0020782D0020542D00202DE9F04725
:109FC00082B082468946174801A990461F46FFF78E
:109FD00059F810B3044600211C220D46124E0AF017
:109FE0001DFA0A9BC4F800A0A360C4E90389676155
:109FF00001A925710B48FFF771F8301DFFF780F9B3
:10A0000038B9747C34B9FFF713FF204602B0BDE8BD
:10A01000F087284602B0BDE8F087042002B0BDE812
:10A02000F08700BF542D0020642D00202DE9F0435F
:10A0300083B081460D46164801A917469846FFF79A
:10A0400021F808B304461C2200210AF0E7F9114E5A
:10A05000C4F8009001232D0BC4E90285676101A9B2
:10A0600023710B48FFF73AF8301DFFF749F938B96B
:10A07000747C34B9FFF7DCFE204603B0BDE8F08302
:10A08000002003B0BDE8F083042003B0BDE8F083F6
:10A09000542D0020642D002000F0FD03012B00D082
:10A0A000704730B5604CA0F10100B0FA80F0237A1F
:10A0B0004009002287B020746274002B3AD05B4BB9
:10A0C0001B68022222721A79002A3ED0012A0CD182
:10A0D000D3E903021044FFF75FFE002849D011289E
:10A0E00003D10123237207B030BD19688A68C2B159
:10A0F000002268460092C0E9022203250261019510
:10A100009A6805921A79002A4BD0012A07D10222B7
:10A110008DF80020DA68120302925B6904938B6861
:10A12000984700234249434823726360FFF714F8BD
:10A1300007B030BD3E493F48FEF7E0FF3B4A0346CB
:10A1400010600028BDD16060F2E7D3E90525521BFD
:10A15000B2F5805F28BF4FF48052D3E90310920814
:10A16000012A38BF012229442844FFF713FE0028A2
:10A17000B5D1227C002ADBD1227A002AD8D0022A4B
:10A180000AD1E0601A79CAB1012A05D1D3E90421C4
:10A1900001328A421A611DD0637C63B109F03CFF31
:10A1A000C6E701228DF800201A690292DA6803924C
:10A1B0005B690493B3E7FFF73BFEB9E7D3E9051208
:10A1C000881AB0F5805F94BF121802F58052914250
:10A1D0009A61E1D10022227219688868A8B16846A4
:10A1E0000092C0E90122C0E903229A6805921A7917
:10A1F00082B1012A07D102228DF80020DA68120309
:10A2000002925B6904938B68984709490948FEF7F5
:10A21000A3FFC1E701228DF800201A690292DA68D3
:10A2200003925B690493EEE7642D00207C2D0020EF
:10A23000782D0020542D0020831E012B00D970475B
:10A2400030B58E4C237A87B0002B31D0022B2BD126
:10A2500003286BD1E3680133082B79D9884B00229E
:10A260001B68E26022720D2519688A68C2B100225B
:10A2700068460092C0E90222026101959A6805923F
:10A280001A79002A00F0B980012A07D102228DF83C
:10A290000020DA68120302925B6904938B68984786
:10A2A00078497948FEF758FF637C1BB109F0B4FE8A
:10A2B00007B030BD237A002B5BD0714B1B680222A4
:10A2C00022721A79002A5FD0012A0BD1D3E9030246
:10A2D0001044FFF761FD002869D0112802D1012345
:10A2E0002372E5E719688A68C2B1002268460092C5
:10A2F000C0E902220325026101959A6805921A7944
:10A30000002A70D0012A07D102228DF80020DA68D5
:10A31000120302925B6904938B68984700235949A2
:10A32000594823726360FEF717FFC1E7544B0022C0
:10A330001B68E2601A796AB1012AB5D1D3E9042118
:10A3400001328A421A6111D0637C002BAED1B4E78E
:10A35000E360F9E7D3E90512881AB0F5805F94BF8E
:10A36000121802F5805291429A61EDD100252572B2
:10A370007AE744494448FEF7C1FE414A034610606B
:10A3800000289CD1606093E7D3E90525521BB2F504
:10A39000805FD3E9031028BF4FF480529208012A4E
:10A3A00038BF012229442844FFF7F4FC93E7227CBC
:10A3B000002A7FF47DAF227A002A3FF479AF022A87
:10A3C0000AD1E0601A7912B3012A05D1D3E9042138
:10A3D00001328A421A6126D0637C002B7FF466AF7B
:10A3E000FFF726FD64E701228DF800201A6902922A
:10A3F000DA6803925B6904938EE701228DF80020EE
:10A400001A690292DA6803925B69049346E7D3E91A
:10A410000512881AB0F5805F94BF121802F58052B9
:10A4200091429A61D8D10022227219688868A8B135
:10A4300068460092C0E90122C0E903229A680592A9
:10A440001A7982B1012A07D102228DF80020DA6838
:10A45000120302925B6904938B68984709490A4882
:10A46000FEF77AFEB8E701228DF800201A69029201
:10A47000DA6803925B690493EEE700BF642D002065
:10A480007C2D0020782D0020542D0020FEF75CBF8D
:10A490002DE9F041058ACE1C043D2E440746B6FB4B
:10A4A000F5F6FEF76DFF78B3F6B24FF48073013E18
:10A4B0000446C5800760838027D08046002509E0D8
:10A4C0006379AE4203F101036371C8F800000760CD
:10A4D00080461AD03846FEF753FF01350028EFD1E9
:10A4E0006679721E14D02346013082421B68FBD16C
:10A4F0001F684EB1002523682146013538461C46A9
:10A50000FEF766FFAE42F6D100242046BDE8F0819A
:10A510002768EFE704300121FEF7DABEF8B5012124
:10A5200004460430FEF7E0FEC0B200B1F8BD667923
:10A53000721E12D02346013082421B68FBD11F6875
:10A54000002EF3D0002523682146013538461C46ED
:10A55000FEF73EFFAE42F6D1F8BD2768F2E700BF36
:10A560002DE9F843C788467907FB06F6043E02EB5F
:10A57000030C0446664503F1040015468846B0FB0B
:10A58000F7F238BFF51A07FB120012B1013A24683E
:10A59000FCD13E1AAE4228BF2E469DB14FF00009B5
:10A5A0000430AD1B2044324608EB090109F02BFFB3
:10A5B000AF42B14424683E464FF0000028BF2E460B
:10A5C000002DEDD1BDE8F8832DE9F843C788467921
:10A5D000154607FB06F6043E05EB030C1A1D6645FF
:10A5E00004468846B2FBF7F038BFF51A07FB102186
:10A5F00010B101382468FCD17E1AAE4228BF2E4625
:10A600009DB14FF0000904312144AD1B324608EBE7
:10A61000090009F0F8FEAF42B14424683E464FF00D
:10A62000000128BF2E46002DEDD1BDE8F88300BF04
:10A6300041DF7047064A074B10B5002414701C60B8
:10A64000BFF35F8F0449054800F040F8204610BD75
:10A65000882D00208C2D0020284B0300802D002009
:10A6600000B583B002A8002300F8013DFDF738FAD9
:10A67000F1EE103A23F09F03E1EE103ABFF35F8F43
:10A680000A4B4022C3F884219DF80700FDF74EFADB
:10A6900009F0D2FC28B920BF40BF20BF03B05DF84D
:10A6A00004FBFFF7C5FF03B05DF804FB00E100E029
:10A6B00082680023936082681361826853618268B4
:10A6C000D3608268536082681360704701600B68D2
:10A6D00043604A68934204BF00234360704700BF51
:10A6E000436843B1026891680B44436052689342E7
:10A6F00004BF00234360704730B4184DA5F5947231
:10A70000AB1ADB1003EBD3735B1002EBC30152F8FF
:10A710003330984228BF0C4605D311E052F833304D
:10A7200098420CD221468B1ADB1003EBD3735B10DB
:10A730008A4202EBC304F1D3094830BC70470D468E
:10A74000984204D904F10802AA42D9D3F4E7606818
:10A75000034B002808BF1846EFE700BF7C4C0300FE
:10A76000404B03000A7B10B4D1E90043002A0ABF22
:10A77000234600220122027103605DF8044B7047FA
:10A7800010B4034600791C688A6840B14868011B10
:10A7900091420ED9A01818605DF8044B7047086804
:10A7A000211A91420BD8012218601A715DF8044BEE
:10A7B0007047002218601A715DF8044B7047A01AA8
:10A7C00018605DF8044B704730B4904B1B78062B33
:10A7D00020D08F4B1B68062B00F085808D4AD2F865
:10A7E000883043F47003C2F88830BFF34F8FBFF353
:10A7F0006F8F4FF01023D3F80022002AC0F2868119
:10A80000D3F80432002BC0F28181834B834A1A6053
:10A8100030BC7047824B1B681D07DAD1814B1B6827
:10A8200003F0F002302A00F09E8003F0E003402B9A
:10A8300000F099807B4B1B6803F0F003302B00F095
:10A84000B980784B1B6803F0F002302A56D003F031
:10A85000E003402B52D0734B1B6803F0F003302B06
:10A8600000F0B6806F4B1B6803F0F002302A66D010
:10A8700003F0E003402B62D06A4B1B6803F0F00347
:10A88000302B00F0B580674B1B6803F0F003302BD2
:10A8900079D0644B1B6803F0F003502B00F0E48088
:10A8A000604B1B6803F0F002302A37D003F0E0035E
:10A8B000402B33D05B4B1B6803F0F002302A03D0EF
:10A8C00003F0E003402B84D14FF08043D3F8002401
:10A8D000D20744BF6FF00102C3F800244C4B1B6841
:10A8E000062B7FF47BAF504B1B68062B7FF476AFB3
:10A8F0004E4A136843F4806313606FE74C4B434A3E
:10A900001B6812784B49C3F34233062A0B6048D1C7
:10A91000434B1B6819077FF45CAF9CE7464A3B4BEF
:10A9200012681B78454902F04F02062B0A607FF43B
:10A9300050AF3B4B1B6819077FF44BAFBAE74FF0A2
:10A9400080430022C3F80C21C3F81021C3F8382536
:10A950002E4B1B78062B7FF43CAF314B1B681B073B
:10A960007FF437AF88E7364B284A1B6812783549A1
:10A97000C3F30423062A0B60EAD1294B1B681C078A
:10A980007FF427AF56E7304C204A304912783048E0
:10A99000304B0525256001250D6000243F21046012
:10A9A0001960062A7FF415AF1D4B1B681C077FF446
:10A9B00010AF6EE7154B284A1B7828491160062B0B
:10A9C0007FF407AF164B1B6818077FF402AF38E718
:10A9D00023490E4BCA681B7822F08072062BCA608E
:10A9E0007FF4F7AE0E4B1B681A077FF4F2AE39E71F
:10A9F000064B1C4A1B780321062B11607FF4E9AE3D
:10AA0000074B1B681D077FF4E4AE3CE7E00F00F046
:10AA10003001001000ED00E0342200200090D0034F
:10AA2000E40F00F0E80F00F0340100103C17004084
:10AA3000440200103C05004058020010E40E0040A3
:10AA40002403001040350140105600408856004055
:10AA5000185600401456004074C007400DF0ADBABF
:10AA6000F0ED00E0A00500404FF08053404AD3F8DD
:10AA70000414C2F82015D3F80814C2F82415D3F82A
:10AA80000C14C2F82815D3F81014C2F82C15D3F8FA
:10AA90001414C2F83015D3F81814C2F83415D3F8CA
:10AAA0001C14C2F84015D3F82014C2F84415D3F88A
:10AAB0002414C2F84815D3F82814C2F84C15D3F85A
:10AAC0002C14C2F85015D3F83014C2F85415D3F82A
:10AAD0003414C2F86015D3F83814C2F86415D3F8EA
:10AAE0003C14C2F86815D3F840142248C2F86C151B
:10AAF000D3F844140378C2F87015062B7FF469AEBE
:10AB00001D4B1B6818077FF464AEC9E61B4B01227E
:10AB1000C3F80425D3F80024002AFBD04FF01023FB
:10AB200015221649C3F80022D1F80034002BFBD0BF
:10AB30004FF010221521114BC2F80412D3F8002453
:10AB4000002AFBD000220D49C3F80425D1F80034B7
:10AB5000002BFBD0BFF34F8F09490A4BCA6802F4A0
:10AB6000E0621343CB60BFF34F8F00BFFDE700BF30
:10AB700000C00040E00F00F0E40F00F000E00140F2
:10AB800000ED00E00400FA05054A4FF0A043105C18
:10AB9000D3F8043523FA00F0C04300F001007047F9
:10ABA0006C500300044B195C4FF0A04201238B4012
:10ABB000C2F80C35704700BF6C500300044B195CA1
:10ABC0004FF0A04201238B40C2F80835704700BF08
:10ABD0006C5003004FF0A04310B44FF480204FF4AA
:10ABE00000344FF400214FF48012C3F80845C3F835
:10ABF0000805C3F80815C3F808255DF8044B70472D
:10AC00004FF0A04310B44FF480204FF400344FF4C1
:10AC100000214FF48012C3F80C45C3F80C05C3F8AB
:10AC20000C15C3F80C255DF8044B7047074B4FF02B
:10AC3000A041185CD1F804350122824022EA0300C9
:10AC40001340C1F80805C1F80C3570476C5003007B
:10AC5000054A4FF0A043105CD3F8103523FA00F0FA
:10AC6000C04300F001007047685003000D2809D070
:10AC70000E2809D00F2809D010280CBF03204FF050
:10AC8000FF30704700207047012070470220704756
:10AC9000014B185C704700BF68500300C20730B416
:10ACA0001AD54FF0A0430322C3F844274FF40035D0
:10ACB000C3F848274FF48024C3F84C274FF40021F1
:10ACC000C3F850274FF48012C3F80855C3F808455D
:10ACD000C3F80815C3F8082583070AD54FF0A04329
:10ACE0000C22C3F83427C3F83827C3F83C27C3F82D
:10ACF000402730BC704700BF10B570B101280BD1A0
:10AD00000D4C2369A0703BB1D3E9002301202261DF
:10AD100098472369002BF7D110BD074CA368012287
:10AD20006270002BF8D0D3E900230020A26098477E
:10AD3000A368002BF7D1EFE7902D002070B910B574
:10AD4000074CA368012262703BB1D3E900230020C5
:10AD5000A2609847A368002BF7D110BD704700BFD1
:10AD6000902D002030B5012883B01CD015D30328C6
:10AD700011D100F0C9F802A800231F4C00F8013DD2
:10AD8000FCF7AEFEE368013BE360E56865B39DF860
:10AD90000700FCF7CBFE03B030BD184B0122C3F80F
:10ADA000802003B030BD02A80023134C00F8013D01
:10ADB000FCF796FE237853B1E3689DF80700013352
:10ADC0000122E360A270FCF7B1FE03B030BD0C4875
:10ADD0006360A3602361E36000F088F809F02CF958
:10ADE00030B101232370E7E700F0A2F8A570CEE7A9
:10ADF00000F08AF8F5E700BF902D002000E100E0A8
:10AE0000F9AC020030B585B00478094A094B4568B1
:10AE10008DF80040047AC068039053F82130019502
:10AE20008DF8084052F821106846984705B030BDAB
:10AE3000A42D0020A82D002030B585B004784568E9
:10AE40008DF80040D0E90240064A074B039053F8C2
:10AE5000213001958DF8084052F821106846984736
:10AE600005B030BDA42D0020A82D0020F0B51A4B50
:10AE700006781A4D0C6991F81DE045F82640074602
:10AE8000174803F806E040F826200C4694460FCCFD
:10AE900089B06D460FC594E80F0085E80F00049651
:10AEA000BEF1000F0BD0BCF1000F0E4A694607F14E
:10AEB000040008BF002200F0FFFF09B0F0BDBCF1A4
:10AEC000000F094A694607F10C0008BF002200F094
:10AED000C1FD09B0F0BD00BF6C360020A42D0020DC
:10AEE000A82D002005AE020039AE0200054A1379F4
:10AEF0002BB90121106053711846117170478520DC
:10AF0000704700BFAC2D0020084B1A68D20706D44A
:10AF10000122C02183F80013C3F880211A604FF08A
:10AF200080430122C3F81825704700BF00E100E00C
:10AF3000044B01221A604FF08042D2F81834DB0330
:10AF4000FBD470470C00004010B5154B1A6882B056
:10AF50007AB10021134A19601B68507900934FF0B1
:10AF600080410123009CC1F8083310B91168537166
:10AF700088470D4B1A6882B100221A601B68019342
:10AF80004FF080420221074B0198C2F808131B685A
:10AF9000012002B0BDE81040184702B010BD00BF4C
:10AFA00000010040AC2D00200401004070B51E4C93
:10AFB00094F8585082B0A5BB4FF0FF3329460422C5
:10AFC00004F15400C4E90033C4E90233C4E9043392
:10AFD000C4E90633C4E90833C4E90A33C4E90C33CD
:10AFE000C4E90E33C4E91033C4E91233236509F010
:10AFF00015FA0E4B0E4A0F4E1560C02183F806134A
:10B000004021C3F8801119601368019301994FF032
:10B0100000430122284684F85820C6F8043302B0C1
:10B0200070BD082002B070BDB42D002000E100E02A
:10B030007C61004000600040034B93F858000030F2
:10B0400018BF0120704700BFB42D0020F0B56C4B35
:10B050001C1894F93050002D68DA8E78C6F340063B
:10B060009646002E5CD11D6A013500F0B58009249A
:10B070000C2553F8247001375BD004F1010C53F810
:10B080002C70013700F0B380A71CAF4246D253F8B2
:10B090002720013200F0AD8004F1030CAC453DD215
:10B0A00053F82C70013700F0A28004F1040CAC4579
:10B0B00034D253F82C70013700F0998004F1050C5C
:10B0C000AC452BD253F82C70013700F0908004F17E
:10B0D000060CAC4522D253F82C70013700F0878063
:10B0E00004F1070CAC4519D253F82C7001377ED00F
:10B0F00004F1080CAC4511D253F82C70013776D00E
:10B1000004F1090CAC4509D253F82C7001376ED00C
:10B110000A34AC4202D2DC6A013409D00420F0BD0A
:10B120001D68013567D001240825A2E70820F0BD7D
:10B130000B241F1865B243F824E087F83050002E26
:10B1400051D08A78540714D4D6073BD44C784FF0AA
:10B15000A04600F5E072A40046F82240294EC4083B
:10B1600000F0070C375D012202FA0CF23A43325527
:10B170008A780C7812F0020209D1083D2B4410465F
:10B1800093F8502042EA841483F85040F0BDAB009D
:10B1900003F1804303F5C0430202D3F8101521F4F4
:10B1A000473121F44071C3F810152404D3F8101569
:10B1B00004F4403402F4F85222430A43C3F8102541
:10B1C0000020F0BD820002F1A042D2F8004724F036
:10B1D0000204C2F80047C1E7082684F83060C3F8CB
:10B1E00020E0354634461C4484F84800A9E764460C
:10B1F0009FE73C469DE700251A6084F83050A0E7A1
:10B20000B42D0020082E002070B42E4D2E1883B0CF
:10B2100096F93030072B1CDD2B4493F848309B09FE
:10B22000032B41D0012B14BF4FF440314FF40031B8
:10B23000800000F1A040D0F8002722F44032C0F88E
:10B240000027D0F800370B43C0F8003703B070BCBC
:10B250007047DAB2072AF9D8980000F1804000F56B
:10B26000C04003F14002D0F81045920092B244F081
:10B27000010402F18042C0F8104502F5C0420020EE
:10B280000190019C10600029E0D096F9302055F81B
:10B290002220002ADAD001220B4902FA03F3C1F876
:10B2A000043303B070BC70474FF0A043D3F810359F
:10B2B000C34013F0010F0CBF4FF400314FF4403185
:10B2C000B6E700BFB42D0020006000404FF0A0435F
:10B2D000D3F8103523FA00F000F00100704700BFEA
:10B2E0002DE9F04186B00023A14A01931668012E92
:10B2F00000F054811E469F4B1A68012A00F05D81C0
:10B300009D4B1A68012A00F06A819C4B1A68012A39
:10B3100000F077819A4B1A68012A00F08481994BDA
:10B320001A68012A00F09181974B1A68012A00F0EF
:10B330009E81964B1A68012A0CD0954B1B68012BF5
:10B3400000F0A58116F0FF0F15D1002E30DB06B0FE
:10B35000BDE8F0818F4AD2F804231706EDD500220C
:10B360001A601A6804926033049A1B68012B46F035
:10B37000800600F08C81884F00240125A30003F192
:10B380008043354203F5C0434FEA45050BD0D3F85F
:10B39000100557F82420D3F81015C0F30420C1F38A
:10B3A000014102B190470134082CE7D1002ECEDADA
:10B3B00000224FF0FF33CDE90223774C012602AF84
:10B3C00094F950305D1C2CD0DBB223F0C00006AAEB
:10B3D0004FEAD00C02EB0C0E03F007021EF80C1C17
:10B3E00006FA02F211421CD02518990995F930305D
:10B3F00054F82330002B00F09881032900F0988145
:10B400004FEA800C0CF1A04C1EF8145CDCF800E74D
:10B410001540CEF3014E40F05C81BEF1030F00F009
:10B42000DE81002594F95130581C2DD0DBB223F079
:10B43000C00006AA4FEAD00802EB080E03F007018D
:10B440001EF80C2C06FA01FC12EA0C0F1CD0221874
:10B45000990992F9303054F82330002B00F05B81C9
:10B46000032900F05B81820002F1A0421EF8148CD7
:10B47000D2F800E718EA0C0FCEF3014E40F0368107
:10B48000BEF1030F00F0A68194F95230591C2DD063
:10B49000DBB223F0C00006AA4FEAD00802EB080E88
:10B4A00003F007011EF80C2C06FA01FC12EA0C0F3F
:10B4B0001CD02218990992F9303054F82330002B0F
:10B4C00000F03C81032900F03C81820002F1A0429F
:10B4D0001EF8148CD2F800E718EA0C0FCEF3014ED8
:10B4E00040F0E380BEF1030F00F06E8194F9533019
:10B4F0005A1C2DD0DBB223F0C00006AA4FEAD008B8
:10B5000002EB080E03F007011EF80C2C06FA01FCF2
:10B5100012EA0C0F1CD02218990992F9303054F815
:10B520002330002B00F0ED80032900F0ED80820035
:10B5300002F1A0421EF8148CD2F800E718EA0C0FB2
:10B54000CEF3014E40F0BC80BEF1030F00F000814D
:10B55000002D3FF4FCAE4FF0A043019AD3F8103514
:10B5600093423FF4F4AE029A0193039228E700BF9E
:10B570000061004004610040086100400C6100402F
:10B580001061004014610040186100401C610040DF
:10B590007C61004000600040B42D00209A49D1F841
:10B5A000041311F0010170D0136013680493049B1D
:10B5B000964B1A68012A7FF4A3AE934AD2F804236B
:10B5C00097077FF59DAE00221A601B680493049BC9
:10B5D0008F4B1A68012A46F002067FF496AE8A4A1B
:10B5E000D2F8042355077FF590AE00221A601B683D
:10B5F0000493049B874B1A68012A46F004067FF4E3
:10B6000089AE814AD2F8042314077FF583AE002265
:10B610001A601B680493049B7F4B1A68012A46F04A
:10B6200008067FF47CAE784AD2F80423D0067FF572
:10B6300076AE00221A601B680493049B774B1A684D
:10B64000012A46F010067FF46FAE6F4AD2F8042349
:10B6500091067FF569AE00221A601B680493049B73
:10B660006F4B1A68012A46F020067FF462AE664AE4
:10B67000D2F8042352067FF55CAE00221A601B68E4
:10B680000493049B46F0400653E60E4633E6654BB2
:10B6900000221A601B6805934FF0A043059AD3F867
:10B6A0001035019346F000464CE6BEF1020F7FF4E0
:10B6B0001DAF032963D0002B3FF418AF984715E75F
:10B6C000BEF1020F7FF444AF032969D0002B54D19F
:10B6D0003EE7BEF1020F7FF4A4AE032900F0918093
:10B6E0000025002B3FF49EAE98479BE6BEF1020F6B
:10B6F0007FF4CAAE032956D0002B3FF4C5AE98475D
:10B70000C2E603297FF424AF17F8082042EA0C02AE
:10B7100007F808200BE703297FF4B6AE17F80820D6
:10B7200042EA0C0207F808209DE603297FF479AE6F
:10B7300017F80C50154307F80C5061E603297FF405
:10B74000D5AE17F8082042EA0C0207F80820BCE63C
:10B750000329BBD14FF4003ED2F800C72CF4403C83
:10B76000C2F800C7D2F800C701354CEA0E0CEDB2A2
:10B77000C2F800C7002B3FF4EEAE9847E8E64FF45E
:10B78000403ED2F800C72CF4403CC2F800C7D2F8C3
:10B7900000C701354CEA0E0CEDB2C2F800C78AE7CB
:10B7A0004FF4403ED8E74FF4403ED2F800C72CF4A7
:10B7B000403CC2F800C7D2F800C701354CEA0E0C75
:10B7C000EDB2C2F800C797E703297FF474AF4FF4D6
:10B7D000003ED6E703298FD14FF4003EE5E7032969
:10B7E0007FF47FAF4FF40035DCF8002722F44032BD
:10B7F000CCF80027DCF800272A43CCF800270125E5
:10B800006FE74FF44035EFE700600040046100400F
:10B81000086100400C61004010610040146100406C
:10B82000186100407C610040014B1B68184700BF55
:10B83000102E0020104B984201D00020704730B5E8
:10B8400083B002A8002300F8013D0D46FCF748F93B
:10B850000A4B1C7934B19DF80700FCF767F91120F9
:10B8600003B030BD01229DF807001D601A71FCF77E
:10B870005DF92046F4E700BF00200040102E0020B4
:10B88000034B984203D1034B00221A601A71704790
:10B8900000200040102E002030B56C4AD2F804334E
:10B8A00099058BB066D5D2F82431002B62D00023E5
:10B8B000C2F82431D2F8243103934FF40171644B60
:10B8C0000398C2F8081393F8291009B901215160AF
:10B8D0005E4902228DF81820D1F88024C1F8802416
:10B8E0009869D96809920022CDE90710C3E90622B8
:10B8F000D3E9001406A8A047544AD2F81C31BBB1C2
:10B90000534B186A5969884269D350480022C0F8DD
:10B910001C21D0F81C010190019849B198688DF85C
:10B92000182008915A610790D3E9001206A89047A1
:10B93000464AD2F84431DBB10021454BC2F84411EC
:10B94000D2F8440193F829100090009809B1012120
:10B9500011609A6962B10022586AD9689A6101221D
:10B96000CDE907108DF8182006A8D3E900129047FA
:10B970000BB030BD354AD2F804335B07BCD5D2F8E2
:10B980000831002BB8D0324B996900293CD00021F6
:10B99000C2F80811D2F8081104910499D868596ABC
:10B9A000D2F8182542545A6A996901325A625A6A81
:10B9B0008A42A1D1DA691968002A2ED0D8685D6A56
:10B9C0001C699A61079000220120DC60DA615A62EA
:10B9D0008DF8180008955B6806A898478CE793F8DF
:10B9E000280000F0FF0400288FD1C2F81C41D2F8D3
:10B9F0001C11029102999C68186A196A205C013135
:10BA00001962C2F81C0593E7C2F80811D2F80801C0
:10BA100005900598D2F81825C9E793F8292012B99E
:10BA20000A4A01205060094A4FF40170C2F8080325
:10BA3000586ADA6808900024012007928DF81800EF
:10BA40005A689C6106A8904756E700BF0020004056
:10BA5000182E00202DE9F041DFF8988107792C2677
:10BA600006FB078682B096F82A30002B40F08F80C4
:10BA70000D4604465C4900681646FFF7DBFE0028C9
:10BA800040F081802B68591C0CD001224FF0A0415E
:10BA900002FA03F3C1F808352B6803F5E0730322BB
:10BAA00041F823206B685A1C06D003F5E0734FF071
:10BAB000A042002142F823102368AA69C3F8242574
:10BAC000297D6B7D22680B43C2F86C35D5E90012E5
:10BAD0002368C3F81425C3F80C152B7D012B5AD00D
